:020000040800F2
:1000000000500020791300088D0300088F030008BA
:100010009103000893030008950300080000000006
:10002000000000000000000000000000970300082E
:1000300099030008000000009B0300089D030008CE
:10004000C1130008C1130008C1130008C113000840
:10005000C1130008C1130008C1130008C113000830
:10006000C1130008C1130008C1130008C113000820
:10007000C1130008C1130008C1130008C113000810
:10008000C1130008C1130008C1130008C113000800
:10009000C1130008C1130008C1130008C1130008F0
:1000A000C1130008C1130008C1130008C1130008E0
:1000B000C1130008C1130008C1130008C1130008D0
:1000C000C1130008C1130008C1130008C1130008C0
:1000D000C1130008C1130008C1130008C1130008B0
:1000E000C1130008C1130008C1130008000000007C
:1000F0000000000000000000000000000000000000
:0C01000000000000000000005FF808F1A3
:10010C0010B5054C237833B9044B13B10448AFF345
:10011C0000800123237010BD0C00002000000000A3
:10012C001C14000808B5034B1BB103490348AFF37B
:10013C00008008BD00000000100000201C14000806
:10014C0072B6FEE700B591B0202200210DEB020043
:10015C0001F056F900230193029303930493059342
:10016C00012306934FF48033079306A800F0B8FCE4
:10017C0070B90F2301930123029300210391049181
:10018C00059101A800F0ECFE20B911B05DF804FB5C
:10019C00FFF7D6FFFFF7D4FF10B500F053FCFFF7C5
:1001AC00D1FF00F021F800F093F804210D4800F085
:1001BC007DFBFA2440F2E1439C4207DC094B1B68AF
:1001CC009C63012000F062FC0134F3E740F2E2444E
:1001DC00FA2CEEDD034B1B689C63012000F056FCEF
:1001EC00013CF5E72800002030B589B000240494C8
:1001FC00059406940794184B9A6942F010029A6180
:10020C009A6902F010020192019A9A6942F0200256
:10021C009A619A6902F020020292029A9A6942F05B
:10022C0004029A619B6903F004030393039B0B4D37
:10023C0022464FF4C041284601F034F84FF4C04335
:10024C0004930123059306940223079304A92846DB
:10025C0000F03CFF09B030BD00100240001001401E
:10026C000368B3F1804F00D0704782B003F50433BC
:10027C00DA6942F00102DA61DB6903F001030193F0
:10028C00019B02B07047000000B587B000230293B9
:10029C000393049305930368B3F1804F02D007B026
:1002AC005DF804FB03F504339A6942F004029A6189
:1002BC009B6903F004030193019B022302930393B4
:1002CC00059302A9014800F001FFE8E7000801408E
:1002DC0000B58FB000230A930B930C930D930893E6
:1002EC000993019302930393049305930693079345
:1002FC0022484FF0804202600F224260836042F23B
:10030C000F72C2600361836100F054F930BB4FF48B
:10031C0080530A930AA9194800F049FA08BB1748F8
:10032C0000F074F900BB00230893099308A9134843
:10033C0000F02EFBD8B960230193002302930393A2
:10034C00059304220DEB02010C4800F0BDF988B9AD
:10035C000A48FFF799FF0FB05DF804FBFFF7F0FEBA
:10036C00D5E7FFF7EDFEDAE7FFF7EAFEDBE7FFF78D
:10037C00E7FEE0E7FFF7E4FEEAE700BF2800002015
:10038C00FEE7FEE7FEE7FEE7FEE7704770477047C3
:10039C0008B500F069FB08BD82B00E4B9A6942F0BB
:1003AC0001029A619A6902F001020092009ADA69DC
:1003BC0042F08052DA61DB6903F080530193019BB8
:1003CC00054A536823F0E06343F00073536002B0B6
:1003DC00704700BF001002400000014070B4036A77
:1003EC0023F001030362036A4668826922F07302F8
:1003FC000C6844EA020523F002028B6813430D4C8F
:10040C00A04209D00B4CA0420DD0466085614A68D1
:10041C004263036270BC704723F00803CA6813433D
:10042C0023F00403EEE726F440764A6932438E69E2
:10043C001643EAE7002C014030B4036A23F48073BE
:10044C000362036A4568C26922F073020C68224396
:10045C0023F400738C6843EA04230F4CA04209D0A8
:10046C000D4CA0420ED04560C2614A68C263036263
:10047C0030BC704723F40063CC6843EA042323F4B4
:10048C008063EDE725F440554C6945EA04158C6909
:10049C0045EA0415E7E700BF002C014030B4036ABD
:1004AC0023F480530362036A4468C26922F4E6426F
:1004BC000D6842EA052223F400538D6843EA0533A4
:1004CC00074DA84206D04460C2614A6802640362C8
:1004DC0030BC704724F480444D6944EA8514F2E73B
:1004EC00002C014010B4036A046A24F00104046275
:1004FC00846924F0F00444EA021223F00A030B434B
:10050C008261036210BC704710B4036A23F01003BD
:10051C0003628469036A24F4704444EA023223F0CF
:10052C00A00343EA01138261036210BC7047836825
:10053C0023F07003194341F0070181607047704745
:10054C0003681B4A90420AD0B0F1804F07D0A2F545
:10055C009432904203D002F58062904203D123F092
:10056C0070034A681343124A90420AD0B0F1804F8C
:10057C0007D0A2F59432904203D002F580629042EB
:10058C0003D123F44073CA68134323F080034A69F0
:10059C00134303608B68C3620B688362044B9842FD
:1005AC0002D00123436170470B690363F9E700BF75
:1005BC00002C014040B310B5044690F83D30F3B127
:1005CC00022384F83D30214651F8040BFFF7B8FFA5
:1005DC00012384F8463084F83E3084F83F3084F8A8
:1005EC00403084F8413084F8423084F8433084F849
:1005FC00443084F8453084F83D30002010BD80F83C
:10060C003C30FFF72DFEDBE70120704740B310B5FF
:10061C00044690F83D30F3B1022384F83D30214676
:10062C0051F8040BFFF78CFF012384F8463084F853
:10063C003E3084F83F3084F8403084F8413084F800
:10064C00423084F8433084F8443084F8453084F8E0
:10065C003D30002010BD80F83C30FFF770FFDBE729
:10066C000120704730B4036A23F010030362036A5D
:10067C004468826922F4E6420D6842EA052223F0BE
:10068C0020038D6843EA05130E4DA84209D00D4D89
:10069C00A8420ED0446082614A688263036230BC17
:1006AC00704723F08003CD6843EA051323F0400321
:1006BC00EDE724F440644D6944EA85048D6944EA0D
:1006CC008504E7E7002C014038B590F83C30012B4D
:1006DC0060D00D460446012380F83C300C2A1AD811
:1006EC00DFE802F0071919191D191919311919190F
:1006FC0044000068FFF772FE2268936943F0080318
:10070C0093612268936923F00403936122689369CF
:10071C0029690B439361002084F83C0038BD0068C4
:10072C00FFF7A0FF2268936943F40063936122688A
:10073C00936923F48063936122689369296943EA7E
:10074C0001239361E7E70068FFF776FE2268D3691F
:10075C0043F00803D3612268D36923F00403D36107
:10076C002268D36929690B43D361D4E70068FFF78A
:10077C0095FE2268D36943F40063D3612268D36980
:10078C0023F48063D3612268D369296943EA012386
:10079C00D361C0E70220C1E710B4846824F47F441D
:1007AC0042EA03230B432343836010BC704790F849
:1007BC003C30012B67D010B50446012380F83C3047
:1007CC00022380F83D300268936823F47F4323F0C2
:1007DC00770393600B68402B4BD013D9602B3ED022
:1007EC0025D9702B2FD0B3F5005F19D1CB684A688F
:1007FC0089680068FFF7D0FF2268936843F4804350
:10080C0093600DE0102B04D008D9202B01D0302B95
:10081C0006D119462068FFF78AFE01E0002BF8D0BC
:10082C00012384F83D30002084F83C0010BD502B8F
:10083C00F6D1CA6849680068FFF754FE5021206859
:10084C00FFF775FEECE7CB684A6889680068FFF72C
:10085C00A3FF2268936843F077039360E0E7CA68CC
:10086C0049680068FFF750FE60212068FFF75FFEC3
:10087C00D6E7CA6849680068FFF734FE4021206853
:10088C00FFF755FECCE70220704710B401F01F01B2
:10089C00012303FA01F4036A23EA04030362036AE3
:1008AC008A401343036210BC704700000A4669BBC0
:1008BC0090F83E30DBB213F1FF3318BF0123002B4D
:1008CC0060D110B5002A3DD1022380F83E3011468C
:1008DC00044601220068FFF7D8FF23682B4A934295
:1008EC0040D02368294A934241D0B3F1804F3ED087
:1008FC00A2F5943293423AD002F58062934236D0FC
:10090C001A6842F001021A6000203AE0042909D06A
:10091C0008290FD090F84130DBB213F1FF3318BF28
:10092C000123CCE790F83F30DBB213F1FF3318BF53
:10093C000123C4E790F84030DBB213F1FF3318BF4A
:10094C000123BCE7042A05D0082A07D0022380F82B
:10095C004130BCE7022380F83F30B8E7022380F82F
:10096C004030B4E75A6C42F400425A64B9E79A68D2
:10097C0002F00702062A07D01A6842F001021A6038
:10098C00002010BD012070470020FAE7002C014028
:10099C0090F83C30012B2BD030B4012380F83C3044
:1009AC00022380F83D3003685C689D6824F0700475
:1009BC000A6822435A6003680E4A93420AD0B3F184
:1009CC00804F07D0A2F59432934203D002F5806297
:1009DC00934204D125F080054A6815439D6001239C
:1009EC0080F83D30002380F83C30184630BC70470E
:1009FC0002207047002C014010B504460E4B1878AD
:100A0C004FF47A73B3FBF0F30C4A1068B0FBF3F0BD
:100A1C0000F094FC68B90F2C01D901200AE00022E7
:100A2C0021464FF0FF3000F055FC054B1C600020B8
:100A3C0000E0012010BD00BF0000002008000020D5
:100A4C000400002008B5074A136843F01003136034
:100A5C00032000F02DFC0F20FFF7CEFFFFF79CFCCE
:100A6C00002008BD00200240034A1168034B1B788C
:100A7C000B441360704700BF700000200000002082
:100A8C00014B1868704700BF7000002038B5044651
:100A9C00FFF7F6FF0546B4F1FF3F02D0044B1B787D
:100AAC001C44FFF7EDFF401BA042FAD338BD00BF3A
:100ABC000000002082B0084B1B68084AA2FB0323ED
:100ACC005B0A00FB03F0019000BF019B5A1E0192D0
:100ADC00002BF9D102B0704708000020D34D6210F2
:100AEC00002800F0F18170B582B00446036813F061
:100AFC00010F2CD0AA4B5B6803F00C03042B1DD008
:100B0C00A74B5B6803F00C03082B12D06368B3F59A
:100B1C00803F41D0002B55D103F1804303F50433C2
:100B2C001A6822F480321A601A6822F480221A6041
:100B3C0037E09B4B5B6813F4803FE7D0984B1B6806
:100B4C0013F4003F03D06368002B00F0BF812368CF
:100B5C0013F0020F75D0924B5B6813F00C0F5FD043
:100B6C008F4B5B6803F00C03082B54D02369002BCC
:100B7C0000F089808B4B01221A60FFF781FF05463C
:100B8C00874B1B6813F0020F74D1FFF779FF401BE2
:100B9C000228F5D903209EE1814A136843F480337F
:100BAC001360636843B3FFF76BFF05467C4B1B6810
:100BBC0013F4003FCBD1FFF763FF401B6428F5D93A
:100BCC00032088E1B3F5A02F09D0754B1A6822F4E5
:100BDC0080321A601A6822F480221A60E1E703F16D
:100BEC008043A3F53C331A6842F480221A601A68D9
:100BFC0042F480321A60D4E7FFF742FF0546684B97
:100C0C001B6813F4003FA2D0FFF73AFF401B642887
:100C1C00F5D903205FE1624B5B6813F4803FA5D1EB
:100C2C005F4B1B6813F0020F03D02369012B40F0BC
:100C3C004F815B4A136823F0F803616943EAC103EF
:100C4C001360236813F0080F32D0A369002B5BD01C
:100C5C00554B01221A60FFF713FF0546504B5B6A98
:100C6C0013F0020F21D1FFF70BFF401B0228F5D91F
:100C7C00032030E14A4A136823F0F803616943EA20
:100C8C00C1031360DDE7474B00221A60FFF7F8FE43
:100C9C000546434B1B6813F0020FD2D0FFF7F0FE52
:100CAC00401B0228F5D9032015E10120FFF702FFB4
:100CBC00236813F0040F00F09780394BDB6913F0B5
:100CCC00805F33D1364BDA6942F08052DA61DB69EE
:100CDC0003F080530193019B0125344B1B6813F4E3
:100CEC00807F25D0E368012B36D0002B4CD103F14B
:100CFC00804303F504331A6A22F001021A621A6A5D
:100D0C0022F004021A622CE0274B00221A60FFF733
:100D1C00B7FE0546224B5B6A13F0020FC8D0FFF7F3
:100D2C00AFFE401B0228F5D90320D4E00025D4E700
:100D3C001E4A136843F480731360FFF7A1FE064646
:100D4C001A4B1B6813F4807FCCD1FFF799FE801BE4
:100D5C006428F5D90320BEE0114A136A43F001035D
:100D6C001362E36873B3FFF78BFE06460C4B1B6AEA
:100D7C0013F0020F37D1FFF783FE801B41F288334B
:100D8C009842F3D90320A6E0052B11D0044B1A6A24
:100D9C0022F001021A621A6A22F004021A62E0E7D7
:100DAC0000100240000042428004424200700040A9
:100DBC004D4B1A6A42F004021A621A6A42F001029E
:100DCC001A62CEE7FFF75CFE0646474B1B6A13F030
:100DDC00020F08D0FFF754FE801B41F28833984273
:100DEC00F3D9032077E0E5B9E369002B72D03E4AD2
:100DFC00526802F00C02082A56D0022B17D03B4B3B
:100E0C0000221A60FFF73CFE0446374B1B6813F0B8
:100E1C00007F47D0FFF734FE001B0228F5D90320D2
:100E2C0059E0314AD36923F08053D361DCE72F4B6F
:100E3C0000221A60FFF724FE05462B4B1B6813F0AB
:100E4C00007F06D0FFF71CFE401B0228F5D90320BB
:100E5C0041E0236AB3F5803F1AD023494B6823F451
:100E6C007413226A606A024313434B601F4B0122C6
:100E7C001A60FFF705FE04461B4B1B6813F0007F3E
:100E8C000ED1FFF7FDFD001B0228F5D9032022E04F
:100E9C00154A536823F40033A1680B435360DCE715
:100EAC00002018E0002016E0012B16D00E4B5B68DA
:100EBC0003F48031226A914211D103F47013626AF7
:100ECC0093420ED1002006E001207047012002E081
:100EDC00012000E0002002B070BD0120FBE70120E2
:100EEC00F9E70120F7E700BF001002406000424222
:100EFC0010B487B0164C94E80F000DF1180C0CE9E7
:100F0C000F00238AADF80430124B5B6803F00C021F
:100F1C00082A03D0104807B010BC7047C3F38342B3
:100F2C00624412F8102C13F4803F0CD0094B5B6810
:100F3C00C3F34043634413F8143C074800FB02F02E
:100F4C00B0FBF3F0E7E7054800FB02F0E3E700BF76
:100F5C00341400080010024000127A0000093D0011
:100F6C00002800F0A08070B50446534B1B6803F0BA
:100F7C0007038B420BD2504A136823F007030B4331
:100F8C001360136803F007038B4240F08E802368D4
:100F9C0013F0020F17D013F0040F04D0474A536814
:100FAC0043F4E0635360236813F0080F04D0434A02
:100FBC00536843F460535360404A536823F0F00382
:100FCC00A068034353600D46236813F0010F31D022
:100FDC006368012B20D0022B25D0384A126812F0FE
:100FEC00020F64D035494A6822F0030213434B6068
:100FFC00FFF746FD0646314B5B6803F00C03626855
:10100C00B3EB820F16D0FFF73BFD801B41F2883308
:10101C009842F0D9032045E0284A126812F4003FA8
:10102C00E0D101203EE0254A126812F0007FD9D1B0
:10103C00012037E0204B1B6803F00703AB420AD9B1
:10104C001D4A136823F007032B431360136803F046
:10105C000703AB422DD1236813F0040F06D0174AB7
:10106C00536823F4E063E1680B435360236813F087
:10107C00080F07D0114A536823F46053216943EADF
:10108C00C1035360FFF734FF0C4B5B68C3F30313CE
:10109C000B4AD35CD8400B4B18600B4B1868FFF70E
:1010AC00ABFC002070BD012070470120FAE7012045
:1010BC00F8E70120F6E700BF0020024000100240D4
:1010CC00481400080800002004000020F0B482B08E
:1010DC0000263546A0E0002A58D0012A10D1CE684F
:1010EC000EE06A4FBA4251D048D9694FBA424DD03E
:1010FC0007F58037BA4249D0A7F58017BA4245D0D8
:10110C00FF2B57D88446FF2B57D8AC00DCF80020B7
:10111C000F27A74022EA070206FA04F42243CCF870
:10112C0000204A6812F0805F75D05A4A946944F0E6
:10113C0001049461926902F001020192019AAC08D7
:10114C00A71C554A52F8272005F00307BF004FF0A3
:10115C000F0C0CFA07FC22EA0C0C504A904232D0CD
:10116C0002F58062904271D002F5806290426FD09D
:10117C0002F58062904224D0042225E0A7F5801766
:10118C00BA4203D007F58037BA42B9D18A687AB12E
:10119C00012A08D044610826B2E7CE680836AFE7CA
:1011AC00CE680C36ACE704610826A9E70026A7E751
:1011BC000426A5E700F1040CA5E7A5F10804A4009A
:1011CC00A4E7032200E00022BA4042EA0C020234F7
:1011DC00314F47F824204A6812F4803F3AD0304C03
:1011EC0022681A4322604A6812F4003F38D02C4C13
:1011FC0062681A4362604A6812F4801F36D0284C29
:10120C00A2681A43A2604A6812F4001F34D0244C1E
:10121C00E2681343E36001350B6833FA05F231D011
:10122C000124AC4023409C42F5D14A68122AB7D025
:10123C003FF657AF022AB0D07FF64DAF032AB5D098
:10124C00112A7FF45DAFCE68043659E70122BBE763
:10125C000222B9E7124C226822EA03022260C2E79A
:10126C000F4C626822EA03026260C4E70C4CA2686D
:10127C0022EA0302A260C6E7094CE26822EA0303F1
:10128C00E360C8E702B0F0BC704700BF000021105B
:10129C000000311000100240000001400008014025
:1012AC00000401400AB101617047090401617047F3
:1012BC00074AD36823F4E0631B041B0C000200F400
:1012CC00E060184340F0BF6040F40030D0607047DD
:1012DC0000ED00E030B4174BDB68C3F30223C3F11D
:1012EC000704042C28BF04241D1D062D01D9033B23
:1012FC0000E000234FF0FF3505FA04F421EA040165
:10130C00994005FA03F322EA03031943002809DB89
:10131C000901C9B200F1604000F5614080F800138A
:10132C0030BC704700F00F000901C9B2024B1954D0
:10133C00F6E700BF00ED00E014ED00E00138B0F17D
:10134C00807F0AD2064B5860064AF02182F823109F
:10135C000020986007221A6070470120704700BF78
:10136C0010E000E000ED00E0704700000C480D4973
:10137C000D4A002302E0D458C4500433C4188C42E4
:10138C00F9D30A4A0A4C002301E013600432A2424A
:10139C00FBD3FFF7E9FF00F00FF8FEF7FDFE7047F7
:1013AC00000000200C000020601400080C0000203D
:1013BC0074000020FEE7000070B500260C4D0D4CAB
:1013CC00641BA410A64209D100F022F800260A4D95
:1013DC000A4C641BA410A64205D170BD55F8043B01
:1013EC0098470136EEE755F8043B98470136F2E78B
:1013FC005814000858140008581400085C1400080D
:10140C0003460244934200D1704703F8011BF9E7ED
:10141C00F8B500BFF8BC08BC9E467047F8B500BFD5
:08142C00F8BC08BC9E467047A5
:1014340002030405060708090A0B0C0D0E0F101011
:10144400010200000000000000000000010203048B
:041454000607080976
:041458003101000856
:04145C000D01000876
:0C14600001000000100000000024F40057
:040000050800137963
:00000001FF
