:020000040800F2
:10000000005000202916000871030008730300083F
:10001000750300087703000879030008000000005A
:100020000000000000000000000000007B0300084A
:100030007D030008000000007F0300088103000822
:100040007116000871160008711600087116000874
:100050007116000871160008711600087116000864
:100060007116000871160008711600087116000854
:100070007116000871160008711600087116000844
:100080007116000871160008711600087116000834
:100090007116000871160008711600087116000824
:1000A0007116000871160008711600087116000814
:1000B0007116000871160008711600087116000804
:1000C00071160008711600087116000871160008F4
:1000D00071160008711600087116000871160008E4
:1000E0007116000871160008711600080000000063
:1000F0000000000000000000000000000000000000
:0C01000000000000000000005FF808F1A3
:10010C0010B5054C237833B9044B13B10448AFF345
:10011C0000800123237010BD70000020000000003F
:10012C004420000808B5034B1BB103490348AFF347
:10013C00008008BD0000000074000020442000086E
:10014C00034613F8012B002AFBD1181A013870470B
:10015C0072B6FEE700B591B02422002107A801F089
:10016C00ABFA0023019302930393049305930223A8
:10017C00069301230A9310230B9306A800F054FD59
:10018C0068B90F2301930021029103910491059109
:10019C0001A800F089FF20B911B05DF804FBFFF74E
:1001AC00D7FFFFF7D5FF000070B58EB0002500F02B
:1001BC00EDFCFFF7CFFF00F063F800F079F801F0E9
:1001CC00D1F92C4C0421204600F08EFA236840F221
:1001DC00EE269E6331E001A801F045FA85B20023BA
:1001EC00019302938DF80C309DF830200EAB234414
:1001FC0003F8342C0134E4B29DF83030232B0BD0AF
:10020C004FF47A7301220CA91B4800F028FC9DF8CE
:10021C003030232BE8D1DEE72A46184904A801F038
:10022C0053FA04A8FFF78CFF4FF47A7382B204A937
:10023C00114800F0A7FBAE4213D3002301930293A5
:10024C008DF80C304FF47A7301220CA90A4800F097
:10025C0006FC04460028F0D19DF83030212BECD15F
:10026C00CAE7044B1B689E63012000F0B3FC013607
:10027C00B6B2E0E7E00000209800002070200008F3
:10028C0082B00A4B9A6942F020029A619A6902F094
:10029C0020020092009A9A6942F004029A619B69CA
:1002AC0003F004030193019B02B07047001002405D
:1002BC0008B50C480C4B03604FF4165343604FF4D5
:1002CC00805383600023C3604FF4806202610C2270
:1002DC0042618361C36100F026FB00B908BDFFF7E2
:1002EC0037FFFBE7980000200038014010B586B0BE
:1002FC00002302930393049305930268174B9A42CD
:10030C0001D006B010BD03F558439A6942F48042FF
:10031C009A619A6902F480420092009A9A6942F0BA
:10032C0004029A619B6903F004030193019B4FF44F
:10033C00007302930223039303230593084C02A931
:10034C00204600F08DFF4FF480630293002303934B
:10035C00049302A9204600F083FFD2E70038014045
:10036C0000080140FEE7FEE7FEE7FEE7FEE7704708
:10037C007047704708B500F01BFC08BD82B00E4BEF
:10038C009A6942F001029A619A6902F001020092A4
:10039C00009ADA6942F08052DA61DB6903F080532B
:1003AC000193019B054A536823F0E06343F000730B
:1003BC00536002B0704700BF0010024000000140C3
:1003CC0070B4036A23F001030362036A466882690E
:1003DC0022F073020C6844EA020523F002028B68D7
:1003EC0013430D4CA04209D00B4CA0420DD04660DB
:1003FC0085614A684263036270BC704723F008034E
:10040C00CA68134323F00403EEE726F440764A69E6
:10041C0032438E691643EAE7002C014030B4036A7C
:10042C0023F480730362036A4568C26922F0730285
:10043C000C68224323F400738C6843EA04230F4CAA
:10044C00A04209D00D4CA0420ED04560C2614A6852
:10045C00C263036230BC704723F40063CC6843EA88
:10046C00042323F48063EDE725F440554C6945EAF9
:10047C0004158C6945EA0415E7E700BF002C014020
:10048C0030B4036A23F480530362036A4468C2697C
:10049C0022F4E6420D6842EA052223F400538D68EB
:1004AC0043EA0533074DA84206D04460C2614A684E
:1004BC000264036230BC704724F480444D6944EA02
:1004CC008514F2E7002C014003681B4A90420AD0C5
:1004DC00B0F1804F07D0A2F59432904203D002F5D0
:1004EC008062904203D123F070034A681343124A8E
:1004FC0090420AD0B0F1804F07D0A2F594329042CE
:10050C0003D002F58062904203D123F44073CA6891
:10051C00134323F080034A69134303608B68C3625F
:10052C000B688362044B984202D0012343617047ED
:10053C000B690363F9E700BF002C014040B310B511
:10054C00044690F83D30F3B1022384F83D30214647
:10055C0051F8040BFFF7B8FF012384F8463084F8F8
:10056C003E3084F83F3084F8403084F8413084F8D1
:10057C00423084F8433084F8443084F8453084F8B1
:10058C003D30002010BD80F83C3000F0B2FFDBE7BE
:10059C000120704730B4036A23F010030362036A2E
:1005AC004468826922F4E6420D6842EA052223F08F
:1005BC0020038D6843EA05130E4DA84209D00D4D5A
:1005CC00A8420ED0446082614A688263036230BCE8
:1005DC00704723F08003CD6843EA051323F04003F2
:1005EC00EDE724F440644D6944EA85048D6944EADE
:1005FC008504E7E7002C014038B590F83C30012B1E
:10060C0060D00D460446012380F83C300C2A1AD8E1
:10061C00DFE802F0071919191D19191931191919DF
:10062C0044000068FFF7CCFE2268936943F008038E
:10063C0093612268936923F00403936122689369A0
:10064C0029690B439361002084F83C0038BD006895
:10065C00FFF7A0FF2268936943F40063936122685B
:10066C00936923F48063936122689369296943EA4F
:10067C0001239361E7E70068FFF7D0FE2268D36996
:10068C0043F00803D3612268D36923F00403D361D8
:10069C002268D36929690B43D361D4E70068FFF75B
:1006AC00EFFE2268D36943F40063D3612268D369F7
:1006BC0023F48063D3612268D369296943EA012357
:1006CC00D361C0E70220C1E710B401F01F01012380
:1006DC0003FA01F4036A23EA04030362036A8A40FF
:1006EC001343036210BC70470A4669BB90F83E3056
:1006FC00DBB213F1FF3318BF0123002B60D110B50F
:10070C00002A3DD1022380F83E30114604460122D6
:10071C000068FFF7D9FF23682B4A934240D0236827
:10072C00294A934241D0B3F1804F3ED0A2F5943286
:10073C0093423AD002F58062934236D01A6842F066
:10074C0001021A6000203AE0042909D008290FD0D0
:10075C0090F84130DBB213F1FF3318BF0123CCE723
:10076C0090F83F30DBB213F1FF3318BF0123C4E71D
:10077C0090F84030DBB213F1FF3318BF0123BCE714
:10078C00042A05D0082A07D0022380F84130BCE7A0
:10079C00022380F83F30B8E7022380F84030B4E7FA
:1007AC005A6C42F400425A64B9E79A6802F00702A4
:1007BC00062A07D01A6842F001021A60002010BD08
:1007CC00012070470020FAE7002C014090F83C30E3
:1007DC00012B2BD030B4012380F83C30022380F85D
:1007EC003D3003685C689D6824F070040A682243FD
:1007FC005A6003680E4A93420AD0B3F1804F07D077
:10080C00A2F59432934203D002F58062934204D154
:10081C0025F080054A6815439D60012380F83D3022
:10082C00002380F83C30184630BC704702207047DB
:10083C00002C014038B504460268136923F4405378
:10084C00C1680B43136183680269134342691A43FD
:10085C000168CB6823F4B05323F00C031343CB6033
:10086C000268536923F4407381690B435361026836
:10087C00124B9A421FD000F0D3FC00EB800000EB2F
:10088C00800063689B00B0FBF3F00D4DA5FB0032BC
:10089C005109642202FB110213013233A5FB03231D
:1008AC005B0903F0F00202EB011203F00F03216865
:1008BC0013448B6038BD00F0C3FCDEE70038014008
:1008CC001F85EB512DE9F04105460F46164698461B
:1008DC00069C2B681B6837EA03030CBF012300231B
:1008EC00B3421DD1B4F1FF3FF3D02CB100F06CF941
:1008FC00A0EB0800A042ECD92A68D36823F4D0738B
:10090C00D3602A68536923F001035361202385F8CF
:10091C003D3085F83E30002385F83C30032000E064
:10092C000020BDE8F08158B310B5044690F83D3076
:10093C000BB3242384F83D302268D36823F400538E
:10094C00D3602046FFF776FF2268136923F49043A7
:10095C0013612268536923F02A0353612268D36818
:10096C0043F40053D36000202064202384F83D30EE
:10097C0084F83E3010BD80F83C30FFF7B7FCD8E768
:10098C00012070472DE9F04182B01E4690F83D30B1
:10099C00DBB2202B54D104460D469046002954D08E
:1009AC00002A54D090F83C30012B52D0012380F80F
:1009BC003C3000230364212380F83D3000F004F91F
:1009CC000746A4F82480A4F82680A368B3F5805FBA
:1009DC0005D04FF00008002384F83C3011E0236967
:1009EC0013B14FF00008F6E7A8460025F3E738F8F6
:1009FC00023B2268C3F308035360E38C013B9BB2B8
:100A0C00E384E38C9BB273B100963B4600228021B9
:100A1C002046FFF757FFF0B9002DE8D015F8012B51
:100A2C0023685A60E9E700963B46002240212046A5
:100A3C00FFF748FF034680B9202284F83D2000E0F0
:100A4C000223184602B0BDE8F0810123F9E7012327
:100A5C00F7E70223F5E70323F3E70323F1E72DE997
:100A6C00F04182B01E4690F83E30DBB2202B5BD1B9
:100A7C0004460D46904600295AD0002A5AD090F8C8
:100A8C003C30012B58D0012380F83C300023036408
:100A9C00222280F83E20036300F096F80746A4F863
:100AAC002C80A4F82E80A368B3F5805F05D04FF09E
:100ABC000008002384F83C3016E0236913B14FF092
:100ACC000008F6E7A8460025F3E723685B68C3F344
:100ADC00080328F8023B03E023685B682B700135A0
:100AEC00E38D013B9BB2E385E38D9BB2BBB10096DA
:100AFC003B46002220212046FFF7E4FEF0B9002DF2
:100B0C00E3D0A368B3F5805FE6D013B92369002B5B
:100B1C00E2D023685B6803F07F032B70DFE72023B0
:100B2C0084F83E30002000E0022002B0BDE8F081E5
:100B3C000120FAE70120F8E70220F6E70320F4E7AA
:100B4C0010B504460E4B18784FF47A73B3FBF0F3E0
:100B5C000C4A1068B0FBF3F000F0B4FC68B90F2C31
:100B6C0001D901200AE0002221464FF0FF3000F0AD
:100B7C0075FC054B1C60002000E0012010BD00BF7F
:100B8C0000000020080000200400002008B5074ADF
:100B9C00136843F010031360032000F04DFC0F208A
:100BAC00FFF7CEFFFFF7EAFB002008BD0020024054
:100BBC00034A1168034B1B780B441360704700BF4A
:100BCC00DC00002000000020014B1868704700BFBB
:100BDC00DC00002038B50446FFF7F6FF0546B4F1FB
:100BEC00FF3F02D0044B1B781C44FFF7EDFF401B6A
:100BFC00A042FAD338BD00BF0000002082B0084BE1
:100C0C001B68084AA2FB03235B0A00FB03F001905C
:100C1C0000BF019B5A1E0192002BF9D102B0704704
:100C2C0008000020D34D6210002800F0F18170B54F
:100C3C0082B00446036813F0010F2CD0AA4B5B68FA
:100C4C0003F00C03042B1DD0A74B5B6803F00C03C3
:100C5C00082B12D06368B3F5803F41D0002B55D1DF
:100C6C0003F1804303F504331A6822F480321A60CE
:100C7C001A6822F480221A6037E09B4B5B6813F4ED
:100C8C00803FE7D0984B1B6813F4003F03D0636898
:100C9C00002B00F0BF81236813F0020F75D0924B2C
:100CAC005B6813F00C0F5FD08F4B5B6803F00C0389
:100CBC00082B54D02369002B00F089808B4B012228
:100CCC001A60FFF781FF0546874B1B6813F0020F74
:100CDC0074D1FFF779FF401B0228F5D903209EE160
:100CEC00814A136843F480331360636843B3FFF79E
:100CFC006BFF05467C4B1B6813F4003FCBD1FFF711
:100D0C0063FF401B6428F5D9032088E1B3F5A02FBD
:100D1C0009D0754B1A6822F480321A601A6822F4D2
:100D2C0080221A60E1E703F18043A3F53C331A6893
:100D3C0042F480221A601A6842F480321A60D4E7B6
:100D4C00FFF742FF0546684B1B6813F4003FA2D027
:100D5C00FFF73AFF401B6428F5D903205FE1624B93
:100D6C005B6813F4803FA5D15F4B1B6813F0020F37
:100D7C0003D02369012B40F04F815B4A136823F0A9
:100D8C00F803616943EAC1031360236813F0080F89
:100D9C0032D0A369002B5BD0554B01221A60FFF7B0
:100DAC0013FF0546504B5B6A13F0020F21D1FFF77E
:100DBC000BFF401B0228F5D9032030E14A4A136887
:100DCC0023F0F803616943EAC1031360DDE7474B85
:100DDC0000221A60FFF7F8FE0546434B1B6813F020
:100DEC00020FD2D0FFF7F0FE401B0228F5D90320EA
:100DFC0015E10120FFF702FF236813F0040F00F048
:100E0C009780394BDB6913F0805F33D1364BDA694D
:100E1C0042F08052DA61DB6903F080530193019B4D
:100E2C000125344B1B6813F4807F25D0E368012B1C
:100E3C0036D0002B4CD103F1804303F504331A6AEE
:100E4C0022F001021A621A6A22F004021A622CE0E1
:100E5C00274B00221A60FFF7B7FE0546224B5B6A50
:100E6C0013F0020FC8D0FFF7AFFE401B0228F5D9D4
:100E7C000320D4E00025D4E71E4A136843F48073A2
:100E8C001360FFF7A1FE06461A4B1B6813F4807F14
:100E9C00CCD1FFF799FE801B6428F5D90320BEE066
:100EAC00114A136A43F001031362E36873B3FFF74B
:100EBC008BFE06460C4B1B6A13F0020F37D1FFF763
:100ECC0083FE801B41F288339842F3D90320A6E0BD
:100EDC00052B11D0044B1A6A22F001021A621A6A0D
:100EEC0022F004021A62E0E70010024000004242C5
:100EFC0080044242007000404D4B1A6A42F00402DA
:100F0C001A621A6A42F001021A62CEE7FFF75CFE1F
:100F1C000646474B1B6A13F0020F08D0FFF754FE2E
:100F2C00801B41F288339842F3D9032077E0E5B96E
:100F3C00E369002B72D03E4A526802F00C02082A78
:100F4C0056D0022B17D03B4B00221A60FFF73CFE09
:100F5C000446374B1B6813F0007F47D0FFF734FE75
:100F6C00001B0228F5D9032059E0314AD36923F03C
:100F7C008053D361DCE72F4B00221A60FFF724FE6D
:100F8C0005462B4B1B6813F0007F06D0FFF71CFEA9
:100F9C00401B0228F5D9032041E0236AB3F5803FBA
:100FAC001AD023494B6823F47413226A606A0243F3
:100FBC0013434B601F4B01221A60FFF705FE0446DA
:100FCC001B4B1B6813F0007F0ED1FFF7FDFD001BC0
:100FDC000228F5D9032022E0154A536823F4003384
:100FEC00A1680B435360DCE7002018E0002016E0FA
:100FFC00012B16D00E4B5B6803F48031226A9142B0
:10100C0011D103F47013626A93420ED1002006E0F2
:10101C0001207047012002E0012000E0002002B016
:10102C0070BD0120FBE70120F9E70120F7E700BFC5
:10103C00001002406000424210B487B0164C94E895
:10104C000F000DF1180C0CE90F00238AADF80430D9
:10105C00124B5B6803F00C02082A03D0104807B04F
:10106C0010BC7047C3F38342624412F8102C13F483
:10107C00803F0CD0094B5B68C3F34043634413F8C7
:10108C00143C074800FB02F0B0FBF3F0E7E705481F
:10109C0000FB02F0E3E700BF5C20000800100240F8
:1010AC0000127A0000093D00002800F0A08070B505
:1010BC000446534B1B6803F007038B420BD2504A78
:1010CC00136823F007030B431360136803F0070343
:1010DC008B4240F08E80236813F0020F17D013F070
:1010EC00040F04D0474A536843F4E0635360236809
:1010FC0013F0080F04D0434A536843F46053536011
:10110C00404A536823F0F003A068034353600D4634
:10111C00236813F0010F31D06368012B20D0022B10
:10112C0025D0384A126812F0020F64D035494A684B
:10113C0022F0030213434B60FFF746FD0646314B8A
:10114C005B6803F00C036268B3EB820F16D0FFF7F9
:10115C003BFD801B41F288339842F0D9032045E0D7
:10116C00284A126812F4003FE0D101203EE0254AE3
:10117C00126812F0007FD9D1012037E0204B1B6898
:10118C0003F00703AB420AD91D4A136823F0070387
:10119C002B431360136803F00703AB422DD1236874
:1011AC0013F0040F06D0174A536823F4E063E16888
:1011BC000B435360236813F0080F07D0114A536890
:1011CC0023F46053216943EAC1035360FFF734FFF2
:1011DC000C4B5B68C3F303130B4AD35CD8400B4B2B
:1011EC0018600B4B1868FFF7ABFC002070BD01209A
:1011FC0070470120FAE70120F8E70120F6E700BF6D
:10120C00002002400010024084200008080000204A
:10121C0004000020014B1868704700BF0800002034
:10122C0008B5FFF7F7FF044B5B68C3F30223034ACF
:10123C00D35CD84008BD00BF0010024094200008C9
:10124C0008B5FFF7E7FF044B5B68C3F3C223034AFF
:10125C00D35CD84008BD00BF0010024094200008A9
:10126C00F0B482B000263546A0E0002A58D0012AFE
:10127C0010D1CE680EE06A4FBA4251D048D9694FAE
:10128C00BA424DD007F58037BA4249D0A7F580173E
:10129C00BA4245D0FF2B57D88446FF2B57D8AC0009
:1012AC00DCF800200F27A74022EA070206FA04F414
:1012BC002243CCF800204A6812F0805F75D05A4A5D
:1012CC00946944F001049461926902F00102019264
:1012DC00019AAC08A71C554A52F8272005F00307C1
:1012EC00BF004FF00F0C0CFA07FC22EA0C0C504A12
:1012FC00904232D002F58062904271D002F5806249
:10130C0090426FD002F58062904224D0042225E0F6
:10131C00A7F58017BA4203D007F58037BA42B9D186
:10132C008A687AB1012A08D044610826B2E7CE68EF
:10133C000836AFE7CE680C36ACE704610826A9E79F
:10134C000026A7E70426A5E700F1040CA5E7A5F104
:10135C000804A400A4E7032200E00022BA4042EAF9
:10136C000C020234314F47F824204A6812F4803FB3
:10137C003AD0304C22681A4322604A6812F4003F7B
:10138C0038D02C4C62681A4362604A6812F4801F91
:10139C0036D0284CA2681A43A2604A6812F4001F87
:1013AC0034D0244CE2681343E36001350B6833FA04
:1013BC0005F231D00124AC4023409C42F5D14A685F
:1013CC00122AB7D03FF657AF022AB0D07FF64DAFF6
:1013DC00032AB5D0112A7FF45DAFCE68043659E7E5
:1013EC000122BBE70222B9E7124C226822EA03026F
:1013FC002260C2E70F4C626822EA03026260C4E713
:10140C000C4CA26822EA0302A260C6E7094CE2680F
:10141C0022EA0303E360C8E702B0F0BC704700BFE8
:10142C0000002110000031100010024000000140AB
:10143C000008014000040140074AD36823F4E0632C
:10144C001B041B0C000200F4E060184340F0BF606A
:10145C0040F40030D060704700ED00E030B4174B22
:10146C00DB68C3F30223C3F10704042C28BF042454
:10147C001D1D062D01D9033B00E000234FF0FF3565
:10148C0005FA04F421EA0401994005FA03F322EA6F
:10149C0003031943002809DB0901C9B200F16040BC
:1014AC0000F5614080F8001330BC704700F00F006D
:1014BC000901C9B2024B1954F6E700BF00ED00E078
:1014CC0014ED00E00138B0F1807F0AD2064B586071
:1014DC00064AF02182F823100020986007221A6037
:1014EC0070470120704700BF10E000E000ED00E005
:1014FC0070470368B3F1804F00D0704782B003F59A
:10150C000433DA6942F00102DA61DB6903F00103AA
:10151C000193019B02B0704700B587B00023029382
:10152C000393049305930368B3F1804F02D007B083
:10153C005DF804FB03F504339A6942F004029A61E6
:10154C009B6903F004030193019B0F230293022375
:10155C000393059302A90248FFF782FEE7E700BF59
:10156C000008014000B58BB0002308930993019348
:10157C0002930393049305930693079326484FF025
:10158C008042026010224260836042F20F72C2609D
:10159C0003618361FEF7D2FF58BB002308930993C4
:1015AC0008A91D48FFF712F930BB602301930022F4
:1015BC0002920392059201A91748FFF71DF8F0B9A2
:1015CC0004220DEB02011448FFF716F8D0B90822DB
:1015DC0001A91148FFF710F8B8B90C2201A90E485F
:1015EC00FFF70AF8A0B90C48FFF796FF0BB05DF8AF
:1015FC0004FBFEF7ADFDD0E7FEF7AAFDD5E7FEF73D
:10160C00A7FDDDE7FEF7A4FDE1E7FEF7A1FDE4E7AA
:10161C00FEF79EFDE7E700BFE00000200C480D49F7
:10162C000D4A002302E0D458C4500433C4188C4231
:10163C00F9D30A4A0A4C002301E013600432A24297
:10164C00FBD3FFF755FF00F013F8FEF7ADFD704725
:10165C000000002070000020D8210008700000203D
:10166C0038010020FEE70A22002100F0C5B8000076
:10167C0070B500260C4D0D4C641BA410A64209D16C
:10168C0000F0DAFC00260A4D0A4C641BA410A6429A
:10169C0005D170BD55F8043B98470136EEE755F877
:1016AC00043B98470136F2E7D0210008D02100080E
:1016BC00D0210008D421000803460244934200D1F3
:1016CC00704703F8011BF9E70EB46FF0004100B549
:1016DC009CB01DAB029006900791049108480949F3
:1016EC0053F8042B0591006802A9019300F0EAF865
:1016FC000022029B1A701CB05DF804EB03B070471B
:10170C000C0000200802FFFF2DE9F0478646084632
:10171C00384F054615F8014BE65D16F0080634D136
:10172C002D2C34D14FF001082C78851C002B5CD06B
:10173C00102B09D1302C07D1287800F0DF00582865
:10174C004ED110236C780235B8F1000F14BF4FF056
:10175C00004C6FF0004C0027BCFBF3F9384603FB40
:10176C0019CAA4F13006092E18D83446A34224DD38
:10177C007E1C07D081451DD301D1A2451ADB012760
:10178C0000FB034015F8014BEBE72846C1E72B2C77
:10179C0008BF2C78B04608BF851CC7E7A4F14106EA
:1017AC00192E01D8373CE1E7A4F16106192E04D8B3
:1017BC00573CDBE74FF0FF37E4E77B1C06D12223D5
:1017CC006046CEF8003042B9BDE8F087B8F1000FA2
:1017DC0000D04042002AF7D007B1691E1160F3E730
:1017EC003024002BB0D10823AEE7302CA4D00A2330
:1017FC00AAE700BF9D20000813460A46014602488E
:10180C000068FFF781BF00BF0C0000202DE9F047F6
:10181C008E6882469E420C469146984638D8B1F85E
:10182C000CC01CF4906F31D062692568096902EB19
:10183C0042026F1A02EBD272013355103B449D42A7
:10184C0038BF1D461CF4806F30D0294600F040FB99
:10185C00064650B90C234FF0FF30CAF80030A3896C
:10186C0043F04003A381BDE8F0873A46216900F0BC
:10187C00BBFAA38923F4906343F08003A381266110
:10188C003E44266046466561ED1BA560464500D981
:10189C00464632464946206800F0B4FAA368002058
:1018AC009B1BA36023681E442660DCE72A4600F0DD
:1018BC0069FB06460028E2D12169504600F0BCFACB
:1018CC00C8E700002DE9F04F1E468B899DB01B0622
:1018DC0007460D4614460ED50B6963B9402100F03E
:1018EC00F7FA2860286120B90C233B604FF0FF30D9
:1018FC00C9E040236B610023099320238DF8293024
:10190C0030234FF0010ADFF898918DF82A300396B6
:10191C0023461E4613F8012B0AB1252AF9D1B6EB42
:10192C00040B0BD05B46224629463846FFF76EFF68
:10193C00013000F0A380099B5B4409933378002BA2
:10194C0000F09C8000234FF0FF32CDE905230136D7
:10195C00049307938DF853301A933446052214F8E8
:10196C00011B4F4800F032FA049BC0B9D90644BFA2
:10197C0020228DF853201A0744BF2B228DF85320B8
:10198C0032782A2A13D0344600200A26079A214698
:10199C0011F8013B303B092B4BD970B914E0A0EB8B
:1019AC0009000AFA00F0184304902646D5E7039A7A
:1019BC00111D12680391002A01DB079204E05242C8
:1019CC0043F002030792049323782E2B0CD16378F7
:1019DC002A2B33D1039B02341A1D1B680392002B54
:1019EC00B8BF4FF0FF3305932E4E032221783046BB
:1019FC0000F0ECF938B14023801B03FA00F0049B93
:101A0C0001340343049314F8011B062226488DF875
:101A1C00281000F0DBF9002838D0244B13BB039BB3
:101A2C00073323F0070308330393099B43440993BB
:101A3C006EE706FB023201200C46A8E700230A26BB
:101A4C00194601340593204610F8012B303A092A27
:101A5C0003D9002BC8D00591C6E706FB0121012351
:101A6C000446F0E703AB00932A46114B04A9384611
:101A7C00AFF30080B0F1FF3F8046D6D1AB895B0657
:101A8C003FF534AF09981DB0BDE8F08F03AB009360
:101A9C002A46074B04A9384600F082F8EAE700BF53
:101AAC009D210008A3210008A721000800000000C8
:101ABC00191800082DE9F04791461F468A680B69F2
:101ACC0006469342B8BF1346C9F8003091F843203C
:101ADC000C46DDF8208012B10133C9F800302368C0
:101AEC00990642BFD9F800300233C9F80030256896
:101AFC0015F0060507D104F1190AE368D9F800209E
:101B0C009B1AAB4229DC94F843302268003318BF8F
:101B1C00012392062ED404F1430239463046C047C5
:101B2C00013021D02368E56803F00603042B18BFAD
:101B3C000025D9F800204FF0000908BFAD1AA368A2
:101B4C00226908BF25EAE5759342C4BF9B1AED18BC
:101B5C001A344D451AD1002008E00123524639466B
:101B6C003046C047013003D14FF0FF30BDE8F0875D
:101B7C000135C2E73020E11881F843005A1C94F873
:101B8C0045102244023382F84310C4E70123224655
:101B9C0039463046C0470130E6D009F10109D8E793
:101BAC002DE9F04306460C4601F14300097E85B051
:101BBC006E29984617460C9B00F0BB8024D86329ED
:101BCC0039D00AD8002900F0C480582900F092803E
:101BDC0004F1420584F8421035E0642901D06929EA
:101BEC00F6D125681A6815F0800F02F104012CD08B
:101BFC0012681960002A03DA2D23524284F843300C
:101C0C00DFF8C0C10A233FE0732900F0A68008D892
:101C1C006F2921D07029DBD1226842F0200222608A
:101C2C0003E0752918D07829D2D17822DFF898C131
:101C3C0084F8452062E01A6804F14205111D196010
:101C4C00136884F84230012394E0126815F0400FB9
:101C5C00196018BF12B2CDE7D4F800C01A681CF096
:101C6C00800F02F104051D6001D0126803E01CF026
:101C7C00400FFAD012886F290CBF08230A23DFF813
:101C8C0044C1002184F843106568002DA8BF216869
:101C9C00A560A4BF21F0040121600AB9002D46D033
:101CAC000546B2FBF3F103FB112E1CF80EE0934238
:101CBC0005F801ED39D9082B0BD12368DA0708D5C3
:101CCC00236962689A42DEBF302305F8013C05F1B6
:101CDC00FF35401B2061CDF800803B4603AA21460E
:101CEC003046FFF7E7FE013049D14FF0FF3005B029
:101CFC00BDE8F083DFF8CCC084F845101D6821687E
:101D0C0055F8042B1D600D060BD5CD0744BF41F0D3
:101D1C00200121601AB9236823F0200323601023CB
:101D2C00AFE74B0648BF92B2EFE70A46B9E7054664
:101D3C00C1E71A68D4F800C0151D61691CF0800F4A
:101D4C001D60136801D0196003E01CF0400FFAD03D
:101D5C001980002305462361BDE71A68111D19601F
:101D6C00156800216268284600F030F808B1401B65
:101D7C00606063682361002384F84330ABE7236918
:101D8C002A4639463046C0470130AED023689B07FF
:101D9C0013D4E068039B9842B8BF1846A7E7012309
:101DAC004A4639463046C04701309ED00135E3687B
:101DBC00039A9B1AAB42F2DCEBE7002504F11909FC
:101DCC00F5E700BFAE210008BF21000810B5C9B26D
:101DDC0002449042034601D1002303E01C780130F9
:101DEC008C42F6D1184610BD0A44914200F1FF33E3
:101DFC0000D1704710B511F8014B914203F8014F17
:101E0C00F9D110BD884210B501EB020302D983420F
:101E1C001C4607D8421E994208D011F8014B02F813
:101E2C00014FF8E783189A1A9A4200D110BD14F8A2
:101E3C00011D03F8011DF7E738B50546002943D00D
:101E4C0051F8043C0C1F002BB8BFE41800F0D0F87C
:101E5C001E4A1368104633B9636014602846BDE807
:101E6C00384000F0CBB8A3420BD9216862189342DA
:101E7C0001BF1A685B685218226063600460EDE76A
:101E8C0013465A680AB1A242FAD919685818A042E6
:101E9C000BD120680144581882421960DED11068B9
:101EAC005268014419605A60D8E702D90C232B60A0
:101EBC00D4E7206821188A4201BF116852680918BA
:101ECC00216062605C60C9E738BD00BF8C000020F7
:101EDC00F8B5CD1C25F0030508350C2D38BF0C25A5
:101EEC00002D064601DBA94203D90C2333600020E8
:101EFC00F8BD00F07DF821490A6814469CB9204FC2
:101F0C003B6823B92146304600F062F83860294618
:101F1C00304600F05DF8431C23D10C23304633606F
:101F2C0000F06CF8E3E723685B1B17D40B2B03D989
:101F3C0023601C44256004E06368A2420CBF0B6064
:101F4C005360304600F05AF804F10B00231D20F0CA
:101F5C000700C21ACCD01B1AA350C9E722466468EA
:101F6C00CCE7C41C24F00304A042E3D0211A304671
:101F7C0000F02EF80130DDD1CFE700BF8C0000203F
:101F8C0090000020F8B5074614460E4621B91146BC
:101F9C00BDE8F840FFF79CBF22B9FFF74DFF25467F
:101FAC002846F8BD00F030F8A0420FD22146384642
:101FBC00FFF78EFF05460028F2D031462246FFF788
:101FCC0013FF31463846FFF737FFE9E73546E7E7B9
:101FDC0038B50023054C05460846236000F01EF872
:101FEC00431C02D1236803B12B6038BD28010020AB
:101FFC00014800F011B800BF30010020014800F08A
:10200C000CB800BF3001002051F8043C181F002B05
:10201C00BCBF0B58C018704770477047044A05493D
:10202C001368002B08BF0B46184410601846704705
:10203C009400002038010020F8B500BFF8BC08BCA3
:10204C009E467047F8B500BFF8BC08BC9E4670476A
:10205C0002030405060708090A0B0C0D0E0F1010DD
:10206C000102000054686520676F616C2069733A47
:10207C00202564200A0D0000000000000000000074
:10208C000102030406070809000000000102030412
:10209C00002020202020202020202828282828202C
:1020AC002020202020202020202020202020202024
:1020BC00208810101010101010101010101010108C
:1020CC00100404040404040404040410101010107C
:1020DC001010414141414141010101010101010146
:1020EC000101010101010101010101011010101098
:1020FC001010424242424242020202020202020218
:10210C00020202020202020202020202101010106B
:10211C002000000000000000000000000000000093
:10212C0000000000000000000000000000000000A3
:10213C000000000000000000000000000000000093
:10214C000000000000000000000000000000000083
:10215C000000000000000000000000000000000073
:10216C000000000000000000000000000000000063
:10217C000000000000000000000000000000000053
:10218C000000000000000000000000000000000043
:10219C0000232D302B2000686C4C0065666745468B
:1021AC0047003031323334353637383941424344C5
:1021BC004546003031323334353637383961626355
:0421CC0064656600E0
:0421D00031010008D1
:0421D4000D010008F1
:1021D80001000000100000000024F400100000209E
:1021E80000000000000000000000000000000000E7
:1021F80000000000000000000000000000000000D7
:1022080000000000000000000000000000000000C6
:1022180000000000000000000000000000000000B6
:1022280000000000000000000000000000000000A6
:102238000000000000000000000000000000000096
:0400000508001629B0
:00000001FF
