:020000040800F2
:10000000005000200D4300088D1000088F100008DC
:1000100091100008931000089510000800000000DF
:10002000000000000000000000000000B1400008D7
:100030009710000800000000514100089541000899
:100040005543000855430008554300085543000830
:100050005543000855430008554300085543000820
:100060005543000855430008554300085543000810
:100070005543000855430008554300085543000800
:1000800055430008554300085543000855430008F0
:1000900055430008554300085543000855430008E0
:1000A00055430008991000085543000855430008BF
:1000B00055430008554300085543000855430008C0
:1000C00055430008554300085543000855430008B0
:1000D00055430008554300085543000855430008A0
:1000E0005543000855430008554300080000000030
:1000F0000000000000000000000000000000000000
:0C01000000000000000000005FF808F1A3
:1001100010B5054C237833B9044B13B10448AFF341
:1001200000800123237010BD780000200000000033
:10013000284D000808B5034B1BB103490348AFF332
:10014000008008BD000000007C000020284D000851
:10015000034613F8012B002AFBD1181A0138704707
:1001600081F0004102E000BF83F0004330B54FEA68
:1001700041044FEA430594EA050F08BF90EA020FD5
:100180001FBF54EA000C55EA020C7FEA645C7FEA68
:10019000655C00F0E2804FEA5454D4EB5555B8BF8B
:1001A0006D420CDD2C4480EA020281EA030382EAFC
:1001B000000083EA010180EA020281EA0303362D8E
:1001C00088BF30BD11F0004F4FEA01314FF4801C61
:1001D0004CEA113102D0404261EB410113F0004F73
:1001E0004FEA03334CEA133302D0524263EB43032A
:1001F00094EA050F00F0A780A4F10104D5F1200EC8
:100200000DDB02FA0EFC22FA05F2801841F1000122
:1002100003FA0EF2801843FA05F359410EE0A5F1F6
:1002200020050EF1200E012A03FA0EFC28BF4CF027
:10023000020C43FA05F3C01851EBE37101F00045DD
:1002400007D54FF0000EDCF1000C7EEB00006EEBEA
:100250000101B1F5801F1BD3B1F5001F0CD3490874
:100260005FEA30004FEA3C0C04F101044FEA4452CB
:1002700012F5800F80F09A80BCF1004F08BF5FEA52
:10028000500C50F1000041EB045141EA050130BD32
:100290005FEA4C0C404141EB010111F4801FA4F1D5
:1002A0000104E9D191F0000F04BF01460020B1FA2A
:1002B00081F308BF2033A3F10B03B3F120020CDA62
:1002C0000C3208DD02F1140CC2F10C0201FA0CF040
:1002D00021FA02F10CE002F11402D8BFC2F1200CA5
:1002E00001FA02F120FA0CFCDCBF41EA0C0190405B
:1002F000E41AA2BF01EB0451294330BD6FEA0404A4
:100300001F3C1CDA0C340EDC04F11404C4F120028E
:1003100020FA04F001FA02F340EA030021FA04F3A0
:1003200045EA030130BDC4F10C04C4F1200220FAF7
:1003300002F001FA04F340EA0300294630BD21FA35
:1003400004F0294630BD94F0000F83F4801306BFFB
:1003500081F480110134013D4EE77FEA645C18BFEF
:100360007FEA655C29D094EA050F08BF90EA020F86
:1003700005D054EA000C04BF1946104630BD91EA7E
:10038000030F1EBF0021002030BD5FEA545C05D181
:100390004000494128BF41F0004130BD14F58004C0
:1003A0003CBF01F5801130BD01F0004545F0FE4134
:1003B00041F470014FF0000030BD7FEA645C1ABF69
:1003C000194610467FEA655C1CBF0B46024650EAA0
:1003D000013406BF52EA033591EA030F41F40021CC
:1003E00030BD00BF90F0000F04BF0021704730B552
:1003F0004FF4806404F132044FF000054FF0000127
:1004000050E700BF90F0000F04BF0021704730B5E7
:100410004FF4806404F1320410F0004548BF4042BC
:100420004FF000013EE700BF42004FEAE2014FEA11
:1004300031014FEA02701FBF12F07F4393F07F4FEC
:1004400081F06051704732F07F4208BF704793F0EF
:100450007F4F04BF41F40021704730B54FF4607402
:1004600001F0004521F000411CE700BF50EA010205
:1004700008BF704730B54FF000050AE050EA0102AE
:1004800008BF704730B511F0004502D5404261EB1E
:1004900041014FF4806404F132045FEA915C3FF45F
:1004A000D8AE4FF003025FEADC0C18BF03325FEAFC
:1004B000DC0C18BF033202EBDC02C2F1200300FAAD
:1004C00003FC20FA02F001FA03FE40EA0E0021FAD2
:1004D00002F11444BDE600BF70B54FF0FF0C4CF4C0
:1004E000E06C1CEA11541DBF1CEA135594EA0C0F72
:1004F00095EA0C0F00F0DEF82C4481EA030621EAAD
:100500004C5123EA4C5350EA013518BF52EA0335E7
:1005100041F4801143F4801338D0A0FB02CE4FF099
:100520000005E1FB02E506F00042E0FB03E54FF0C9
:100530000006E1FB03569CF0000F18BF4EF0010EC1
:10054000A4F1FF04B6F5007F64F5407404D25FEABD
:100550004E0E6D4146EB060642EAC62141EA555170
:100560004FEAC52040EA5E504FEACE2EB4F1FD0CB2
:1005700088BFBCF5E06F1ED8BEF1004F08BF5FEA30
:10058000500E50F1000041EB045170BD06F00046E2
:1005900046EA010140EA020081EA0301B4EB5C048F
:1005A000C2BFD4EB0C0541EA045170BD41F4801187
:1005B0004FF0000E013C00F3AB8014F1360FDEBFAC
:1005C000002001F0004170BDC4F10004203C35DA88
:1005D0000C341BDC04F11404C4F1200500FA05F30B
:1005E00020FA04F001FA05F240EA020001F00042AC
:1005F00021F0004110EBD37021FA04F642EB060122
:100600005EEA430E08BF20EAD37070BDC4F10C044B
:10061000C4F1200500FA04F320FA05F001FA04F20F
:1006200040EA020001F0004110EBD37041F10001FB
:100630005EEA430E08BF20EAD37070BDC4F1200506
:1006400000FA05F24EEA020E20FA04F301FA05F26E
:1006500043EA020321FA04F001F0004121FA04F216
:1006600020EA020000EBD3705EEA430E08BF20EAE6
:10067000D37070BD94F0000F0FD101F00046400020
:1006800041EB010111F4801F08BF013CF7D041EAA2
:10069000060195F0000F18BF704703F000465200A6
:1006A00043EB030313F4801F08BF013DF7D043EA77
:1006B0000603704794EA0C0F0CEA135518BF95EA2D
:1006C0000C0F0CD050EA410618BF52EA4306D1D1B4
:1006D00081EA030101F000414FF0000070BD50EAD3
:1006E000410606BF1046194652EA430619D094EA5D
:1006F0000C0F02D150EA013613D195EA0C0F05D147
:1007000052EA03361CBF104619460AD181EA03019A
:1007100001F0004141F0FE4141F470014FF0000052
:1007200070BD41F0FE4141F4780170BD70B54FF0ED
:10073000FF0C4CF4E06C1CEA11541DBF1CEA13556D
:1007400094EA0C0F95EA0C0F00F0A7F8A4EB05044F
:1007500081EA030E52EA03354FEA013100F0888046
:100760004FEA03334FF0805545EA131343EA12630F
:100770004FEA022245EA111545EA10654FEA0026C4
:100780000EF000419D4208BF964244F1FD0404F57D
:10079000407402D25B084FEA3202B61A65EB0305D9
:1007A0005B084FEA32024FF480104FF4002CB6EB96
:1007B000020E75EB030E22BFB61A754640EA0C0016
:1007C0005B084FEA3202B6EB020E75EB030E22BF56
:1007D000B61A754640EA5C005B084FEA3202B6EB97
:1007E000020E75EB030E22BFB61A754640EA9C0056
:1007F0005B084FEA3202B6EB020E75EB030E22BF26
:10080000B61A754640EADC0055EA060E18D04FEAE3
:10081000051545EA16754FEA06164FEAC30343EA83
:1008200052734FEAC2025FEA1C1CC0D111F4801F50
:100830000BD141EA00014FF000004FF0004CB6E749
:1008400011F4801F04BF01430020B4F1FD0C88BFE8
:10085000BCF5E06F3FF6AFAEB5EB030C04BFB6EBF3
:10086000020C5FEA500C50F1000041EB045170BDE6
:100870000EF0004E4EEA113114EB5C04C2BFD4EB13
:100880000C0541EA045170BD41F480114FF0000E97
:10089000013C90E645EA060E8DE60CEA135594EA13
:1008A0000C0F08BF95EA0C0F3FF43BAF94EA0C0F16
:1008B0000AD150EA01347FF434AF95EA0C0F7FF48B
:1008C00025AF104619462CE795EA0C0F06D152EADF
:1008D00003353FF4FDAE1046194622E750EA4106C3
:1008E00018BF52EA43067FF4C5AE50EA41047FF4D4
:1008F0000DAF52EA43057FF4EBAE12E74FEA410237
:10090000B2F1E04324BFB3F5001CDCF1FE5C0DD96D
:1009100001F0004C4FEAC0024CEA5070B2F1004FB7
:1009200040EB830008BF20F00100704711F0804FBA
:1009300021D113F13872BCBF01F00040704741F47F
:1009400080114FEA5252C2F11802C2F1200C10FA83
:100950000CF320FA02F018BF40F001004FEAC12367
:100960004FEAD32303FA0CFC40EA0C0023FA02F30B
:100970004FEA4303CCE77FEA625307D150EA0133E1
:100980001EBF4FF0FE4040F44000704701F00040B1
:1009900040F0FE4040F40000704700BF80F000408F
:1009A00002E000BF81F0004142001FBF5FEA410347
:1009B00092EA030F7FEA226C7FEA236C6AD04FEA47
:1009C0001262D2EB1363C1BFD2184140484041408C
:1009D000B8BF5B42192B88BF704710F0004F40F43E
:1009E000000020F07F4018BF404211F0004F41F45A
:1009F000000121F07F4118BF494292EA030F3FD026
:100A0000A2F1010241FA03FC10EB0C00C3F1200338
:100A100001FA03F100F0004302D5494260EB4000C7
:100A2000B0F5000F13D3B0F1807F06D340084FEA32
:100A3000310102F10102FE2A51D2B1F1004F40EB27
:100A4000C25008BF20F0010040EA0300704749008F
:100A500040EB000010F4000FA2F10102EDD1B0FA5A
:100A600080FCACF1080CB2EB0C0200FA0CF0AABF4F
:100A700000EBC25052421843BCBFD04018437047ED
:100A800092F0000F81F4000106BF80F400000132F3
:100A9000013BB5E74FEA41037FEA226C18BF7FEACA
:100AA000236C21D092EA030F04D092F0000F08BF0C
:100AB0000846704790EA010F1CBF0020704712F0F3
:100AC0007F4F04D1400028BF40F00040704712F132
:100AD00000723CBF00F50000704700F0004343F097
:100AE000FE4040F4000070477FEA226216BF0846CD
:100AF0007FEA23630146420206BF5FEA412390EA90
:100B0000010F40F4800070474FF0000304E000BF85
:100B100010F0004348BF40425FEA000C08BF704736
:100B200043F0964301464FF000001CE050EA0102FA
:100B300008BF70474FF000030AE000BF50EA01020F
:100B400008BF704711F0004302D5404261EB4101FC
:100B50005FEA010C02BF84460146002043F0B64321
:100B600008BFA3F18053A3F50003BCFA8CF2083A46
:100B7000A3EBC25310DB01FA02FC634400FA02FC4F
:100B8000C2F12002BCF1004F20FA02F243EB020056
:100B900008BF20F00100704702F1200201FA02FCB8
:100BA000C2F1200250EA4C0021FA02F243EB0200AB
:100BB00008BF20EADC7070474FF0FF3C06E000BF42
:100BC0004FF0010C02E000BF4FF0010C4DF804CDD6
:100BD0004FEA40024FEA41037FEA226C18BF7FEAE6
:100BE000236C11D001B052EA530C18BF90EA010FE8
:100BF00058BFB2EB030088BFC81738BF6FEAE17077
:100C000018BF40F0010070477FEA226C02D15FEA12
:100C1000402C05D17FEA236CE4D15FEA412CE1D07E
:100C20005DF8040B704700BF844608466146FFE745
:100C30000FB5FFF7C9FF002848BF10F1000F0FBD27
:100C40004DF808EDFFF7F4FF0CBF012000205DF820
:100C500008FB00BF4DF808EDFFF7EAFF34BF0120A5
:100C600000205DF808FB00BF4DF808EDFFF7E0FF3E
:100C700094BF012000205DF808FB00BF4DF808ED8F
:100C8000FFF7D2FF94BF012000205DF808FB00BFF2
:100C90004DF808EDFFF7C8FF34BF012000205DF8D4
:100CA00008FB00BF4FEA4002B2F1FE4F0FD34FF0F6
:100CB0009E03B3EB12620DD94FEA002343F00043C9
:100CC00010F0004F23FA02F018BF404270474FF077
:100CD0000000704712F1610F01D1420205D110F0FE
:100CE000004008BF6FF0004070474FF000007047B1
:100CF00042000ED2B2F1FE4F0BD34FF09E03B3EB86
:100D0000126209D44FEA002343F0004323FA02F0B1
:100D100070474FF00000704712F1610F01D142029D
:100D200002D14FF0FF3070474FF00000704700BF16
:100D300082B00A4B9A6942F020029A619A6902F0E5
:100D400020020092009A9A6942F004029A619B691B
:100D500003F004030193019B02B0704700100240AE
:100D60002DE9F04393B090E002A803F0F4FAFFF706
:100D7000CFFE01462846FFF717FE054600230293E3
:100D800003938DF810309DF8002012AB234403F834
:100D9000402C0134A4B29DF80030232B0BD04FF42B
:100DA0007A7301226946484801F029FC9DF8003019
:100DB000232BE8D1D8E745492846FFF769FF30B92A
:100DC00043492846FFF746FF10B1414D00E03F4D33
:100DD0002846FFF729FB06460F4602460B463D49CB
:100DE00005A803F0F7FA05A8FFF7B2F94FF47A73F4
:100DF00082B205A9344801F095FB2FA3D3E9002363
:100E000030463946FFF768FB80468946324B186802
:100E1000FFF70AFB2AA3D3E90023FFF75DFB024695
:100E20000B4640464946FFF7A1F9FFF767FD044628
:100E30002A4BD3F80080FFF75BFF80B2C8F834007C
:100E40002046FFF7F1FA02460B46254905A803F0B4
:100E5000C1FA05A8FFF77CF94FF47A7382B205A9AD
:100E6000194801F05FFB032002F08AFF2946204663
:100E7000FFF798FDFFF716FF0930122802D9164B2D
:100E80001C60BAE7012002F07BFF0023029303936A
:100E90008DF810304FF47A73012269460A4801F048
:100EA000AEFB0028EED19DF80030212BEAD10025C1
:100EB000002470E7AFF300809A9999999999A93F16
:100EC000666666666666EE3FA419002000409C4494
:100ED00000007A43544D000800000020EC19002067
:100EE000684D000808B50268034B9A4200D008BD5F
:100EF00000F0C8F9FBE700BF002C014072B6FEE726
:100F000000B58FB000230A930B930C930D930893B5
:100F10000993019302930393049305930693079314
:100F20001E484FF0804202600F224260836042F20E
:100F30000F72C2600361836101F028F820BB4FF497
:100F400080530A930AA9154801F01DF9F0B9134816
:100F500001F048F8E0B900230893099308A90F4865
:100F600001F002FAB0B960230193002202920392C9
:100F7000059201A9094801F093F868B9074800F003
:100F8000D1F80FB05DF804FBFFF7B8FFFFF7B6FF2D
:100F9000FFF7B4FFFFF7B2FFFFF7B0FFEC19002037
:100FA00008B50C480C4B03604FF4165343604FF4E4
:100FB000805383600023C3604FF4806202610C227F
:100FC00042618361C36101F07EFA00B908BDFFF799
:100FD00095FF00BFA41900200038014000B591B072
:100FE000202200210DEB020003F0ECF90023019315
:100FF0000293039304930593012306934FF48033E4
:10100000079306A800F066F970B90F230193012336
:101010000293002103910491059101A800F09AFB2D
:1010200020B911B05DF804FBFFF768FFFFF766FF1A
:1010300008B500F015F9FFF7D1FFFFF779FEFFF7CC
:101040005FFFFFF7ADFF0C4C0021204601F01AF9BD
:1010500024680A4B1868FFF74BFE80B2606302F009
:10106000D1FD074A0021074802F014FE064B186024
:1010700002F0EAFDFEE700BFEC19002000000020AE
:10108000804D0008610D0008E8190020FEE7FEE72A
:10109000FEE7FEE7FEE7704708B5024800F07FFE76
:1010A00008BD00BF341A002000B583B0114B9A6907
:1010B00042F001029A619A6902F001020092009ADC
:1010C000DA6942F08052DA61DB6903F08053019300
:1010D000019B00220F216FF0010000F033FD064A52
:1010E000536823F0E06343F00073536003B05DF88E
:1010F00004FB00BF00100240000001400368B3F190
:10110000804F00D0704782B003F50433DA6942F0B3
:101110000102DA61DB6903F001030193019B02B074
:101120007047000000B587B0002302930393049337
:1011300005930368B3F1804F02D007B05DF804FB5C
:1011400003F504339A6942F004029A619B6903F043
:1011500004030193019B012302930223039305934C
:1011600002A9024800F0F0FBE7E700BF00080140D9
:1011700010B586B00023029303930493059302688D
:10118000174B9A4201D006B010BD03F558439A6937
:1011900042F480429A619A6902F480420092009A75
:1011A0009A6942F004029A619B6903F00403019377
:1011B000019B4FF4007302930223039303230593CF
:1011C000084C02A9204600F0BFFB4FF48063029355
:1011D00000230393049302A9204600F0B5FBD2E755
:1011E000003801400008014000B589B000220146E6
:1011F000192000F0A7FC192000F0D8FC144B9A69C4
:1012000042F400629A619B6903F400630193019BBD
:1012100002A903A800F07AFB00F068FB0D4BA3FBCA
:1012200000239B0C013B0C480C4A026040F2E73261
:10123000C260436000230361836000F0A7FE18B121
:10124000012009B05DF804FB034800F06FFDF8E7EA
:101250000010024083DE1B43341A0020002C0140A2
:1012600008B5074A136843F010031360032000F029
:1012700057FC0F20FFF7B8FFFFF716FF002008BD4F
:1012800000200240034A1168034B1B780B44136093
:10129000704700BF7C1A002004000020014B186832
:1012A000704700BF7C1A002082B0084B1B68084AB8
:1012B000A2FB03235B0A00FB03F0019000BF019B2C
:1012C0005A1E0192002BF9D102B070470C00002089
:1012D000D34D6210002800F0F18170B582B0044651
:1012E000036813F0010F2CD0AA4B5B6803F00C03CA
:1012F000042B1DD0A74B5B6803F00C03082B12D006
:101300006368B3F5803F41D0002B55D103F1804392
:1013100003F504331A6822F480321A601A6822F442
:1013200080221A6037E09B4B5B6813F4803FE7D064
:10133000984B1B6813F4003F03D06368002B00F048
:10134000BF81236813F0020F75D0924B5B6813F0D6
:101350000C0F5FD08F4B5B6803F00C03082B54D04D
:101360002369002B00F089808B4B01221A60FFF764
:1013700095FF0546874B1B6813F0020F74D1FFF7EA
:101380008DFF401B0228F5D903209EE1814A136896
:1013900043F480331360636843B3FFF77FFF054670
:1013A0007C4B1B6813F4003FCBD1FFF777FF401B4A
:1013B0006428F5D9032088E1B3F5A02F09D0754B37
:1013C0001A6822F480321A601A6822F480221A60A5
:1013D000E1E703F18043A3F53C331A6842F480222D
:1013E0001A601A6842F480321A60D4E7FFF756FF99
:1013F0000546684B1B6813F4003FA2D0FFF74EFF71
:10140000401B6428F5D903205FE1624B5B6813F44D
:10141000803FA5D15F4B1B6813F0020F03D02369F7
:10142000012B40F04F815B4A136823F0F803616998
:1014300043EAC1031360236813F0080F32D0A36995
:10144000002B5BD0554B01221A60FFF727FF0546A2
:10145000504B5B6A13F0020F21D1FFF71FFF401BB7
:101460000228F5D9032030E14A4A136823F0F80333
:10147000616943EAC1031360DDE7474B00221A604C
:10148000FFF70CFF0546434B1B6813F0020FD2D049
:10149000FFF704FF401B0228F5D9032015E10120C6
:1014A000FFF702FF236813F0040F00F09780394B19
:1014B000DB6913F0805F33D1364BDA6942F080523A
:1014C000DA61DB6903F080530193019B0125344B02
:1014D0001B6813F4807F25D0E368012B36D0002BE6
:1014E0004CD103F1804303F504331A6A22F0010260
:1014F0001A621A6A22F004021A622CE0274B0022B8
:101500001A60FFF7CBFE0546224B5B6A13F0020F11
:10151000C8D0FFF7C3FE401B0228F5D90320D4E052
:101520000025D4E71E4A136843F480731360FFF765
:10153000B5FE06461A4B1B6813F4807FCCD1FFF72B
:10154000ADFE801B6428F5D90320BEE0114A136A62
:1015500043F001031362E36873B3FFF79FFE06468F
:101560000C4B1B6A13F0020F37D1FFF797FE801B5D
:1015700041F288339842F3D90320A6E0052B11D01D
:10158000044B1A6A22F001021A621A6A22F004025B
:101590001A62E0E70010024000004242800442422A
:1015A000007000404D4B1A6A42F004021A621A6A37
:1015B00042F001021A62CEE7FFF770FE0646474B83
:1015C0001B6A13F0020F08D0FFF768FE801B41F280
:1015D00088339842F3D9032077E0E5B9E369002B1B
:1015E00072D03E4A526802F00C02082A56D0022BF2
:1015F00017D03B4B00221A60FFF750FE0446374BD2
:101600001B6813F0007F47D0FFF748FE001B02283D
:10161000F5D9032059E0314AD36923F08053D361CF
:10162000DCE72F4B00221A60FFF738FE05462B4BF4
:101630001B6813F0007F06D0FFF730FE401B022826
:10164000F5D9032041E0236AB3F5803F1AD023493E
:101650004B6823F47413226A606A024313434B609D
:101660001F4B01221A60FFF719FE04461B4B1B6833
:1016700013F0007F0ED1FFF711FE001B0228F5D9F1
:10168000032022E0154A536823F40033A1680B437A
:101690005360DCE7002018E0002016E0012B16D094
:1016A0000E4B5B6803F48031226A914211D103F43E
:1016B0007013626A93420ED1002006E00120704749
:1016C000012002E0012000E0002002B070BD0120F6
:1016D000FBE70120F9E70120F7E700BF0010024017
:1016E0006000424210B487B0164C94E80F000DF130
:1016F000180C0CE90F00238AADF80430124B5B681C
:1017000003F00C02082A03D0104807B010BC704741
:10171000C3F38342624412F8102C13F4803F0CD0C0
:10172000094B5B68C3F34043634413F8143C074818
:1017300000FB02F0B0FBF3F0E7E7054800FB02F026
:10174000E3E700BF404D00080010024000127A009D
:1017500000093D00002800F0A08070B50446534BFE
:101760001B6803F007038B420BD2504A136823F027
:1017700007030B431360136803F007038B4240F029
:101780008E80236813F0020F17D013F0040F04D0DB
:10179000474A536843F4E0635360236813F0080F2B
:1017A00004D0434A536843F460535360404A53683B
:1017B00023F0F003A068034353600D46236813F041
:1017C000010F31D06368012B20D0022B25D0384A7D
:1017D000126812F0020F64D035494A6822F0030201
:1017E00013434B60FFF75AFD0646314B5B6803F02D
:1017F0000C036268B3EB820F16D0FFF74FFD801B1E
:1018000041F288339842F0D9032045E0284A126813
:1018100012F4003FE0D101203EE0254A126812F0A8
:10182000007FD9D1012037E0204B1B6803F007036C
:10183000AB420AD91D4A136823F007032B431360F8
:10184000136803F00703AB422DD1236813F0040F94
:1018500006D0174A536823F4E063E1680B435360F2
:10186000236813F0080F07D0114A536823F460531C
:10187000216943EAC1035360FFF734FF0C4B5B68F7
:10188000C3F303130B4AD35CD8400B4B18600B4BCC
:101890001868FFF7A9FC002070BD012070470120E7
:1018A000FAE70120F8E70120F6E700BF0020024038
:1018B00000100240B44D00080C0000200800002079
:1018C000014B1868704700BF0C00002008B5FFF7F7
:1018D000F7FF044B5B68C3F30223034AD35CD84091
:1018E00008BD00BF00100240C44D000808B5FFF756
:1018F000E7FF044B5B68C3F3C223034AD35CD840C1
:1019000008BD00BF00100240C44D00080F23036053
:101910000B4B5A6802F0030242605A6802F0F00270
:1019200082605A6802F4E062C2605B68DB0803F41C
:10193000E0630361034B1B6803F007030B60704710
:101940000010024000200240F0B482B0002635466C
:10195000A0E0002A58D0012A10D1CE680EE06A4FCC
:10196000BA4251D048D9694FBA424DD007F58037B5
:10197000BA4249D0A7F58017BA4245D0FF2B57D8B5
:101980008446FF2B57D8AC00DCF800200F27A74077
:1019900022EA070206FA04F42243CCF800204A683F
:1019A00012F0805F75D05A4A946944F00104946142
:1019B000926902F001020192019AAC08A71C554AF3
:1019C00052F8272005F00307BF004FF00F0C0CFA68
:1019D00007FC22EA0C0C504A904232D002F5806299
:1019E000904271D002F5806290426FD002F5806221
:1019F000904224D0042225E0A7F58017BA4203D0F4
:101A000007F58037BA42B9D18A687AB1012A08D07D
:101A100044610826B2E7CE680836AFE7CE680C36D8
:101A2000ACE704610826A9E70026A7E70426A5E796
:101A300000F1040CA5E7A5F10804A400A4E7032223
:101A400000E00022BA4042EA0C020234314F47F86B
:101A500024204A6812F4803F3AD0304C22681A435E
:101A600022604A6812F4003F38D02C4C62681A4356
:101A700062604A6812F4801F36D0284CA2681A436C
:101A8000A2604A6812F4001F34D0244CE268134369
:101A9000E36001350B6833FA05F231D00124AC4024
:101AA00023409C42F5D14A68122AB7D03FF657AF7F
:101AB000022AB0D07FF64DAF032AB5D0112A7FF4A9
:101AC0005DAFCE68043659E70122BBE70222B9E7D1
:101AD000124C226822EA03022260C2E70F4C6268BD
:101AE00022EA03026260C4E70C4CA26822EA030205
:101AF000A260C6E7094CE26822EA0303E360C8E794
:101B000002B0F0BC704700BF00002110000031108F
:101B100000100240000001400008014000040140A4
:101B2000074AD36823F4E0631B041B0C000200F493
:101B3000E060184340F0BF6040F40030D060704770
:101B400000ED00E030B4174BDB68C3F30223C3F1B0
:101B50000704042C28BF04241D1D062D01D9033BB6
:101B600000E000234FF0FF3505FA04F421EA0401F8
:101B7000994005FA03F322EA03031943002809DB1D
:101B80000901C9B200F1604000F5614080F800131E
:101B900030BC704700F00F000901C9B2024B195464
:101BA000F6E700BF00ED00E014ED00E0002807DBE1
:101BB00000F01F02400901239340024A42F82030FE
:101BC000704700BF00E100E070B4036A23F0010336
:101BD0000362036A4668826922F073020C6844EA71
:101BE000020523F002028B6813430D4CA04209D07A
:101BF0000B4CA0420DD0466085614A684263036287
:101C000070BC704723F00803CA68134323F0040331
:101C1000EEE726F440764A6932438E691643EAE7D6
:101C2000002C014030B4036A23F480730362036A1A
:101C30004568C26922F073020C68224323F40073E2
:101C40008C6843EA04230F4CA04209D00D4CA042FB
:101C50000ED04560C2614A68C263036230BC7047FF
:101C600023F40063CC6843EA042323F48063EDE7A4
:101C700025F440554C6945EA04158C6945EA04157C
:101C8000E7E700BF002C014030B4036A23F480531F
:101C90000362036A4468C26922F4E6420D6842EABC
:101CA000052223F400538D6843EA0533074DA8420B
:101CB00006D04460C2614A680264036230BC704767
:101CC00024F480444D6944EA8514F2E7002C014075
:101CD00010B4036A046A24F001040462846924F0E5
:101CE000F00444EA021223F00A030B438261036208
:101CF00010BC704710B4036A23F0100303628469B8
:101D0000036A24F4704444EA023223F0A00343EA55
:101D100001138261036210BC7047836823F0700373
:101D2000194341F0070181607047000090F83D3091
:101D3000DBB2012B27D1022380F83D300268D36843
:101D400043F00103D3600368114A934210D0B3F10A
:101D5000804F0DD0A2F59432934209D002F58062F3
:101D6000934205D01A6842F001021A6000207047C1
:101D70009A6802F00702062A07D01A6842F00102A8
:101D80001A6000207047012070470020704700BF94
:101D9000002C01407047704770477047704710B57E
:101DA000044603681A6912F0020F11D0DA6812F0C3
:101DB000020F0DD06FF002021A610123037703684E
:101DC0009B6913F0030F70D0FFF7E6FF0023237722
:101DD00023681A6912F0040F12D0DA6812F0040FA7
:101DE0000ED06FF004021A610223237723689B69E7
:101DF00013F4407F5FD02046FFF7CEFF0023237708
:101E000023681A6912F0080F12D0DA6812F0080F6E
:101E10000ED06FF008021A61042323772368DB6970
:101E200013F0030F4ED02046FFF7B6FF00232377B1
:101E300023681A6912F0100F12D0DA6812F0100F2E
:101E40000ED06FF010021A61082323772368DB6934
:101E500013F4407F3DD02046FFF79EFF00232377F9
:101E600023681A6912F0010F03D0DA6812F0010F2B
:101E700036D123681A6912F0800F03D0DA6812F0A5
:101E8000800F34D123681A6912F0400F03D0DA684A
:101E900012F0400F32D123681A6912F0200F03D0DC
:101EA000DA6812F0200F30D110BDFFF774FF204622
:101EB000FFF773FF8AE72046FFF76DFF2046FFF725
:101EC0006CFF9BE72046FFF766FF2046FFF765FFA4
:101ED000ACE72046FFF75FFF2046FFF75EFFBDE758
:101EE0006FF001021A612046FEF7FCFFC1E76FF0B8
:101EF00080021A61204600F06CFAC3E76FF04002DE
:101F00001A612046FFF74AFFC5E76FF020021A6109
:101F1000204600F05DFAC7E703681B4A90420AD0EA
:101F2000B0F1804F07D0A2F59432904203D002F571
:101F30008062904203D123F070034A681343124A2F
:101F400090420AD0B0F1804F07D0A2F5943290426F
:101F500003D002F58062904203D123F44073CA6833
:101F6000134323F080034A69134303608B68C36201
:101F70000B688362044B984202D00123436170478F
:101F80000B690363F9E700BF002C014040B310B5B3
:101F9000044690F83D30F3B1022384F83D302146E9
:101FA00051F8040BFFF7B8FF012384F8463084F89A
:101FB0003E3084F83F3084F8403084F8413084F873
:101FC000423084F8433084F8443084F8453084F853
:101FD0003D30002010BD80F83C30FFF78FF8DBE784
:101FE0000120704740B310B5044690F83D30F3B17E
:101FF000022384F83D30214651F8040BFFF78CFF93
:10200000012384F8463084F83E3084F83F3084F869
:10201000403084F8413084F8423084F8433084F80A
:10202000443084F8453084F83D30002010BD80F8FD
:102030003C30FFF7AFFEDBE70120704730B4036AA6
:1020400023F010030362036A4468826922F4E642C3
:102050000D6842EA052223F020038D6843EA051348
:102060000E4DA84209D00D4DA8420ED044608261A9
:102070004A688263036230BC704723F08003CD68F6
:1020800043EA051323F04003EDE724F440644D696F
:1020900044EA85048D6944EA8504E7E7002C0140A1
:1020A00038B590F83C30012B60D00D460446012332
:1020B00080F83C300C2A1AD8DFE802F00719191909
:1020C0001D1919193119191944000068FFF77CFD11
:1020D0002268936943F0080393612268936923F0AF
:1020E000040393612268936929690B43936100207B
:1020F00084F83C0038BD0068FFF7A0FF22689369B0
:1021000043F4006393612268936923F480639361CD
:1021100022689369296943EA01239361E7E700682C
:10212000FFF780FD2268D36943F00803D36122687A
:10213000D36923F00403D3612268D36929690B436F
:10214000D361D4E70068FFF79FFD2268D36943F4A9
:102150000063D3612268D36923F48063D36122686A
:10216000D369296943EA0123D361C0E70220C1E7AB
:1021700010B4846824F47F4442EA03230B432343CE
:10218000836010BC704790F83C30012B67D010B5CD
:102190000446012380F83C30022380F83D30026879
:1021A000936823F47F4323F0770393600B68402BFD
:1021B0004BD013D9602B3ED025D9702B2FD0B3F53F
:1021C000005F19D1CB684A6889680068FFF7D0FFC3
:1021D0002268936843F4804393600DE0102B04D091
:1021E00008D9202B01D0302B06D119462068FFF7E3
:1021F00094FD01E0002BF8D0012384F83D3000204D
:1022000084F83C0010BD502BF6D1CA6849680068BC
:10221000FFF75EFD50212068FFF77FFDECE7CB68FC
:102220004A6889680068FFF7A3FF2268936843F053
:1022300077039360E0E7CA6849680068FFF75AFDD2
:1022400060212068FFF769FDD6E7CA684968006821
:10225000FFF73EFD40212068FFF75FFDCCE702203D
:10226000704710B401F01F01012303FA01F4036A5F
:1022700023EA04030362036A8A401343036210BC27
:10228000704700000A4669BB90F83E30DBB213F19C
:10229000FF3318BF0123002B60D110B5002A3DD1B8
:1022A000022380F83E301146044601220068FFF701
:1022B000D8FF23682B4A934240D02368294A93428F
:1022C00041D0B3F1804F3ED0A2F5943293423AD040
:1022D00002F58062934236D01A6842F001021A6019
:1022E00000203AE0042909D008290FD090F84130A5
:1022F000DBB213F1FF3318BF0123CCE790F83F3076
:10230000DBB213F1FF3318BF0123C4E790F840306C
:10231000DBB213F1FF3318BF0123BCE7042A05D059
:10232000082A07D0022380F84130BCE7022380F856
:102330003F30B8E7022380F84030B4E75A6C42F4EB
:1023400000425A64B9E79A6802F00702062A07D0E9
:102350001A6842F001021A60002010BD0120704787
:102360000020FAE7002C014090F83C30012B2BD0E4
:1023700030B4012380F83C30022380F83D300368FC
:102380005C689D6824F070040A6822435A60036800
:102390000E4A93420AD0B3F1804F07D0A2F594328F
:1023A000934203D002F58062934204D125F0800568
:1023B0004A6815439D60012380F83D30002380F872
:1023C0003C30184630BC704702207047002C01405A
:1023D0007047704738B504460268136923F44053C8
:1023E000C1680B43136183680269134342691A434E
:1023F0000168CB6823F4B05323F00C031343CB6084
:102400000268536923F4407381690B435361026886
:10241000124B9A421FD0FFF759FA00EB800000EBF5
:10242000800063689B00B0FBF3F00D4DA5FB00320C
:102430005109642202FB110213013233A5FB03236D
:102440005B0903F0F00202EB011203F00F032168B5
:1024500013448B6038BDFFF749FADEE700380140CE
:102460001F85EB512DE9F04105460F46164698466B
:10247000069C2B681B6837EA03030CBF012300236B
:10248000B3421DD1B4F1FF3FF3D02CB1FEF706FFEC
:10249000A0EB0800A042ECD92A68D36823F4D073DB
:1024A000D3602A68536923F001035361202385F820
:1024B0003D3085F83E30002385F83C30032000E0B5
:1024C0000020BDE8F08158B310B5044690F83D30C7
:1024D0000BB3242384F83D302268D36823F40053DF
:1024E000D3602046FFF776FF2268136923F49043F8
:1024F00013612268536923F02A0353612268D36869
:1025000043F40053D36000202064202384F83D303E
:1025100084F83E3010BD80F83C30FEF729FED8E745
:10252000012070472DE9F04182B01E4690F83D3001
:10253000DBB2202B54D104460D469046002954D0DE
:10254000002A54D090F83C30012B52D0012380F85F
:102550003C3000230364212380F83D30FEF79EFECB
:102560000746A4F82480A4F82680A368B3F5805F0A
:1025700005D04FF00008002384F83C3011E02369B7
:1025800013B14FF00008F6E7A8460025F3E738F846
:10259000023B2268C3F308035360E38C013B9BB208
:1025A000E384E38C9BB273B100963B46002280210A
:1025B0002046FFF757FFF0B9002DE8D015F8012BA2
:1025C00023685A60E9E700963B46002240212046F6
:1025D000FFF748FF034680B9202284F83D2000E041
:1025E0000223184602B0BDE8F0810123F9E7012378
:1025F000F7E70223F5E70323F3E70323F1E72DE9E8
:10260000F04182B01E4690F83E30DBB2202B5BD109
:1026100004460D46904600295AD0002A5AD090F818
:102620003C30012B58D0012380F83C300023036458
:10263000222280F83E200363FEF730FE0746A4F80E
:102640002C80A4F82E80A368B3F5805F05D04FF0EE
:102650000008002384F83C3016E0236913B14FF0E2
:102660000008F6E7A8460025F3E723685B68C3F394
:10267000080328F8023B03E023685B682B700135F0
:10268000E38D013B9BB2E385E38D9BB2BBB100962A
:102690003B46002220212046FFF7E4FEF0B9002D42
:1026A000E3D0A368B3F5805FE6D013B92369002BAC
:1026B000E2D023685B6803F07F032B70DFE7202301
:1026C00084F83E30002000E0022002B0BDE8F08136
:1026D0000120FAE70120F8E70220F6E70320F4E7FB
:1026E000704700F1080343604FF0FF328260C3601F
:1026F0000361002303607047002303617047436850
:102700004B609A688A605160996008610368013380
:102710000360704730B40D68B5F1FF3F02D000F19F
:10272000080202E0026904E01A4653681C68AC42E1
:10273000FAD953684B6099608A60516008610368F8
:102740000133036030BC70470369416882688A6066
:10275000416851605A68824206D0002202611A68BC
:10276000013A1A601868704782685A60F5E710B538
:10277000044601F0AFFCA26BE36B9A4204D0002444
:1027800001F0CAFC204610BD0124F9E710B504464B
:1027900001F0A0FCA36B23B9012401F0BDFC20468D
:1027A00010BD0024F9E770B504461646856B026C2F
:1027B0005AB903681BB100200135A56370BD40689C
:1027C00000F0BEFF00236360F6E76EB9806801F099
:1027D000EBFD226CA3681344A3606268934219D393
:1027E0002368A3603046E7E7C06801F0DDFD226C96
:1027F0005242E3681344E36021688B4202D263686B
:102800001A44E260022E01D00020D5E725B1013D37
:102810000020D1E73046CFE70020CDE7026C72B14F
:1028200010B5C3681344C3604468A34201D303686E
:10283000C3600C46C168204601F0B6FD10BD70476C
:1028400038B5054601F046FC95F8454064B203E012
:1028500000F060FF013C64B2002C08DD6B6A33B10C
:1028600005F1240000F0C2FE0028F3D0F0E7FF23BA
:1028700085F8453001F050FC01F02CFC95F84440FF
:1028800064B203E000F046FF013C64B2002C08DDB6
:102890002B6933B105F1100000F0A8FE0028F3D039
:1028A000F0E7FF2385F8443001F036FC38BD000026
:1028B00038B5E0B104460D4601F00CFC2168E26B2E
:1028C000236C03FB021060600020A063A160013A4A
:1028D00002FB0313E360FF2384F8443084F845309F
:1028E000EDB9236963B901F017FC012038BD4FF041
:1028F000500383F31188BFF36F8FBFF34F8FFEE751
:1029000004F1100000F072FE0028ECD0084B4FF0EC
:1029100080521A60BFF34F8FBFF36F8FE3E704F16C
:102920001000FFF7DEFE04F12400FFF7DAFEDAE71D
:1029300004ED00E038B51D46049C0B4649B92460FF
:10294000E063236401212046FFF7B2FF84F84C5076
:1029500038BD2260F4E740B94FF0500383F311888B
:10296000BFF36F8FBFF34F8FFEE710B584B00446FF
:1029700053B192B189B94FF0500383F31188BFF37B
:102980006F8FBFF34F8FFEE74FF0500383F3118833
:10299000BFF36F8FBFF34F8FFEE76AB150200390F4
:1029A0000398502813D04FF0500383F31188BFF3DE
:1029B0006F8FBFF34F8FFEE70029EFD04FF050032A
:1029C00083F31188BFF36F8FBFF34F8FFEE720466D
:1029D0001C46012384F8463000949DF81830FFF718
:1029E000A9FF204604B010BDF0B585B0019278B1C2
:1029F0000446B1B1022B20D1E26B012A1DD04FF069
:102A0000500383F31188BFF36F8FBFF34F8FFEE73F
:102A10004FF0500383F31188BFF36F8FBFF34F8FD5
:102A2000FEE7026C002AE5D04FF0500383F31188D3
:102A3000BFF36F8FBFF34F8FFEE71D460E4600F0CA
:102A40006FFE074658B9019B002B44D04FF050034E
:102A500083F31188BFF36F8FBFF34F8FFEE700271B
:102A600039E02A4631462046FFF79DFE636A6BB97E
:102A700038B13C4B4FF080521A60BFF34F8FBFF319
:102A80006F8F01F049FB012005B0F0BD04F1240077
:102A900000F0ACFD0028F4D0324B4FF080521A60A9
:102AA000BFF34F8FBFF36F8FEBE701F035FB0020D3
:102AB000EAE702A800F0E0FD012719E0002384F80E
:102AC000443021E0002384F8453023E02046FFF71E
:102AD000B7FE00F069FC01F0FDFAA26BE36B9A42CD
:102AE000BFD3022DBDD0019B002BDED0002FE0D044
:102AF00001F012FB00F0BEFB01F0ECFA94F8443058
:102B00005BB2B3F1FF3FD9D094F845305BB2B3F17B
:102B1000FF3FD7D001F000FB01A902A800F0B8FDEB
:102B2000C8B92046FFF723FE0028CFD0019904F151
:102B3000100000F027FD2046FFF782FE00F034FC75
:102B40000028C8D1074B4FF080521A60BFF34F8F57
:102B5000BFF36F8FBFE72046FFF772FE00F024FC43
:102B6000002091E704ED00E02DE9F84378B1044638
:102B7000B1B1022B20D1E06B01281DD04FF05003E2
:102B800083F31188BFF36F8FBFF34F8FFEE74FF0D2
:102B9000500383F31188BFF36F8FBFF34F8FFEE7AE
:102BA000006C0028E5D04FF0500383F31188BFF389
:102BB0006F8FBFF34F8FFEE71F469046894601F0A7
:102BC00077FBEFF311864FF0500383F31188BFF3C7
:102BD0006F8FBFF34F8FA26BE36B9A4206D3022F26
:102BE00004D0002086F31188BDE8F88394F845509E
:102BF0006DB23A4649462046FFF7D5FDB5F1FF3F95
:102C000005D06B1C5BB284F845300120EAE7636AAB
:102C10000BB90120E6E704F1240000F0E7FC30B135
:102C2000B8F1000F05D00120C8F80000DAE7012054
:102C3000D8E70120D6E70000F0B585B0019290B149
:102C40000446C9B10E4600F06BFD074600BB019B70
:102C5000002B5CD04FF0500383F31188BFF36F8FCC
:102C6000BFF34F8FFEE74FF0500383F31188BFF39C
:102C70006F8FBFF34F8FFEE7036C002BE2D04FF056
:102C8000500383F31188BFF36F8FBFF34F8FFEE7BD
:102C900000273CE031462046FFF7C0FD013DA5631B
:102CA000236923B901F038FA012005B0F0BD04F121
:102CB000100000F09BFC0028F4D0354B4FF0805200
:102CC0001A60BFF34F8FBFF36F8FEBE701F024FA69
:102CD0000020EAE702A800F0CFFC012721E0002352
:102CE00084F8443029E0002384F845302BE0204666
:102CF000FFF7A6FD00F058FB09E02046FFF7A0FD16
:102D000000F052FB2046FFF741FD00283DD101F0C5
:102D1000E1F9A56B002DBDD1019B002BD6D0002F72
:102D2000D8D001F0F9F900F0A5FA01F0D3F994F840
:102D300044305BB2B3F1FF3FD1D094F845305BB281
:102D4000B3F1FF3FCFD001F0E7F901A902A800F0ED
:102D50009FFC0028D1D12046FFF718FD0028C6D0DF
:102D6000019904F1240000F00DFC2046FFF768FDF6
:102D700000F01AFB0028CAD1054B4FF080521A60B0
:102D8000BFF34F8FBFF36F8FC1E700208DE700BF08
:102D900004ED00E00023072B0CD8074A52F833203B
:102DA0000AB10133F7E7044A42F8331002EBC303D8
:102DB00058607047704700BF801A002070B5044605
:102DC0000D46164601F086F994F844305BB2B3F133
:102DD000FF3F0DD094F845305BB2B3F1FF3F0BD00D
:102DE00001F09AF9A36B5BB12046FFF729FD70BD96
:102DF000002384F84430EDE7002384F84530EFE702
:102E00003246294604F1240000F0D4FBECE7000030
:102E1000084B1B681B6823B9074B4FF0FF321A6041
:102E20007047044B1B68DB68DB685A68024B1A600A
:102E3000704700BF98000020400500202DE9F047B2
:102E400081460D4617469A46089EDDF824800A9C66
:102E50009200A521206B01F0B5FA236B07F18042A7
:102E6000013A03EB820727F0070700230F2B06D850
:102E7000EA5CE11881F834200AB10133F6E7002357
:102E800084F84330372E00D93726E662E664002501
:102E90002565201DFFF730FC04F11800FFF72CFC1E
:102EA0002461C6F13806A6616462656584F85850ED
:102EB00052464946384601F0E7F82060B8F1000F65
:102EC00001D0C8F80040BDE8F087000038B5002404
:102ED000372C08D804EB840293000E481844FFF7FF
:102EE00000FC0134F4E70C4D2846FFF7FAFB0B4CCD
:102EF0002046FFF7F6FB0A48FFF7F3FB0948FFF708
:102F0000F0FB0948FFF7EDFB084B1D60084B1C6008
:102F100038BD00BFA0000020180500202C050020AF
:102F2000480500207405002060050020980000205E
:102F30009C00002010B5044601F0CCF8214A13682B
:102F400001331360204B1B685BB1204B1B686BB9CE
:102F50001D4B1B68DA6AE36A9A4207D81A4B1C6059
:102F600004E0194B1C601368012B27D0184A136822
:102F7000013313606364E36A164A1268934201D90D
:102F8000144A136003EB83039A00211D1248104476
:102F9000FFF7B5FB01F0C0F80C4B1B686BB10A4B97
:102FA0001B68DA6AE36A9A4207D20C4B4FF08052F0
:102FB0001A60BFF34F8FBFF36F8F10BDFFF786FF0F
:102FC000D4E700BF00050020940000205C0500202D
:102FD0001005002014050020A000002004ED00E0F2
:102FE00010B5044690F8593063B1012B11D0022B73
:102FF0000ED04FF0500383F31188BFF36F8FBFF3F0
:103000004F8FFEE7006B00F0D7FF204600F0D4FFA3
:1030100010BD00F0D1FFFBE70F4B1B68D3B110B51B
:1030200001F058F80D4BDB68DC68201DFFF78CFBC6
:103030000B4A1368013B1360074A1368013B136096
:1030400001F06AF82046FFF7CBFF034B1B68002B0B
:10305000E6D110BD704700BF0405002074050020B4
:103060000005002008B5FFF7D7FF064B1B68012BB2
:10307000F9D9054B4FF080521A60BFF34F8FBFF361
:103080006F8FF0E7A000002004ED00E070B504466B
:103090000E46174B1D68174B18680430FFF754FB9A
:1030A000B4F1FF3F0DD02C44124B1B685C60A5426D
:1030B00010D9114B18680F4B19680431FFF72AFB20
:1030C00070BD002EEFD00B4B196804310B48FFF791
:1030D00016FBF5E70A4B1868064B19680431FFF731
:1030E00019FB084B1B68A342EAD9064B1C60E7E7B3
:1030F00088050020940000209C000020600500202E
:10310000980000204005002070B586B00B9D0C9CF7
:1031100075B1B4B15C260496049E5C2E1AD04FF0B3
:10312000500383F31188BFF36F8FBFF34F8FFEE718
:103130004FF0500383F31188BFF36F8FBFF34F8FAE
:10314000FEE74FF0500383F31188BFF36F8FBFF397
:103150004F8FFEE72563022584F85950002503951B
:10316000029405AD01950A9D0095FFF767FE204684
:10317000FFF7E0FE059806B070BD2DE9F04385B07D
:103180000746884615469946900000F091FEF8B132
:1031900006465C2000F08CFE0446A8B10663E4B14C
:1031A000002384F85930039302940D9B01930C9BE8
:1031B00000934B462A4641463846FFF73FFE2046DD
:1031C000FFF7B8FE012005E0304600F0F5FEE6E727
:1031D0004FF0FF3005B0BDE8F0834FF0FF30F9E766
:1031E00010B588B000240594069407AA06A905A87E
:1031F00000F0E8FD059B0293069B01930094234693
:10320000079A17491748FFF77FFF40B100F04CFBC2
:10321000012806D0B0F1FF3F18D008B010BD002043
:10322000F6E74FF0500383F31188BFF36F8FBFF3BE
:103230004F8F0D4B4FF0FF321A600C4B01221A607A
:103240000B4B00221A6000F0D7FFE6E74FF0500367
:1032500083F31188BFF36F8FBFF34F8FFEE700BF7B
:10326000CC4D000865300008400500205C050020BA
:1032700088050020024A136801331360704700BFBD
:103280000C050020014B1868704700BF880500201E
:10329000F8B53A4B1B68002B65D1394B1D680135D9
:1032A0001D60C5B9374B1B681B6843B14FF0500315
:1032B00083F31188BFF36F8FBFF34F8FFEE7314A5F
:1032C0001168314B186810601960304A1368013377
:1032D0001360FFF79DFD2E4B1B68AB420CD90024F9
:1032E0002C4B1B68DB6A03EB83039A002A4B9B5829
:1032F000012B3DD901243BE0002416E0244B4FF084
:10330000FF321A60ECE7224A1360E9E703EB83031C
:103310009A00394620481044FFF7F1F9F26A1D4B34
:103320001B68DB6A9A4200D30124164B1B681B689A
:10333000002BE3D0134B1B68DB68DE6873689D428B
:10334000E1D3371D3846FFF7FFF9B36A1BB106F129
:103350001800FFF7F9F9F36A104A12689342D5D9B9
:103360000E4A1360D2E70E4A13680133136000243B
:103370000C4B1B6803B101242046F8BD0C0500204E
:1033800088050020980000209C00002044050020B3
:103390004005002094000020A0000020140500201B
:1033A000080500208C05002038B5344B1B6843B954
:1033B0004FF0500383F31188BFF36F8FBFF34F8F2C
:1033C000FEE700F087FE2D4B1A68013A1A601B6871
:1033D000002B4DD12A4B1B680BB9002449E0002477
:1033E000284B1B681BB3274BDB68DC6804F1180013
:1033F000FFF7AAF9251D2846FFF7A6F9E36A224A36
:103400001268934201D9204A136003EB83039A00A8
:1034100029461E481044FFF772F9E26A1C4B1B68EC
:10342000DB6A9A42DCD31B4B01221A60D8E70CB14D
:10343000FFF7EEFC184B1C6874B9164B1C68C4B13E
:10344000164B4FF080521A60BFF34F8FBFF36F8F50
:1034500001240EE0013C07D0FFF71AFF0028F9D045
:103460000C4B01221A60F5E70B4B00221A60E4E7CF
:10347000002400F051FE204638BD00BF0C0500209E
:10348000000500204805002014050020A0000020B1
:10349000940000208C0500200805002004ED00E0C9
:1034A00010B5A8B104460F4B1B6843B14FF0500351
:1034B00083F31188BFF36F8FBFF34F8FFEE7FFF7E2
:1034C000D9FE00212046FFF7E1FDFFF76DFF38B977
:1034D000054B4FF080521A60BFF34F8FBFF36F8FD1
:1034E00010BD00BF0C05002004ED00E0204B1B6860
:1034F0001BB1204B01221A6070471E4B00221A603C
:103500001D4B1B6803EB83018A001C498A585AB97A
:103510000BB1013BF6E74FF0500383F31188BFF383
:103520006F8FBFF34F8FFEE710B408469A00D41890
:10353000A10001444C6864684C601A449100083151
:10354000084484420CD003EB830291000B4A0A44E6
:103550005268D1680A4A1160074A136010BC70476C
:10356000606803EB83029100044A0A445060EAE772
:103570000C0500208C05002014050020A000002070
:103580009400002058B110B50C46094B1968183149
:10359000FFF7C0F801212046FFF778FD10BD4FF07E
:1035A000500383F31188BFF36F8FBFF34F8FFEE794
:1035B0009400002038B570B10C4615460A4A1168CF
:1035C0001831FFF79CF80DB14FF0FF342946204623
:1035D000FFF75CFD38BD4FF0500383F31188BFF354
:1035E0006F8FBFF34F8FFEE79400002038B5C3689C
:1035F000DC6824B304F118052846FFF7A5F8184B3A
:103600001B682BBB251D2846FFF79EF8E36A154A69
:103610001268934201D9134A136003EB83039A00A3
:10362000294611481044FFF76AF8E26A0F4B1B68FD
:10363000DB6A9A4211D901200D4B18600EE04FF061
:10364000500383F31188BFF36F8FBFF34F8FFEE7F3
:1036500029460848FFF753F8E7E7002038BD00BFC8
:103660000C05002014050020A0000020940000207C
:103670008C05002048050020034B1B680360034BAA
:103680001B684360704700BF440500208805002088
:10369000F8B5C8B1054601B30C4600F01BFD1B4B45
:1036A00019686B68C81A2268B2F1FF3F26D02F68EC
:1036B000174E3668B74201D08B4224D9824215D8C2
:1036C0000023236001241AE04FF0500383F3118894
:1036D000BFF36F8FBFF34F8FFEE74FF0500383F3BD
:1036E0001188BFF36F8FBFF34F8FFEE75B1A134450
:1036F00023602846FFF7C0FF002400E0002400F00C
:103700000BFD2046F8BD0124F9E700BF8805002025
:1037100044050020014B01221A6070478C050020EF
:10372000054B1B6833B1054B1B680BB1002070477C
:1037300002207047012070475C0500200C05002026
:1037400000283BD038B504461E4A1268824208D091
:103750004FF0500383F31188BFF36F8FBFF34F8F88
:10376000FEE7026D42B94FF0500383F31188BFF3B7
:103770006F8FBFF34F8FFEE7013A0265C06AE16CBD
:1037800088421DD00AB1002038BD251D2846FEF70D
:10379000DBFFE36CE362C3F13802A2610A4A1268FC
:1037A000934201D9084A136003EB83039A00294628
:1037B00006481044FEF7A3FF0120E5E7002070470C
:1037C0000020E1E79400002014050020A000002064
:1037D000064B1A681368B3FA83F35B09036013B9E5
:1037E000D368186870470020704700BF900500201C
:1037F00008B54160006191420CD8D21A83699A429F
:1038000001D3012008BD011D094B1868FEF782FF96
:103810000020F7E79A4201D2994206D2011D054BDA
:103820001868FEF777FF0020ECE70120EAE700BF09
:10383000940500209005002030B583B000F04AFCCC
:10384000114B1B681BB100F067FC03B030BD0F4D7E
:103850002846FEF746FF0E4C2046FEF742FF0D4B72
:103860001D600D4B1C60002300930C4B0C4A102173
:103870000A20FFF770F8044B18600028E3D00949CC
:10388000FFF788FADFE700BFB40600203806002003
:103890004C060020900500209405002064060020BE
:1038A00098050020D44D000810B588B0FFF7C4FF7C
:1038B000124B1B68CBB100240594069407AA06A9F5
:1038C00005A800F08BFA059B0293069B0193022347
:1038D00000932346079A0A490A48FFF715FC0A4B4A
:1038E000186010B1012008B010BD4FF0500383F3F1
:1038F0001188BFF36F8FBFF34F8FFEE7B406002030
:10390000DC4D0008ED3B0008B8060020C0B130B522
:1039100085B015460446174A106840B31A46009110
:103920000195029405291CDCFFF7FAFE022810D04D
:1039300000231A4669460F480068FFF755F814E05F
:103940004FF0500383F31188BFF36F8FBFF34F8F96
:10395000FEE70023089A694606480068FFF744F826
:1039600003E000236946FFF7FFF805B030BD0020F3
:10397000FBE700BFB406002070B582B01A4B1B688D
:103980001A6852B3DB681E68DC68251D2846FEF7FE
:10399000DBFE636A20469847E369012BEED1A369F9
:1039A00033449E4207D26360246129460E4B186857
:1039B000FEF7B0FEE2E7002100910B4632462046BA
:1039C000FFF7A4FF0028D9D14FF0500383F31188EB
:1039D000BFF36F8FBFF34F8FFEE7044A10680249B1
:1039E0000860136002B070BD9005002094050020AF
:1039F00038B50546FFF746FC0446074B1B68834273
:103A000005D800232B60044B1C60204638BDFFF70F
:103A1000B3FF01232B60F6E76006002070B582B08B
:103A200005460E46144B1B68DB68DC68201DFEF75C
:103A30008BFEE369012B04D0636A2046984702B0ED
:103A400070BDA1692B46324629442046FFF7D0FEBF
:103A50000028F1D0002100910B462A462046FFF7AE
:103A600055FF0028E8D14FF0500383F31188BFF3CE
:103A70006F8FBFF34F8FFEE79005002070B582B0C7
:103A800006460C46FFF7F6FB01A8FFF7B1FF019BC6
:103A90001BBB05460CB9B04218D22CB1114B1B68A8
:103AA0001C68B4FA84F464092246711B0E4B186832
:103AB000FFF784F9FFF778FC88B90C4B4FF0805280
:103AC0001A60BFF34F8FBFF36F8F08E0FFF76CFCF6
:103AD00029463046FFF7A2FF01E0FFF765FC02B080
:103AE00070BD00BF94050020B406002004ED00E086
:103AF00030B589B006E007990698059B9847049B66
:103B0000002B0BDA002204A9374B1868FFF794F852
:103B1000002866D0049B002BF1DAECE7069C636971
:103B200013B1201DFEF710FE03A8FFF761FF049BF1
:103B3000092BE7D801A252F823F000BF653B00082B
:103B4000653B0008653B0008053B0008AD3B0008ED
:103B5000D33B0008653B0008653B0008053B0008B7
:103B6000AD3B00080599A5690B460246294420464D
:103B7000FFF73EFE0028C5D0636A20469847E369F8
:103B8000012BBFD1A269002100910B460598024488
:103B90002046FFF7BBFE0028B4D14FF0500383F35B
:103BA0001188BFF36F8FBFF34F8FFEE70599A161B7
:103BB00031B10346024601442046FFF719FEA1E752
:103BC0004FF0500383F31188BFF36F8FBFF34F8F14
:103BD000FEE794F82C30002B94D1204600F0ECF94D
:103BE00090E709B030BD00BFB406002000B583B037
:103BF00001A8FFF7EDFD0199FFF740FFFFF778FF00
:103C0000F6E70000EFF3058393B9EFF3108393B960
:103C10000C4B1868022804D080B90A4B01221A60A4
:103C20007047EFF31183002BF6D06FF0050070475B
:103C30006FF0050070476FF0050070474FF0FF30E0
:103C4000704700BF1809002008B5EFF30583B3B92A
:103C5000EFF31083B3B90E4B1B68022B08D0012B76
:103C600013D10B4B02221A60FFF7BAFA002008BDED
:103C7000EFF31182002AF2D06FF00500F7E76FF042
:103C80000500F4E76FF00500F1E74FF0FF30EEE7D5
:103C900018090020F0B587B000240494EFF30584E0
:103CA000002C43D1EFF31083002B3FD1334B1B6823
:103CB000022B21D0002839D000238DF8173062B3B1
:103CC0001668EEB1946904B91824631E372B51D8D5
:103CD000536813F0010F4FD15569A5B14FEA950C08
:103CE00093682BB1D7685B2F02D9176907B105BB61
:103CF00063B14FF0FF3516E0EFF31183B3B9D9E7A5
:103D00000DF11706DEE74FF0800CE9E7D36893B9B1
:103D100013699BB14FF0FF3505E0002518244FF0E3
:103D2000800C0DF11706012D0AD0ADB1049807B033
:103D3000F0BD0125F7E74FF0FF35F4E70025F2E786
:103D4000136992680292019300940B4662463146D1
:103D5000FFF7DAF90490E9E704AA019200940B4610
:103D60001FFA8CF23146FFF708FA0128DED0002353
:103D70000493DBE70020DAE70020D8E718090020E9
:103D800008B5EFF30583A3B9EFF31083A3B90C4B88
:103D90001B68022B02D040B9002008BDEFF311834D
:103DA000002BF8D06FF00500F7E7FFF779FB002054
:103DB000F3E76FF00500F0E76FF00500EDE700BFF7
:103DC00018090020034B0360034B0B608023136032
:103DD000704700BFBC080020BC060020034B0360F6
:103DE000034B0B604FF48073136070471C0D002071
:103DF0001C090020124A12F0070F07D0D11D21F034
:103E00000701C1F5406313440A4601E04FF44063E3
:103E10000C480260002141601344083B23F0070373
:103E20000948036059601960991A51601360074B83
:103E30001960074B1960074B4FF000421A6070473A
:103E40007C0D002088190020780D002084190020A6
:103E5000801900207C19002010B4134A00E01A4693
:103E600013688342FBD351685418844209D04168D7
:103E70004418A3420AD00360904200D0106010BCE6
:103E800070474068014451601046F0E7074C2468D1
:103E9000A34206D05B681944416013681B68036045
:103EA000EAE70460E8E700BF88190020780D0020E9
:103EB00070B50446FFF7DEF93A4B1B68BBB13A4BCD
:103EC0001B681C4256D1ACB1083414F0070F11D056
:103ED00024F00704083404F007035BB14FF05003EB
:103EE00083F31188BFF36F8FBFF34F8FFEE7FFF7A8
:103EF00081FFE4E7002C3FD02C4B1B68A3424AD340
:103F00002B4B1D6801E02B4615466A68A24202D27F
:103F10002A68002AF7D1234A1268AA423DD01E68B7
:103F200008362A681A606B681B1B102B10D92819D9
:103F300010F0070F08D04FF0500383F31188BFF340
:103F40006F8FBFF34F8FFEE743606C60FFF784FF16
:103F50006A6816490B689B1A0B60164909688B4200
:103F600001D214490B60104B1B6813436B60002394
:103F70002B6002E0002600E00026FFF715FA16F09D
:103F8000070F0CD04FF0500383F31188BFF36F8FEE
:103F9000BFF34F8FFEE70026EFE70026EDE7304640
:103FA00070BD00BF780D00207C1900208019002012
:103FB000881900208419002080B338B50446A0F188
:103FC000080550F8042C164909680A4208D14FF038
:103FD000500383F31188BFF36F8FBFF34F8FFEE75A
:103FE00050F8080C40B14FF0500383F31188BFF331
:103FF0006F8FBFF34F8FFEE722EA010244F8042CD3
:10400000FFF738F954F8041C064A13680B44136090
:104010002846FFF721FFFFF7C7F938BD704700BFFB
:104020007C1900208019002082B0002301930D4BE1
:104030001B68B3F1FF3F08D04FF0500383F31188A2
:10404000BFF36F8FBFF34F8FFEE74FF0500383F343
:104050001188BFF36F8FBFF34F8F019B002BFCD0F4
:1040600002B070471000002006480068006880F326
:10407000088862B661B6BFF34F8FBFF36F8F00DF62
:1040800000BF000008ED00E04FF0807340F8043CF2
:1040900021F0010140F8081C034B40F80C3C40F8AB
:1040A000202C4038704700BF294000080000000065
:1040B000074B19680868B0E8F00F80F30988BFF370
:1040C0006F8F4FF0000080F311884EF00D0E704797
:1040D000940000204FF0500383F31188BFF36F8FDB
:1040E000BFF34F8F0A4A136801331360012B00D0CE
:1040F0007047084B1B6813F0FF0FF9D04FF05003C7
:1041000083F31188BFF36F8FBFF34F8FFEE700BFBC
:104110001000002004ED00E0094B1B6843B94FF08C
:10412000500383F31188BFF36F8FBFF34F8FFEE708
:10413000013B034A13600BB983F31188704700BF3A
:10414000100000200000000000000000000000003F
:10415000EFF30980BFF36F8F0D4B1A6820E9F00F62
:1041600010602DE908404FF0500080F31188FFF7F0
:10417000BDF94FF0000080F31188BDE808401968D0
:104180000868B0E8F00F80F30988BFF36F8F7047BD
:104190009400002008B54FF0500383F31188BFF35B
:1041A0006F8FBFF34F8FFFF773F818B1034B4FF0CA
:1041B00080521A60002383F3118808BD04ED00E0EB
:1041C000084A0023136008490B60084B1B68084924
:1041D000A1FB03139B09013B06490B6007231360F6
:1041E000704700BF10E000E018E000E00C00002085
:1041F000D34D621014E000E010B582B0274B1A785E
:10420000D2B20192FF221A701B78DBB28DF8033014
:104210009DF8033003F05003214A1370214B07220D
:104220001A609DF8033013F0800F0AD01D4A1368FE
:10423000013B13609DF803305B00DBB28DF8033067
:10424000EFE7184B1B68032B08D04FF0500383F3A4
:104250001188BFF36F8FBFF34F8FFEE71B0203F48C
:10426000E063104A1360019BDBB20C4A13700E4BE3
:104270001A6842F470021A601A6842F070421A60BA
:10428000FFF79EFF0024094B1C60FFF7EDFEFFF7D0
:104290002DF9FFF7C9FE204602B010BD00E400E092
:1042A000901900209419002020ED00E0100000205B
:1042B000EFF305830F2B0FD9104A9B5CDBB2104A3A
:1042C00012789A4208D94FF0500383F31188BFF354
:1042D0006F8FBFF34F8FFEE70A4B1B6803F4E06359
:1042E000094A1268934208D94FF0500383F31188AA
:1042F000BFF36F8FBFF34F8FFEE77047F0E300E02F
:10430000901900200CED00E0941900200C480D4994
:104310000D4A002302E0D458C4500433C4188C4220
:10432000F9D30A4A0A4C002301E013600432A24286
:10433000FBD3FEF7D5F900F013F8FCF779FE7047D0
:104340000000002078000020204F000878000020A6
:10435000D01A0020FEE70A22002100F0D3B80000A6
:1043600070B500260C4D0D4C641BA410A64209D15B
:1043700000F0DAFC00260A4D0A4C641BA410A64289
:1043800005D170BD55F8043B98470136EEE755F866
:10439000043B98470136F2E7184F0008184F000811
:1043A000184F00081C4F00080A44914200F1FF33E7
:1043B00000D1704710B511F8014B914203F8014F3D
:1043C000F9D110BD03460244934200D1704703F86F
:1043D000011BF9E70EB46FF0004100B59CB01DABB6
:1043E00002900690079104910848094953F8042B5C
:1043F0000591006802A9019300F0EAF80022029BEF
:104400001A701CB05DF804EB03B070471400002074
:104410000802FFFF2DE9F04786460846384F05465B
:1044200015F8014BE65D16F0080634D12D2C34D179
:104430004FF001082C78851C002B5CD0102B09D183
:10444000302C07D1287800F0DF0058284ED11023F7
:104450006C780235B8F1000F14BF4FF0004C6FF0CC
:10446000004C0027BCFBF3F9384603FB19CAA4F142
:104470003006092E18D83446A34224DD7E1C07D00E
:1044800081451DD301D1A2451ADB012700FB034062
:1044900015F8014BEBE72846C1E72B2C08BF2C7819
:1044A000B04608BF851CC7E7A4F14106192E01D804
:1044B000373CE1E7A4F16106192E04D8573CDBE74D
:1044C0004FF0FF37E4E77B1C06D122236046CEF88D
:1044D000003042B9BDE8F087B8F1000F00D040428B
:1044E000002AF7D007B1691E1160F3E73024002BD2
:1044F000B0D10823AEE7302CA4D00A23AAE700BF2E
:10450000E54D000813460A46014602480068FFF7D9
:1045100081BF00BF140000202DE9F0478E6882465D
:104520009E420C469146984638D8B1F80CC01CF40F
:10453000906F31D062692568096902EB42026F1AF7
:1045400002EBD272013355103B449D4238BF1D46E9
:104550001CF4806F30D0294600F032FB064650B97B
:104560000C234FF0FF30CAF80030A38943F040031A
:10457000A381BDE8F0873A462169FFF715FFA389BB
:1045800023F4906343F08003A38126613E442660B8
:1045900046466561ED1BA560464500D94646324654
:1045A0004946206800F0A6FAA36800209B1BA36080
:1045B00023681E442660DCE72A4600F05BFB0646C3
:1045C0000028E2D12169504600F0AEFAC8E70000A9
:1045D0002DE9F04F1E468B899DB01B0607460D4600
:1045E00014460ED50B6963B9402100F0E9FA286042
:1045F000286120B90C233B604FF0FF30C9E0402315
:104600006B610023099320238DF8293030234FF06C
:10461000010ADFF898918DF82A30039623461E464A
:1046200013F8012B0AB1252AF9D1B6EB040B0BD0F4
:104630005B46224629463846FFF76EFF013000F000
:10464000A380099B5B4409933378002B00F09C8086
:1046500000234FF0FF32CDE9052301360493079381
:104660008DF853301A933446052214F8011B4F4835
:1046700000F032FA049BC0B9D90644BF20228DF85D
:1046800053201A0744BF2B228DF8532032782A2A50
:1046900013D0344600200A26079A214611F8013B20
:1046A000303B092B4BD970B914E0A0EB09000AFA92
:1046B00000F0184304902646D5E7039A111D1268AE
:1046C0000391002A01DB079204E0524243F0020307
:1046D0000792049323782E2B0CD163782A2B33D1A5
:1046E000039B02341A1D1B680392002BB8BF4FF0C6
:1046F000FF3305932E4E03222178304600F0ECF96B
:1047000038B14023801B03FA00F0049B01340343BB
:10471000049314F8011B062226488DF8281000F097
:10472000DBF9002838D0244B13BB039B073323F05D
:10473000070308330393099B434409936EE706FB81
:10474000023201200C46A8E700230A26194601344C
:104750000593204610F8012B303A092A03D9002B83
:10476000C8D00591C6E706FB012101230446F0E706
:1047700003AB00932A46114B04A93846AFF30080DF
:10478000B0F1FF3F8046D6D1AB895B063FF534AF31
:1047900009981DB0BDE8F08F03AB00932A46074B84
:1047A00004A9384600F082F8EAE700BFE54E0008A9
:1047B000EB4E0008EF4E000800000000194500080D
:1047C0002DE9F04791461F468A680B6906469342D9
:1047D000B8BF1346C9F8003091F843200C46DDF805
:1047E000208012B10133C9F800302368990642BF16
:1047F000D9F800300233C9F80030256815F00605F5
:1048000007D104F1190AE368D9F800209B1AAB42DA
:1048100029DC94F843302268003318BF0123920644
:104820002ED404F1430239463046C047013021D02E
:104830002368E56803F00603042B18BF0025D9F8A8
:1048400000204FF0000908BFAD1AA368226908BF15
:1048500025EAE5759342C4BF9B1AED181A344D45FD
:104860001AD1002008E00123524639463046C0479D
:10487000013003D14FF0FF30BDE8F0870135C2E7CA
:104880003020E11881F843005A1C94F84510224466
:10489000023382F84310C4E70123224639463046EA
:1048A000C0470130E6D009F10109D8E72DE9F0430E
:1048B00006460C4601F14300097E85B06E299846F4
:1048C00017460C9B00F0BB8024D8632939D00AD846
:1048D000002900F0C480582900F0928004F14205BC
:1048E00084F8421035E0642901D06929F6D12568A1
:1048F0001A6815F0800F02F104012CD012681960BB
:10490000002A03DA2D23524284F84330DFF8C0C175
:104910000A233FE0732900F0A68008D86F2921D030
:104920007029DBD1226842F02002226003E0752961
:1049300018D07829D2D17822DFF898C184F84520A0
:1049400062E01A6804F14205111D1960136884F8C9
:104950004230012394E0126815F0400F196018BF2F
:1049600012B2CDE7D4F800C01A681CF0800F02F133
:1049700004051D6001D0126803E01CF0400FFAD05E
:1049800012886F290CBF08230A23DFF844C10021D5
:1049900084F843106568002DA8BF2168A560A4BFF6
:1049A00021F0040121600AB9002D46D00546B2FB72
:1049B000F3F103FB112E1CF80EE0934205F801ED14
:1049C00039D9082B0BD12368DA0708D52369626827
:1049D0009A42DEBF302305F8013C05F1FF35401B4C
:1049E0002061CDF800803B4603AA21463046FFF700
:1049F000E7FE013049D14FF0FF3005B0BDE8F0834C
:104A0000DFF8CCC084F845101D68216855F8042BE8
:104A10001D600D060BD5CD0744BF41F0200121607C
:104A20001AB9236823F0200323601023AFE74B0655
:104A300048BF92B2EFE70A46B9E70546C1E71A68F0
:104A4000D4F800C0151D61691CF0800F1D6013684B
:104A500001D0196003E01CF0400FFAD01980002348
:104A600005462361BDE71A68111D1960156800210C
:104A70006268284600F030F808B1401B6060636847
:104A80002361002384F84330ABE723692A46394683
:104A90003046C0470130AED023689B0713D4E0688E
:104AA000039B9842B8BF1846A7E701234A463946F8
:104AB0003046C04701309ED00135E368039A9B1A07
:104AC000AB42F2DCEBE7002504F11909F5E700BF82
:104AD000F64E0008074F000810B5C9B202449042D4
:104AE000034601D1002303E01C7801308C42F6D14B
:104AF000184610BD884210B501EB020302D983426B
:104B00001C4607D8421E994208D011F8014B02F802
:104B1000014FF8E783189A1A9A4200D110BD14F891
:104B2000011D03F8011DF7E738B50546002943D0FC
:104B300051F8043C0C1F002BB8BFE41800F0D0F86B
:104B40001E4A1368104633B9636014602846BDE8F6
:104B5000384000F0CBB8A3420BD9216862189342C9
:104B600001BF1A685B685218226063600460EDE759
:104B700013465A680AB1A242FAD919685818A042D5
:104B80000BD120680144581882421960DED11068A8
:104B90005268014419605A60D8E702D90C232B608F
:104BA000D4E7206821188A4201BF116852680918A9
:104BB000216062605C60C9E738BD00BF98190020C1
:104BC000F8B5CD1C25F0030508350C2D38BF0C2594
:104BD000002D064601DBA94203D90C2333600020D7
:104BE000F8BD00F07DF821490A6814469CB9204FB1
:104BF0003B6823B92146304600F062F83860294608
:104C0000304600F05DF8431C23D10C23304633605E
:104C100000F06CF8E3E723685B1B17D40B2B03D978
:104C200023601C44256004E06368A2420CBF0B6053
:104C30005360304600F05AF804F10B00231D20F0B9
:104C40000700C21ACCD01B1AA350C9E722466468D9
:104C5000CCE7C41C24F00304A042E3D0211A304660
:104C600000F02EF80130DDD1CFE700BF9819002009
:104C70009C190020F8B5074614460E4621B9114686
:104C8000BDE8F840FFF79CBF22B9FFF74DFF25466E
:104C90002846F8BD00F030F8A0420FD22146384631
:104CA000FFF78EFF05460028F2D031462246FFF777
:104CB0007BFB31463846FFF737FFE9E73546E7E744
:104CC00038B50023054C05460846236000F01EF861
:104CD000431C02D1236803B12B6038BDC01A0020E9
:104CE000014800F011B800BFC81A0020014800F0C8
:104CF0000CB800BFC81A002051F8043C181F002B44
:104D0000BCBF0B58C018704770477047044A05492C
:104D10001368002B08BF0B461844106018467047F4
:104D2000A0190020D01A0020F8B500BFF8BC08BCBC
:104D30009E467047F8B500BFF8BC08BC9E46704759
:104D400002030405060708090A0B0C0D0E0F1010CC
:104D50000102000053657420736572766F20746FD2
:104D60003A202566200A0D00736572766F20736DF8
:104D70006F6F746865643A202566200A0D00000094
:104D8000A44D00080000000000000000000000002A
:104D900000000000000200001800000000000000F9
:104DA0000000000072656164554152545F536572A2
:104DB000766F000000000000000000000102030404
:104DC00006070809000000000102030449444C459D
:104DD00000000000546D725100000000546D7220FC
:104DE0005376630000202020202020202020282827
:104DF000282828202020202020202020202020209B
:104E000020202020208810101010101010101010DA
:104E1000101010101004040404040404040404100A
:104E20001010101010104141414141410101010198
:104E30000101010101010101010101010101010162
:104E4000101010101010424242424242020202026E
:104E50000202020202020202020202020202020232
:104E600010101010200000000000000000000000E2
:104E70000000000000000000000000000000000032
:104E80000000000000000000000000000000000022
:104E90000000000000000000000000000000000012
:104EA0000000000000000000000000000000000002
:104EB00000000000000000000000000000000000F2
:104EC00000000000000000000000000000000000E2
:104ED00000000000000000000000000000000000D2
:104EE0000000000000232D302B2000686C4C006572
:104EF0006667454647003031323334353637383906
:104F00004142434445460030313233343536373838
:084F100039616263646566000B
:044F18003501000857
:044F1C001101000877
:104F200000007A4301000000100000000024F4009B
:104F3000AAAAAAAA18000020000000000000000091
:104F40000000000000000000000000000000000061
:104F50000000000000000000000000000000000051
:104F60000000000000000000000000000000000041
:104F70000000000000000000000000000000000031
:104F80000000000000000000000000000000000021
:084F9000000000000000000019
:040000050800430D9F
:00000001FF
