:020000040800F2
:1000000068040020650100089B120008E91100083F
:100010009912000871020008751300080000000022
:10002000000000000000000000000000BF120008F7
:10003000AD02000800000000BD120008C112000857
:100040007F0100087F0100087F0100087F01000890
:100050007F0100087F0100087F0100087F01000880
:100060007F0100087F0100087F0100087F01000870
:100070007F0100087F0100087F0100087F01000860
:100080007F0100087F0100087F0100087F01000850
:10009000750200087F0100087F0100087F01000849
:1000A0007F0100087F0100087F0100087F01000830
:1000B0007F0100087F0100087F0100087F01000820
:1000C0007F0100087F0100087F0100087F01000810
:1000D0007F0100087F0100087F0100087F01000800
:1000E0007F0100087F0100087F0100080000000078
:1000F0000000000000000000000000000000000000
:1001000000000000000000007F0100087F010008DF
:100110007F0100087F0100087F0100087F010008BF
:100120007F0100087F0100087F0100087F010008AF
:100130007F01000800000000000000007F010008AF
:100140007F0100087F0100087F0100087F0100088F
:10015000DFF80CD000F07AF800480047951300084B
:10016000680400200648804706480047FEE7FEE78F
:10017000FEE7FEE7FEE7FEE7FEE7FEE7FEE7FEE757
:1001800021130008510100082DE9F05F0546002009
:1001900092469B4688460646814640241BE02846F8
:1001A00041464746224600F020F853465A46C01AB8
:1001B000914110D311461846224600F038F82D1A06
:1001C00067EB01084F4622460120002100F02FF87E
:1001D00017EB00094E41201EA4F10104DFDC484664
:1001E00031462A464346BDE8F09F202A04DB203AE8
:1001F00021FA02F00021704721FA02F3D040C2F147
:1002000020029140084319467047D2B201E000F83D
:10021000012B491EFBD270470022F6E710B51346AA
:100220000A4604461946FFF7F0FF204610BD202A73
:1002300004DB203A00FA02F1002070479140C2F13D
:10024000200320FA03F3194390407047064C074DF2
:1002500006E0E06840F0010394E807009847103496
:10026000AC42F6D3FFF778FF2C1400084C140008BA
:10027000FEE70000014800F008B900002800002057
:1002800000B58BB000200121CDE906010390059057
:10029000009001900290089104906946024800F095
:1002A0006BF80BB000BD0000280000207047F0B5CF
:1002B00090F820500468A468012D05D0022D03D0C9
:1002C000416A41F4802153E014F0406F01D1E50010
:1002D0004BD5C4F30164022C03D9416A41F40001F7
:1002E00046E00125A5401D608D684FF4C0739DB1A7
:1002F000CE6835434E6845EAC605066803EB041729
:10030000F5514FF4C275076805EB04150E697E516F
:10031000097D012905D009E00E88CD6845EA4655DA
:10032000EBE701684E5946F480764E511179D2F8C8
:1003300005504FF4C67641EA0525016806EB041620
:100340008D511178D2F801204FF4C47541EA022191
:10035000026805EB04155151006803EB0411425883
:1003600042F0010242500020F0BD416A41F4001108
:1003700041620120F0BD000010B590F82020012A54
:1003800007D0022A05D0416A41F480214162012050
:1003900010BD3B48D0F8002242F00102C0F8002214
:1003A000D0F8002222F47C52C0F80022D0F80022BB
:1003B0004B6A42EA0322C0F800220A7D02F01F03C2
:1003C00001229A40D0F81C329343C0F81C32CB690A
:1003D000B3B9D0F80C329343C0F80C328C894B6817
:1003E00064F31F434C6900EBC404C4F840320C8929
:1003F0000B6864F31F434C6900EBC404C4F8443237
:10040000CB69012B16D1D0F80C321343C0F80C3253
:100410000C884B6864F31F434C6900EBC404C4F8B8
:1004200040320C89CB6864F31F434C6900EBC40471
:10043000C4F844328B69002BD0F804320ED0134339
:10044000C0F804320B69002BD0F8143208D01343E3
:10045000C0F81432096A012904D008E09343EFE799
:100460009343F5E7D0F81C121143C0F81C12D0F8E2
:10047000001221F00101C0F80012002010BD0000A0
:10048000006400407047406A70472DE9F05F054600
:10049000006800244669D0F804908768D0F80CB052
:1004A000D0F810A0D0F81880F10748D0F90714D080
:1004B00001218160B80703D5284600F0F0F90CE06F
:1004C000780702D54FF4006407E0380702D54FF4EF
:1004D000805402E0284600F0E1F9F80516D52968B5
:1004E0004FF480708860B80503D5284600F0D9F92C
:1004F0000CE0780502D544F4005407E0380502D535
:1005000044F4804402E0284600F0CAF9F80316D506
:1005100029684FF480308860B80303D5284600F07E
:10052000C2F90CE0780302D544F4004407E0380334
:1005300002D544F4803402E0284600F0B3F93007D5
:1005400007D55FEACB6004D52968102044F4007415
:10055000C86070074FF0080707D55FEA0B7004D535
:100560002868C760284600F067F9B00706D52868F4
:10057000C068800702D0284600F05FF9700607D5F2
:100580005FEACA6004D52968102044F480640861D9
:10059000B00607D55FEA0A7004D5286807612846C7
:1005A00000F04CF9F00606D528680069800702D0F3
:1005B000284600F044F9B00308D55FEAC96005D5C4
:1005C000296810204860284600F03AF9F00307D562
:1005D0005FEA097004D528684760284600F064F98E
:1005E000300446D55FEA497040D5F00504D55FEA8E
:1005F000C87001D044F00104B00504D55FEA8870EA
:1006000001D544F00204700504D55FEA487001D5B5
:1006100044F00404300529D518F0700F26D008F0F6
:100620007000402815D006DC102809D020280AD0F8
:10063000302816D10AE050280ED0602811D10EE0E3
:1006400044F008040DE044F010040AE044F02004F3
:1006500007E044F0400404E044F0800401E044F486
:1006600080742868816921F0700181612968042003
:100670004860002C05D0686A204368622846FFF76E
:1006800001FFBDE8F09F70B5040003D094F820008E
:1006900010B104E0012070BD204600F081F8206810
:1006A000016821F00201016000F0F6F90546052617
:1006B00004E000F0F1F9401B0A2811D820684068D6
:1006C0008007F6D42068016841F00101016000F064
:1006D000E3F905460BE000F0DFF9401B0A2806D9D4
:1006E000606A40F40030606284F82060D2E72068DD
:1006F0004068C007EFD0207E0128206801683DD007
:1007000021F080010160607E01282068016838D0F6
:1007100021F040010160A07E01282068016833D0EB
:1007200021F020010160E07E0128206801682ED0C0
:1007300041F010010160207F01282068016829D064
:1007400021F008010160607F01282068016824D041
:1007500021F004010160D4E902010843D4E9041244
:10076000114308436168491E08432168C86100209D
:100770006062012084F82000002070BD41F08001FB
:10078000C0E741F04001C5E741F02001CAE721F090
:100790001001CFE741F00801D4E741F00401D9E7A7
:1007A00010B586B00021009101910291039100687B
:1007B0001D49884235D11D48C16941F00071C161B0
:1007C000C16901F000710491816941F00801816102
:1007D0008069174C00F0080004904FF4807000907E
:1007E000012002906946204600F072F860150090E2
:1007F00002200190032003906946204600F068F82B
:100800000C48416821F4C04141F0E06141F480416D
:10081000416000221146142000F0A8F9142000F0D5
:1008200099F906B010BD00000064004000100240BD
:10083000000C01400000014070477047704770474E
:100840007047000070B5044690F82000012804D0DD
:10085000606A40F40020606218E0022084F8200002
:100860002068016821F00101016000F015F90546DA
:100870000EE000BF00F010F9401B0A2808D9606A9A
:1008800040F400306062052084F82000012070BD33
:1008900020684068C007EDD1606270BD7047704746
:1008A00070477047704770477047000070B5044646
:1008B00000F0F2F80546601C02D0044800780444B9
:1008C00000F0EAF8401BA042FAD370BD18000020E7
:1008D0002DE9F84FDFF890A100220AF1040B14462D
:1008E00001274FF00F090BF1040E00BF0B6807FA48
:1008F00004F52B40AB4274D1DFF870C14E68A6EB13
:100900000C0866452BD00DDC032E34D005DC36B345
:10091000012E19D0022E2FD11BE0112E16D0122E2F
:100920002AD119E0B8F5881F19D006DCB8F5803F48
:1009300015D0B8F5801F1FD111E0B8F5001F0ED0FB
:10094000B8F5041F18D10AE0CA6815E0CA68121D7C
:1009500012E0CA6808320FE0CA680C320CE08A68FC
:100960002AB1012A4FF0080203D0456104E00422B5
:1009700002E0056100E00022FF2B01D8064601E0FD
:1009800000F104064FEA840501D9A5F12005D6F847
:1009900000C009FA05F82CEA080C02FA05F54CEA41
:1009A000050CC6F800C04D68ED0057D5304DAE6956
:1009B00046F00106AE61AD6924F0030605F00105BD
:1009C00000952C4D06EB050CDCF80850A6074FEA05
:1009D000167809FA08F6B543274EB04202D1002630
:1009E00010E03BE0254EB04201D101260AE0244E42
:1009F000B04201D1022605E0224EB04201D10326C9
:100A000000E0042606FA08F62E43CCF808604D688C
:100A1000DAF80060ED03554601D51E4300E09E4321
:100A20002E604D68DBF80060AD035D4601D51E43C6
:100A300000E09E432E604D68DEF80060ED027546D2
:100A400001D51E4300E09E432E604D68AD020E4D61
:100A50002E6801D51E4300E09E432E60641C102CBE
:100A6000FFF444AFBDE8F88F00040140000011100E
:100A7000001002400000014000080140000C01404D
:100A800000100140001401400C0401400AB1016152
:100A900070470904FBE700000148806870470000C8
:100AA0001800002002488168027811448160704774
:100AB00018000020074810B5016841F010010160DE
:100AC000032000F073F8002000F006F800F024F88E
:100AD000002010BD0020024070B50D4D04464FF4BB
:100AE0007A712878B1FBF0F00A490968B1FBF0F09F
:100AF00000F066FB48B9102C07D200222146501E98
:100B000000F034F800206C6070BD012070BD000062
:100B100018000020240000200C4808B5816941F02D
:100B200001018161816901F001010091C16941F018
:100B30008051C161C06900F0805000900448416854
:100B400021F0E06141F00071416008BD00100240F9
:100B50000000014000F01F02012191404009800087
:100B600000F1E020C0F8001170470000F0B40E4B17
:100B70001B680C46C3F30223C3F10705042D00D9FB
:100B80000425191D072901D2002300E0DB1E0126E0
:100B900006FA05F1491E214099409E40761E1640F6
:100BA0003143F0BC00F07ABB0CED00E0064900F0E8
:100BB000070208684FF6FF03184040EA0220034A84
:100BC00010430860704700000CED00E00000FA05DB
:100BD0002DE9F047DFF8548105460E46D8F80000AD
:100BE00000F00700B0420CD2D8F8001021F0070145
:100BF0003143C8F80010D8F8000000F00700B042F8
:100C00006FD128684A4C810712D5400703D5606828
:100C100040F4E06060602878000703D5606840F425
:100C2000605060606068A96820F0F0000843606070
:100C30002878C00744D06868012816D021680228A7
:100C400016D0890700294CDA616821F003010143BD
:100C50006160FFF721FF6968074641F2883001298A
:100C60000ED00229814618D026E021688903E9E7E1
:100C70008901E7E7FFF710FFC11B494501D918E0DB
:100C800081466068C0F381000128F3D118E000BFFD
:100C9000FFF702FFC11B49450BD86068C0F3810014
:100CA0000228F5D10CE000BFFFF7F6FEC11B494555
:100CB00002D90320BDE8F087606810F00C0FF3D173
:100CC000D8F80010404601F00701B1420BD9016885
:100CD00021F0070131430160006800F00700B042D5
:100CE00001D00120E6E72878400705D56068E9686B
:100CF00020F4E060084360602878000706D560684B
:100D0000296920F4605040EAC100606000F016F8E4
:100D10006168084AC1F30311515CC8400649086084
:100D20000020FFF7D9FE0020C4E7000000200240A9
:100D3000001002401C14000824000020F0B523A27B
:100D400089B00FCA04AC84E80F0024A10FC98DE854
:100D50000F0026494A68264802F00C03042B2FD0C6
:100D6000082B2DD104A8C2F38343C45CD00329D53A
:100D7000C86A00F00F001DF80020C86AC00316D52D
:100D8000C86AC96AC0F30310C1F30321401C891C5F
:100D9000A0FB0223A1FB0416154F0025A1FB070CA5
:100DA00006FB07C601FB0561FFF7EEF903E01048FB
:100DB0006043B0FBF2F09DF81D10A14200D1400845
:100DC00009B0F0BD0B486043FAE7000000000405DD
:100DD0000607080900000000000D000001020304DE
:100DE00005060708090A0B0C0D0E0F100010024033
:100DF00000127A0000093D002DE9F84F0446007802
:100E0000EA4DC00748D06868C0F38100012807D0C8
:100E10006868C0F38100022809D16868C00306D55C
:100E20002868800338D5A06800286FD034E0A06817
:100E3000B0F5803F0BD010B1B0F5A02F11D02868CD
:100E400020F480302860286820F4802002E02868A0
:100E500040F480302860A06888B1FFF71DFE064688
:100E600009E0286840F480202860F0E7FFF714FECE
:100E7000801B642878D828688003F7D50CE0FFF73A
:100E80000BFE064605E000BFFFF706FE801B642848
:100E9000F0D828688003F7D42078C54E80074FF03B
:100EA00001094FF000073CD5686810F00C0F07D01F
:100EB0006868C0F38100022809D16868C00306D4BD
:100EC0002868800715D5606901281FD111E0606985
:100ED000B8B1C6F80090FFF7DFFD804606E000BF1E
:100EE000FFF7DAFDA0EB08000228C3D828688007C6
:100EF000F6D52868A16920F0F80040EAC100286012
:100F00000FE03760FFF7C8FD804607E02DE100BF26
:100F1000FFF7C2FDA0EB08000228ABD828688007C5
:100F2000F6D4207800072ED5A248E169E9B1C0F8CF
:100F30000090FFF7B1FD804606E000BFFFF7ACFD73
:100F4000A0EB0800022895D8686A8007F6D59A4871
:100F50004FF4FA510068B0FBF1F0009000BF009828
:100F6000411E0091FAD20EE0B0E00760FFF794FD59
:100F7000804605E0FFF790FDA0EB0800022887D827
:100F8000686A8007F6D42078400763D5E8694FF097
:100F90000008C00009D4E86940F08050E861E869C1
:100FA0004FF0010800F08050009084480168C905A6
:100FB00012D40168834641F480710160FFF76CFD33
:100FC000824605E0FFF768FDA0EB0A0064287DD8A3
:100FD000DBF80000C005F5D5206901280AD008B16A
:100FE000052813D0286A20F001002862286A20F022
:100FF000040002E0286A40F001002862206941F202
:10100000883B98B1FFF748FD82460BE0286A40F024
:1010100004002862EEE700BFFFF73EFDA0EB0A01E7
:10102000594553D8286A8007F6D50CE0FFF734FD00
:10103000824605E0FFF730FDA0EB0A01594545D88F
:10104000286A8007F6D4B8F1000F03D0E86920F0D1
:101050008050E861E06AD0B36968C90307D5696860
:10106000C1F38101022902D1E96AC9037DD40228B2
:1010700008D0E86A20F48030E862B766FFF70CFD1C
:1010800080463BE02868C00005D5E86A616B00F047
:10109000F000884269D1B766FFF7FEFC804605E0A4
:1010A000FFF7FAFCA0EB0800642874D82868000158
:1010B000F6D4E86A616B20F0F0000843E862E86A61
:1010C000216B20F470600843E86201E063E018E0FF
:1010D000C6F86890FFF7E0FC804605E0FFF7DCFC0F
:1010E000A0EB0800642856D828680001F6D508E06F
:1010F000FFF7D2FCA0EB080064284CD82868000158
:10110000F6D4206A90B36968C1F3810102294AD0FC
:101110000228376603D0FFF7BFFC04463EE0FFF726
:10112000BBFC074605E000BFFFF7B6FCC01B02286A
:1011300031D828688001F7D4606AB0F5803F09D1C2
:10114000E86A61680843E862E86AE16820F00F0035
:101150000843E862D4E909010843696821F474117D
:1011600008436860C6F8609001E01CE019E0FFF7F2
:1011700093FC044605E000BFFFF78EFC001B02282D
:1011800009D828688001F7D50BE000BFFFF784FC81
:10119000001B022802D90320BDE8F88F28688001CF
:1011A000F4D40020F8E70120F6E700000010024028
:1011B00000004242800442422400002000700040AF
:1011C00010B5401EB0F1807F01D3012010BD4FF05B
:1011D000E02460610F21601700F060F80020A0613A
:1011E00007202061002010BDFEE700000A480949E1
:1011F0004FF4C02201600421416000218160C0E9F8
:1012000003124161017641768176C176017741779B
:10121000FFF739BA006400402800002030B585B0DF
:1012200000241B480094019402940394816941F0C6
:1012300010018161816901F010010491816941F01F
:1012400020018161816901F020010491816941F0EF
:1012500008018161816901F008010491816941F00F
:101260000401816180690B4D00F0040004900022AC
:1012700001212846FFF70AFC02200121039000917A
:10128000CDE9011469462846FFF722FB05B030BDC1
:1012900000100240000C0140FEE770470907090EEC
:1012A000002806DA00F00F0000F1E02080F8141D9D
:1012B000704700F1E02080F80014704770477047D5
:1012C000FFF7F0BB70B594B038216846FEF7A4FF75
:1012D00014210EA8FEF7A0FF012500242804CDE963
:1012E00002040226CDE908600095059501944FF4AB
:1012F000E010CDE90A046846FFF77EFD0F20CDE936
:101300000E06A802CDE9104002210EA81294FFF7A4
:101310005FFC0248056714B070BD00000000424247
:101320001048016841F00101016041680E4A114016
:10133000416001680D4A11400160016821F480217B
:101340000160416821F4FE014160016821F0A05173
:1013500001604FF47F0181600021C1620449C00334
:1013600008607047001002400000FFF0FFFFF6FE2B
:1013700008ED00E0FEE702E008C8121F08C1002ADD
:10138000FAD170477047002001E001C1121F002A06
:10139000FBD17047FFF78EFBFFF794FFFFF73EFF8F
:1013A000FFF724FF1B48FFF74DFAFEF769FF1948C6
:1013B000082128304FF400720161002141608160F2
:1013C0000260C1600175144C40F6B8300B2160809A
:1013D00004F11000A0F108030170B82141700D491B
:1013E000024628310B48FEF762FF20700A4B09497C
:1013F000083303F1080228310648FEF758FF0A2097
:10140000FFF754FA0348FFF73EF8E0606068401CBD
:101410006060EBE7280000200000002000000000D2
:101420000000000001020304060708094C1400082C
:101430000000002028000000761300087414000843
:10144000280000204004000086130008010000006E
:10145000000000000000000000000000000000008C
:10146000000000000100000010000000000000006B
:0414700000A24A0488
:04000005080001519D
:00000001FF
