:020000040800F2
:1000000000500020FD2B0008C5020008C7020008B0
:10001000C9020008CB020008CD0200080000000061
:10002000000000000000000000000000A1290008FE
:10003000CF02000800000000412A0008852A0008BD
:10004000452C0008452C0008452C0008452C0008CC
:10005000452C0008452C0008452C0008452C0008BC
:10006000452C0008452C0008452C0008452C0008AC
:10007000452C0008452C0008452C0008452C00089C
:10008000452C0008452C0008452C0008452C00088C
:10009000452C0008452C0008452C0008452C00087C
:1000A000452C0008452C0008452C0008452C00086C
:1000B000452C0008452C0008D1020008452C0008FA
:1000C000452C0008452C0008452C0008452C00084C
:1000D000452C0008452C0008452C0008452C00083C
:1000E000452C0008452C0008452C000800000000A5
:1000F0000000000000000000000000000000000000
:0C01000000000000000000005FF808F1A3
:1001100010B5054C237833B9044B13B10448AFF341
:1001200000800123237010BD10000020000000009B
:10013000BC2C000808B5034B1BB103490348AFF3BF
:10014000008008BD0000000014000020BC2C000846
:1001500008B50268034B9A4200D008BD00F038F998
:10016000FBE700BF0008004072B6FEE700B591B0A3
:100170002422002107A802F099FD00230193029395
:100180000393049305930223069301230A931023F8
:100190000B9306A800F044F968B90F2301930021DE
:1001A000029103910491059101A800F079FB20B917
:1001B00011B05DF804FBFFF7D7FFFFF7D5FF08B5D7
:1001C00000F0F4F8FFF7D2FF00F008F802F094F91D
:1001D00000F05CF802F0B2F9FEE7000030B589B03B
:1001E00000240494059406940794184B9A6942F0ED
:1001F00010029A619A6902F010020192019A9A69BA
:1002000042F020029A619A6902F020020292029A58
:100210009A6942F004029A619B6903F00403039314
:10022000039B0B4D22464FF40051284600F00EFD73
:100230004FF400530493012305930694022307937C
:1002400004A9284600F016FC09B030BD0010024099
:100250000010014008B54FF40051044800F0FCFCC8
:100260004FF4FA7002F006FAF5E700BF0010014003
:1002700008B54FF40051044800F0EEFC4FF416703E
:1002800002F0F8F9F5E700BF0010014008B5074A91
:100290000021074802F078F9064B1860064A002151
:1002A000064802F071F9064B186008BDE82C0008FA
:1002B00055020008301900200C2D000871020008BA
:1002C00034190020FEE7FEE7FEE7FEE7FEE7704791
:1002D00008B5024800F058FD08BD00BF38190020DD
:1002E00000B583B0114B9A6942F001029A619A6994
:1002F00002F001020092009ADA6942F08052DA615B
:10030000DB6903F080530193019B00220F216FF002
:10031000010000F0BDFC064A536823F0E06343F09F
:100320000073536003B05DF804FB00BF001002408F
:100330000000014000B589B0002201461E2000F0F7
:10034000A7FC1E2000F0D8FC144BDA6942F004022E
:10035000DA61DB6903F004030193019B02A903A89E
:1003600000F06AFB00F058FB0D4BA3FB00239B0C35
:10037000013B0C480C4A026040F2E732C260436025
:1003800000230361836000F0F7FD18B1012009B07C
:100390005DF804FB034800F0BFFCF8E700100240E2
:1003A00083DE1B43381900200008004008B5074AC7
:1003B000136843F010031360032000F057FC0F2074
:1003C000FFF7B8FFFFF78CFF002008BD00200240B8
:1003D000034A1168034B1B780B441360704700BF3E
:1003E0008019002000000020014B1868704700BFF2
:1003F0008019002082B0084B1B68084AA2FB032327
:100400005B0A00FB03F0019000BF019B5A1E0192A2
:10041000002BF9D102B0704708000020D34D6210C4
:10042000002800F0F18170B582B00446036813F033
:10043000010F2CD0AA4B5B6803F00C03042B1DD0DA
:10044000A74B5B6803F00C03082B12D06368B3F56D
:10045000803F41D0002B55D103F1804303F5043395
:100460001A6822F480321A601A6822F480221A6014
:1004700037E09B4B5B6813F4803FE7D0984B1B68D9
:1004800013F4003F03D06368002B00F0BF812368A2
:1004900013F0020F75D0924B5B6813F00C0F5FD016
:1004A0008F4B5B6803F00C03082B54D02369002B9F
:1004B00000F089808B4B01221A60FFF795FF0546FB
:1004C000874B1B6813F0020F74D1FFF78DFF401BA1
:1004D0000228F5D903209EE1814A136843F4803352
:1004E0001360636843B3FFF77FFF05467C4B1B68CF
:1004F00013F4003FCBD1FFF777FF401B6428F5D9F9
:10050000032088E1B3F5A02F09D0754B1A6822F4B7
:1005100080321A601A6822F480221A60E1E703F13F
:100520008043A3F53C331A6842F480221A601A68AB
:1005300042F480321A60D4E7FFF756FF0546684B55
:100540001B6813F4003FA2D0FFF74EFF401B642846
:10055000F5D903205FE1624B5B6813F4803FA5D1BE
:100560005F4B1B6813F0020F03D02369012B40F08F
:100570004F815B4A136823F0F803616943EAC103C2
:100580001360236813F0080F32D0A369002B5BD0EF
:10059000554B01221A60FFF727FF0546504B5B6A57
:1005A00013F0020F21D1FFF71FFF401B0228F5D9DE
:1005B000032030E14A4A136823F0F803616943EAF3
:1005C000C1031360DDE7474B00221A60FFF70CFF01
:1005D0000546434B1B6813F0020FD2D0FFF704FF10
:1005E000401B0228F5D9032015E10120FFF702FF87
:1005F000236813F0040F00F09780394BDB6913F088
:10060000805F33D1364BDA6942F08052DA61DB69C0
:1006100003F080530193019B0125344B1B6813F4B5
:10062000807F25D0E368012B36D0002B4CD103F11D
:10063000804303F504331A6A22F001021A621A6A2F
:1006400022F004021A622CE0274B00221A60FFF706
:10065000CBFE0546224B5B6A13F0020FC8D0FFF7B2
:10066000C3FE401B0228F5D90320D4E00025D4E7BF
:100670001E4A136843F480731360FFF7B5FE064605
:100680001A4B1B6813F4807FCCD1FFF7ADFE801BA3
:100690006428F5D90320BEE0114A136A43F0010330
:1006A0001362E36873B3FFF79FFE06460C4B1B6AA9
:1006B00013F0020F37D1FFF797FE801B41F288330A
:1006C0009842F3D90320A6E0052B11D0044B1A6AF7
:1006D00022F001021A621A6A22F004021A62E0E7AA
:1006E000001002400000424280044242007000407C
:1006F0004D4B1A6A42F004021A621A6A42F0010271
:100700001A62CEE7FFF770FE0646474B1B6A13F0EE
:10071000020F08D0FFF768FE801B41F28833984231
:10072000F3D9032077E0E5B9E369002B72D03E4AA4
:10073000526802F00C02082A56D0022B17D03B4B0D
:1007400000221A60FFF750FE0446374B1B6813F077
:10075000007F47D0FFF748FE001B0228F5D9032091
:1007600059E0314AD36923F08053D361DCE72F4B42
:1007700000221A60FFF738FE05462B4B1B6813F06A
:10078000007F06D0FFF730FE401B0228F5D903207A
:1007900041E0236AB3F5803F1AD023494B6823F424
:1007A0007413226A606A024313434B601F4B012299
:1007B0001A60FFF719FE04461B4B1B6813F0007FFD
:1007C0000ED1FFF711FE001B0228F5D9032022E00D
:1007D000154A536823F40033A1680B435360DCE7E8
:1007E000002018E0002016E0012B16D00E4B5B68AD
:1007F00003F48031226A914211D103F47013626ACA
:1008000093420ED1002006E001207047012002E053
:10081000012000E0002002B070BD0120FBE70120B4
:10082000F9E70120F7E700BF0010024060004242F4
:1008300010B487B0164C94E80F000DF1180C0CE9B9
:100840000F00238AADF80430124B5B6803F00C02F2
:10085000082A03D0104807B010BC7047C3F3834286
:10086000624412F8102C13F4803F0CD0094B5B68E3
:10087000C3F34043634413F8143C074800FB02F001
:10088000B0FBF3F0E7E7054800FB02F0E3E700BF49
:10089000D42C00080010024000127A0000093D002C
:1008A000002800F0A08070B50446534B1B6803F08D
:1008B00007038B420BD2504A136823F007030B4304
:1008C0001360136803F007038B4240F08E802368A7
:1008D00013F0020F17D013F0040F04D0474A5368E7
:1008E00043F4E0635360236813F0080F04D0434AD5
:1008F000536843F460535360404A536823F0F00355
:10090000A068034353600D46236813F0010F31D0F4
:100910006368012B20D0022B25D0384A126812F0D0
:10092000020F64D035494A6822F0030213434B603A
:10093000FFF75AFD0646314B5B6803F00C03626813
:10094000B3EB820F16D0FFF74FFD801B41F28833C7
:100950009842F0D9032045E0284A126812F4003F7B
:10096000E0D101203EE0254A126812F0007FD9D183
:10097000012037E0204B1B6803F00703AB420AD984
:100980001D4A136823F007032B431360136803F019
:100990000703AB422DD1236813F0040F06D0174A8A
:1009A000536823F4E063E1680B435360236813F05A
:1009B000080F07D0114A536823F46053216943EAB2
:1009C000C1035360FFF734FF0C4B5B68C3F30313A1
:1009D0000B4AD35CD8400B4B18600B4B1868FFF7E1
:1009E000A9FC002070BD012070470120FAE701201A
:1009F000F8E70120F6E700BF0020024000100240A7
:100A0000402D00080800002004000020014B186859
:100A1000704700BF0800002008B5FFF7F7FF044B40
:100A20005B68C3F30223034AD35CD84008BD00BF10
:100A300000100240502D00080F2303600B4B5A6832
:100A400002F0030242605A6802F0F00282605A68C3
:100A500002F4E062C2605B68DB0803F4E0630361F8
:100A6000034B1B6803F007030B6070470010024044
:100A700000200240F0B482B000263546A0E0002AF3
:100A800058D0012A10D1CE680EE06A4FBA4251D038
:100A900048D9694FBA424DD007F58037BA4249D09C
:100AA000A7F58017BA4245D0FF2B57D88446FF2BB5
:100AB00057D8AC00DCF800200F27A74022EA070235
:100AC00006FA04F42243CCF800204A6812F0805F52
:100AD00075D05A4A946944F001049461926902F015
:100AE00001020192019AAC08A71C554A52F827202E
:100AF00005F00307BF004FF00F0C0CFA07FC22EAC9
:100B00000C0C504A904232D002F58062904271D073
:100B100002F5806290426FD002F58062904224D04C
:100B2000042225E0A7F58017BA4203D007F58037E5
:100B3000BA42B9D18A687AB1012A08D0446108263C
:100B4000B2E7CE680836AFE7CE680C36ACE7046192
:100B50000826A9E70026A7E70426A5E700F1040C6C
:100B6000A5E7A5F10804A400A4E7032200E0002201
:100B7000BA4042EA0C020234314F47F824204A6856
:100B800012F4803F3AD0304C22681A4322604A68FF
:100B900012F4003F38D02C4C62681A4362604A68F5
:100BA00012F4801F36D0284CA2681A43A2604A680B
:100BB00012F4001F34D0244CE2681343E360013583
:100BC0000B6833FA05F231D00124AC4023409C423B
:100BD000F5D14A68122AB7D03FF657AF022AB0D0F3
:100BE0007FF64DAF032AB5D0112A7FF45DAFCE68F2
:100BF000043659E70122BBE70222B9E7124C22680A
:100C000022EA03022260C2E70F4C626822EA030272
:100C10006260C4E70C4CA26822EA0302A260C6E745
:100C2000094CE26822EA0303E360C8E702B0F0BCC3
:100C3000704700BF0000211000003110001002407A
:100C40000000014000080140000401400AB10161B8
:100C50007047090401617047C36801EA030221EA91
:100C6000030141EA0241016170470000074AD3686D
:100C700023F4E0631B041B0C000200F4E060184343
:100C800040F0BF6040F40030D060704700ED00E0FD
:100C900030B4174BDB68C3F30223C3F10704042C01
:100CA00028BF04241D1D062D01D9033B00E00023AD
:100CB0004FF0FF3505FA04F421EA0401994005FAE2
:100CC00003F322EA03031943002809DB0901C9B22F
:100CD00000F1604000F5614080F8001330BC7047BF
:100CE00000F00F000901C9B2024B1954F6E700BF2A
:100CF00000ED00E014ED00E0002807DB00F01F022B
:100D0000400901239340024A42F82030704700BF57
:100D100000E100E07047000090F83D30DBB2012BAD
:100D200027D1022380F83D300268D36843F00103E5
:100D3000D3600368114A934210D0B3F1804F0DD0B5
:100D4000A2F59432934209D002F58062934205D015
:100D50001A6842F001021A60002070479A6802F097
:100D60000702062A07D01A6842F001021A60002022
:100D70007047012070470020704700BF002C0140E1
:100D8000704770477047704710B5044603681A698A
:100D900012F0020F11D0DA6812F0020F0DD06FF0CE
:100DA00002021A610123037703689B6913F0030FA2
:100DB00070D0FFF7E6FF0023237723681A6912F04B
:100DC000040F12D0DA6812F0040F0ED06FF0040294
:100DD0001A610223237723689B6913F4407F5FD055
:100DE0002046FFF7CEFF0023237723681A6912F00D
:100DF000080F12D0DA6812F0080F0ED06FF0080258
:100E00001A61042323772368DB6913F0030F4ED0A4
:100E10002046FFF7B6FF0023237723681A6912F0F4
:100E2000100F12D0DA6812F0100F0ED06FF010020F
:100E30001A61082323772368DB6913F4407F3DD0D0
:100E40002046FFF79EFF0023237723681A6912F0DC
:100E5000010F03D0DA6812F0010F36D123681A6946
:100E600012F0800F03D0DA6812F0800F34D12368BB
:100E70001A6912F0400F03D0DA6812F0400F32D135
:100E800023681A6912F0200F03D0DA6812F0200FDD
:100E900030D110BDFFF774FF2046FFF773FF8AE7DC
:100EA0002046FFF76DFF2046FFF76CFF9BE72046CB
:100EB000FFF766FF2046FFF765FFACE72046FFF728
:100EC0005FFF2046FFF75EFFBDE76FF001021A618A
:100ED0002046FFF73DF9C1E76FF080021A61204616
:100EE00000F077F8C3E76FF040021A612046FFF781
:100EF0004AFFC5E76FF020021A61204600F068F84B
:100F0000C7E7000003681B4A90420AD0B0F1804F47
:100F100007D0A2F59432904203D002F5806290424D
:100F200003D123F070034A681343124A90420AD057
:100F3000B0F1804F07D0A2F59432904203D002F571
:100F40008062904203D123F44073CA68134323F0B4
:100F500080034A69134303608B68C3620B68836232
:100F6000044B984202D00123436170470B6903632D
:100F7000F9E700BF002C014040B310B5044690F8DB
:100F80003D30F3B1022384F83D30214651F8040B83
:100F9000FFF7B8FF012384F8463084F83E3084F828
:100FA0003F3084F8403084F8413084F8423084F88F
:100FB000433084F8443084F8453084F83D300020D4
:100FC00010BD80F83C30FFF7A5FEDBE7012070473D
:100FD00070477047704700F1080343604FF0FF32DD
:100FE0008260C360036100230360704700230361D4
:100FF000704743684B609A688A60516099600861E5
:10100000036801330360704730B40D68B5F1FF3FEA
:1010100002D000F1080202E0026904E01A465368B7
:101020001C68AC42FAD953684B6099608A60516081
:10103000086103680133036030BC7047036941688D
:1010400082688A60416851605A68824206D00022F4
:1010500002611A68013A1A601868704782685A601B
:10106000F5E710B5044601F0ADFCA26BE36B9A42C4
:1010700004D0002401F0C8FC204610BD0124F9E78B
:1010800010B5044601F09EFCA36B23B9012401F0C6
:10109000BBFC204610BD0024F9E770B50446164697
:1010A000856B026C5AB903681BB100200135A5633A
:1010B00070BD406800F0BEFF00236360F6E76EB9C4
:1010C000806801F0E5FD226CA3681344A3606268A8
:1010D000934219D32368A3603046E7E7C06801F064
:1010E000D7FD226C5242E3681344E36021688B42CF
:1010F00002D263681A44E260022E01D00020D5E7D4
:1011000025B1013D0020D1E73046CFE70020CDE7F3
:10111000026C72B110B5C3681344C3604468A34243
:1011200001D30368C3600C46C168204601F0B0FDDE
:1011300010BD704738B5054601F044FC95F84540B0
:1011400064B203E000F060FF013C64B2002C08DDF3
:101150006B6A33B105F1240000F0C2FE0028F3D021
:10116000F0E7FF2385F8453001F04EFC01F02AFC42
:1011700095F8444064B203E000F046FF013C64B2DD
:10118000002C08DD2B6933B105F1100000F0A8FE3A
:101190000028F3D0F0E7FF2385F8443001F034FC59
:1011A00038BD000038B5E0B104460D4601F00AFC38
:1011B0002168E26B236C03FB021060600020A063D7
:1011C000A160013A02FB0313E360FF2384F844307B
:1011D00084F84530EDB9236963B901F015FC0120AD
:1011E00038BD4FF0500383F31188BFF36F8FBFF307
:1011F0004F8FFEE704F1100000F072FE0028ECD0E3
:10120000084B4FF080521A60BFF34F8FBFF36F8FC0
:10121000E3E704F11000FFF7DEFE04F12400FFF71E
:10122000DAFEDAE704ED00E038B51D46049C0B4613
:1012300049B92460E063236401212046FFF7B2FF2F
:1012400084F84C5038BD2260F4E740B94FF05003A9
:1012500083F31188BFF36F8FBFF34F8FFEE710B595
:1012600084B0044653B192B189B94FF0500383F36F
:101270001188BFF36F8FBFF34F8FFEE74FF050031E
:1012800083F31188BFF36F8FBFF34F8FFEE76AB10F
:10129000502003900398502813D04FF0500383F34D
:1012A0001188BFF36F8FBFF34F8FFEE70029EFD098
:1012B0004FF0500383F31188BFF36F8FBFF34F8F4D
:1012C000FEE720461C46012384F8463000949DF832
:1012D0001830FFF7A9FF204604B010BDF0B585B067
:1012E000019278B10446B1B1022B20D1E26B012A00
:1012F0001DD04FF0500383F31188BFF36F8FBFF3FE
:101300004F8FFEE74FF0500383F31188BFF36F8FC9
:10131000BFF34F8FFEE7026C002AE5D04FF0500379
:1013200083F31188BFF36F8FBFF34F8FFEE71D4626
:101330000E4600F06FFE074658B9019B002B44D0C3
:101340004FF0500383F31188BFF36F8FBFF34F8FBC
:10135000FEE7002739E02A4631462046FFF79DFE8A
:10136000636A6BB938B13C4B4FF080521A60BFF3DF
:101370004F8FBFF36F8F01F047FB012005B0F0BD29
:1013800004F1240000F0ACFD0028F4D0324B4FF003
:1013900080521A60BFF34F8FBFF36F8FEBE701F0FE
:1013A00033FB0020EAE702A800F0E0FD012719E086
:1013B000002384F8443021E0002384F8453023E002
:1013C0002046FFF7B7FE00F069FC01F0FBFAA26BC4
:1013D000E36B9A42BFD3022DBDD0019B002BDED020
:1013E000002FE0D001F010FB00F0BEFB01F0EAFAA4
:1013F00094F844305BB2B3F1FF3FD9D094F8453054
:101400005BB2B3F1FF3FD7D001F0FEFA01A902A809
:1014100000F0B8FDC8B92046FFF723FE0028CFD062
:10142000019904F1100000F027FD2046FFF782FE2D
:1014300000F034FC0028C8D1074B4FF080521A60EE
:10144000BFF34F8FBFF36F8FBFE72046FFF772FEEA
:1014500000F024FC002091E704ED00E02DE9F843C2
:1014600078B10446B1B1022B20D1E06B01281DD028
:101470004FF0500383F31188BFF36F8FBFF34F8F8B
:10148000FEE74FF0500383F31188BFF36F8FBFF374
:101490004F8FFEE7006C0028E5D04FF0500383F338
:1014A0001188BFF36F8FBFF34F8FFEE71F46904643
:1014B000894601F075FBEFF311864FF0500383F37B
:1014C0001188BFF36F8FBFF34F8FA26BE36B9A420C
:1014D00006D3022F04D0002086F31188BDE8F883DC
:1014E00094F845506DB23A4649462046FFF7D5FD7F
:1014F000B5F1FF3F05D06B1C5BB284F8453001208D
:10150000EAE7636A0BB90120E6E704F1240000F082
:10151000E7FC30B1B8F1000F05D00120C8F8000099
:10152000DAE70120D8E70120D6E70000F0B585B062
:10153000019290B10446C9B10E4600F06BFD07461A
:1015400000BB019B002B5CD04FF0500383F311884C
:10155000BFF36F8FBFF34F8FFEE74FF0500383F35E
:101560001188BFF36F8FBFF34F8FFEE7036C002B23
:10157000E2D04FF0500383F31188BFF36F8FBFF3B6
:101580004F8FFEE700273CE031462046FFF7C0FDC5
:10159000013DA563236923B901F036FA012005B0A6
:1015A000F0BD04F1100000F09BFC0028F4D0354B96
:1015B0004FF080521A60BFF34F8FBFF36F8FEBE78E
:1015C00001F022FA0020EAE702A800F0CFFC012790
:1015D00021E0002384F8443029E0002384F84530DA
:1015E0002BE02046FFF7A6FD00F058FB09E020465F
:1015F000FFF7A0FD00F052FB2046FFF741FD002859
:101600003DD101F0DFF9A56B002DBDD1019B002B71
:10161000D6D0002FD8D001F0F7F900F0A5FA01F0EC
:10162000D1F994F844305BB2B3F1FF3FD1D094F8D4
:1016300045305BB2B3F1FF3FCFD001F0E5F901A92E
:1016400002A800F09FFC0028D1D12046FFF718FD2A
:101650000028C6D0019904F1240000F00DFC2046BA
:10166000FFF768FD00F01AFB0028CAD1054B4FF0C8
:1016700080521A60BFF34F8FBFF36F8FC1E7002016
:101680008DE700BF04ED00E00023072B0CD8074ACC
:1016900052F833200AB10133F7E7044A42F8331015
:1016A00002EBC30358607047704700BF84190020E5
:1016B00070B504460D46164601F084F994F844309E
:1016C0005BB2B3F1FF3F0DD094F845305BB2B3F19C
:1016D000FF3F0BD001F098F9A36B5BB12046FFF7F9
:1016E00029FD70BD002384F84430EDE7002384F821
:1016F0004530EFE73246294604F1240000F0D4FBE0
:10170000ECE70000084B1B681B6823B9074B4FF040
:10171000FF321A607047044B1B68DB68DB685A684D
:10172000024B1A60704700BF30000020D804002030
:101730002DE9F04781460D4617469A46089EDDF88A
:1017400024800A9C9200A521206B01F0AFFA236B44
:1017500007F18042013A03EB820727F007070023D5
:101760000F2B06D8EA5CE11881F834200AB1013366
:10177000F6E7002384F84330372E00D93726E66297
:10178000E66400252565201DFFF730FC04F11800F4
:10179000FFF72CFC2461C6F13806A661646265651A
:1017A00084F8585052464946384601F0E7F8206020
:1017B000B8F1000F01D0C8F80040BDE8F087000084
:1017C00038B50024372C08D804EB840293000E4867
:1017D0001844FFF700FC0134F4E70C4D2846FFF7EE
:1017E000FAFB0B4C2046FFF7F6FB0A48FFF7F3FB2A
:1017F0000948FFF7F0FB0948FFF7EDFB084B1D60B8
:10180000084B1C6038BD00BF38000020B004002029
:10181000C4040020E00400200C050020F80400208F
:10182000300000203400002010B5044601F0CAF852
:10183000214A136801331360204B1B685BB1204BB6
:101840001B686BB91D4B1B68DA6AE36A9A4207D8BA
:101850001A4B1C6004E0194B1C601368012B27D045
:10186000184A1368013313606364E36A164A126806
:10187000934201D9144A136003EB83039A00211D9C
:1018800012481044FFF7B5FB01F0BEF80C4B1B6883
:101890006BB10A4B1B68DA6AE36A9A4207D20C4BB7
:1018A0004FF080521A60BFF34F8FBFF36F8F10BDA0
:1018B000FFF786FFD4E700BF980400202C0000202B
:1018C000F4040020A8040020AC040020380000200C
:1018D00004ED00E010B5044690F8593063B1012BD7
:1018E00011D0022B0ED04FF0500383F31188BFF3B9
:1018F0006F8FBFF34F8FFEE7006B00F0D7FF2046DE
:1019000000F0D4FF10BD00F0D1FFFBE70F4B1B68C8
:10191000D3B110B501F056F80D4BDB68DC68201D23
:10192000FFF78CFB0B4A1368013B1360074A1368EF
:10193000013B136001F068F82046FFF7CBFF034B33
:101940001B68002BE6D110BD704700BF9C0400202F
:101950000C0500209804002008B5FFF7D7FF064BC0
:101960001B68012BF9D9054B4FF080521A60BFF369
:101970004F8FBFF36F8FF0E73800002004ED00E0D9
:1019800070B504460E46174B1D68174B1868043097
:10199000FFF754FBB4F1FF3F0DD02C44124B1B68F2
:1019A0005C60A54210D9114B18680F4B19680431BF
:1019B000FFF72AFB70BD002EEFD00B4B19680431E6
:1019C0000B48FFF716FBF5E70A4B1868064B19683A
:1019D0000431FFF719FB084B1B68A342EAD9064BF9
:1019E0001C60E7E7200500202C00002034000020C8
:1019F000F804002030000020D804002070B586B024
:101A00000B9D0C9C75B1B4B15C260496049E5C2EB3
:101A10001AD04FF0500383F31188BFF36F8FBFF3D9
:101A20004F8FFEE74FF0500383F31188BFF36F8FA2
:101A3000BFF34F8FFEE74FF0500383F31188BFF3DE
:101A40006F8FBFF34F8FFEE72563022584F859504F
:101A500000250395029405AD01950A9D0095FFF7B9
:101A600067FE2046FFF7E0FE059806B070BD2DE941
:101A7000F04385B00746884615469946900000F029
:101A800091FEF8B106465C2000F08CFE0446A8B139
:101A90000663E4B1002384F85930039302940D9B4C
:101AA00001930C9B00934B462A4641463846FFF76C
:101AB0003FFE2046FFF7B8FE012005E0304600F06B
:101AC000F5FEE6E74FF0FF3005B0BDE8F0834FF0DC
:101AD000FF30F9E710B588B000240594069407AAF2
:101AE00006A905A800F0E8FD059B0293069B01935B
:101AF00000942346079A17491748FFF77FFF40B124
:101B000000F04CFB012806D0B0F1FF3F18D008B020
:101B100010BD0020F6E74FF0500383F31188BFF3A8
:101B20006F8FBFF34F8F0D4B4FF0FF321A600C4B8E
:101B300001221A600B4B00221A6000F0D5FFE6E785
:101B40004FF0500383F31188BFF36F8FBFF34F8FB4
:101B5000FEE700BF582D000859190008D8040020DE
:101B6000F404002020050020024A136801331360AA
:101B7000704700BFA4040020014B1868704700BFE5
:101B800020050020F8B53A4B1B68002B65D1394B76
:101B90001D6801351D60C5B9374B1B681B6843B113
:101BA0004FF0500383F31188BFF36F8FBFF34F8F54
:101BB000FEE7314A1168314B186810601960304AED
:101BC000136801331360FFF79DFD2E4B1B68AB427A
:101BD0000CD900242C4B1B68DB6A03EB83039A00AF
:101BE0002A4B9B58012B3DD901243BE0002416E0F1
:101BF000244B4FF0FF321A60ECE7224A1360E9E70A
:101C000003EB83039A00394620481044FFF7F1F9AB
:101C1000F26A1D4B1B68DB6A9A4200D30124164B03
:101C20001B681B68002BE3D0134B1B68DB68DE6866
:101C300073689D42E1D3371D3846FFF7FFF9B36A59
:101C40001BB106F11800FFF7F9F9F36A104A1268A0
:101C50009342D5D90E4A1360D2E70E4A1368013376
:101C6000136000240C4B1B6803B101242046F8BD0F
:101C7000A4040020200500203000002034000020B3
:101C8000DC040020D80400202C00002038000020B4
:101C9000AC040020A00400202405002038B5344BFB
:101CA0001B6843B94FF0500383F31188BFF36F8F64
:101CB000BFF34F8FFEE700F085FE2D4B1A68013A07
:101CC0001A601B68002B4DD12A4B1B680BB90024EE
:101CD00049E00024284B1B681BB3274BDB68DC68FA
:101CE00004F11800FFF7AAF9251D2846FFF7A6F909
:101CF000E36A224A1268934201D9204A136003EB37
:101D000083039A0029461E481044FFF772F9E26ADD
:101D10001C4B1B68DB6A9A42DCD31B4B01221A6006
:101D2000D8E70CB1FFF7EEFC184B1C6874B9164BE2
:101D30001C68C4B1164B4FF080521A60BFF34F8F2E
:101D4000BFF36F8F01240EE0013C07D0FFF71AFFAD
:101D50000028F9D00C4B01221A60F5E70B4B00224A
:101D60001A60E4E7002400F04FFE204638BD00BFB3
:101D7000A404002098040020E0040020AC0400200B
:101D8000380000202C00002024050020A0040020A2
:101D900004ED00E010B5A8B104460F4B1B6843B139
:101DA0004FF0500383F31188BFF36F8FBFF34F8F52
:101DB000FEE7FFF7D9FE00212046FFF7E1FDFFF720
:101DC0006DFF38B9054B4FF080521A60BFF34F8F4B
:101DD000BFF36F8F10BD00BFA404002004ED00E02E
:101DE000204B1B681BB1204B01221A6070471E4B11
:101DF00000221A601D4B1B6803EB83018A001C49FB
:101E00008A585AB90BB1013BF6E74FF0500383F300
:101E10001188BFF36F8FBFF34F8FFEE710B40846F2
:101E20009A00D418A10001444C6864684C601A44BC
:101E300091000831084484420CD003EB83029100E6
:101E40000B4A0A445268D1680A4A1160074A136073
:101E500010BC7047606803EB83029100044A0A4497
:101E60005060EAE7A404002024050020AC04002010
:101E7000380000202C00002058B110B50C46094B4A
:101E800019681831FFF7C0F801212046FFF778FDE7
:101E900010BD4FF0500383F31188BFF36F8FBFF372
:101EA0004F8FFEE72C00002038B570B10C46154668
:101EB0000A4A11681831FFF79CF80DB14FF0FF3452
:101EC00029462046FFF75CFD38BD4FF0500383F3F1
:101ED0001188BFF36F8FBFF34F8FFEE72C000020F8
:101EE00038B5C368DC6824B304F118052846FFF749
:101EF000A5F8184B1B682BBB251D2846FFF79EF83D
:101F0000E36A154A1268934201D9134A136003EB3E
:101F100083039A00294611481044FFF76AF8E26AE1
:101F20000F4B1B68DB6A9A4211D901200D4B1860D8
:101F30000EE04FF0500383F31188BFF36F8FBFF3B0
:101F40004F8FFEE729460848FFF753F8E7E70020E0
:101F500038BD00BFA4040020AC04002038000020DD
:101F60002C00002024050020E0040020034B1B6807
:101F70000360034B1B684360704700BFDC04002014
:101F800020050020F8B5C8B1054601B30C4600F0A5
:101F900019FD1B4B19686B68C81A2268B2F1FF3F24
:101FA00026D02F68174E3668B74201D08B4224D90D
:101FB000824215D80023236001241AE04FF0500319
:101FC00083F31188BFF36F8FBFF34F8FFEE74FF09E
:101FD000500383F31188BFF36F8FBFF34F8FFEE77A
:101FE0005B1A134423602846FFF7C0FF002400E07B
:101FF000002400F009FD2046F8BD0124F9E700BFE8
:1020000020050020DC040020014B01221A607047EB
:1020100024050020054B1B6833B1054B1B680BB131
:10202000002070470220704701207047F404002010
:10203000A404002000283BD038B504461E4A12688C
:10204000824208D04FF0500383F31188BFF36F8FA3
:10205000BFF34F8FFEE7026D42B94FF0500383F399
:102060001188BFF36F8FBFF34F8FFEE7013A026510
:10207000C06AE16C88421DD00AB1002038BD251D20
:102080002846FEF7DBFFE36CE362C3F13802A2618E
:102090000A4A1268934201D9084A136003EB83038A
:1020A0009A00294606481044FEF7A3FF0120E5E701
:1020B000002070470020E1E72C000020AC04002045
:1020C00038000020064B1A681368B3FA83F35B09E3
:1020D000036013B9D368186870470020704700BFC9
:1020E0002805002008B54160006191420CD8D21A41
:1020F00083699A4201D3012008BD011D094B18686C
:10210000FEF782FF0020F7E79A4201D2994206D2F9
:10211000011D054B1868FEF777FF0020ECE7012052
:10212000EAE700BF2C0500202805002030B583B069
:1021300000F048FC114B1B681BB100F065FC03B0BC
:1021400030BD0F4D2846FEF746FF0E4C2046FEF7E9
:1021500042FF0D4B1D600D4B1C60002300930C4B88
:102160000C4A10210A20FFF770F8044B1860002871
:10217000E3D00949FFF788FADFE700BF4C060020EB
:10218000D0050020E4050020280500202C050020B3
:10219000FC05002030050020602D000810B588B037
:1021A000FFF7C4FF124B1B68CBB1002405940694C3
:1021B00007AA06A905A800F08BFA059B0293069BC7
:1021C0000193022300932346079A0A490A48FFF71E
:1021D00015FC0A4B186010B1012008B010BD4FF07B
:1021E000500383F31188BFF36F8FBFF34F8FFEE768
:1021F0004C060020682D0008E1240008500600204D
:10220000C0B130B585B015460446174A106840B3D2
:102210001A4600910195029405291CDCFFF7FAFE8D
:10222000022810D000231A4669460F480068FFF7BD
:1022300055F814E04FF0500383F31188BFF36F8F0C
:10224000BFF34F8FFEE70023089A694606480068EF
:10225000FFF744F803E000236946FFF7FFF805B0F5
:1022600030BD0020FBE700BF4C06002070B582B0F7
:102270001A4B1B681A6852B3DB681E68DC68251DA0
:102280002846FEF7DBFE636A20469847E369012B88
:10229000EED1A36933449E4207D26360246129468C
:1022A0000E4B1868FEF7B0FEE2E7002100910B46E6
:1022B00032462046FFF7A4FF0028D9D14FF0500343
:1022C00083F31188BFF36F8FBFF34F8FFEE7044A8C
:1022D000106802490860136002B070BD2805002034
:1022E0002C05002038B50546FFF746FC0446074B91
:1022F0001B68834205D800232B60044B1C602046DA
:1023000038BDFFF7B3FF01232B60F6E7F805002087
:1023100070B582B005460E46144B1B68DB68DC685E
:10232000201DFEF78BFEE369012B04D0636A204673
:10233000984702B070BDA1692B4632462944204619
:10234000FFF7D0FE0028F1D0002100910B462A466D
:102350002046FFF755FF0028E8D14FF0500383F3E4
:102360001188BFF36F8FBFF34F8FFEE72805002062
:1023700070B582B006460C46FFF7F6FB01A8FFF7E2
:10238000B1FF019B1BBB05460CB9B04218D22CB162
:10239000114B1B681C68B4FA84F464092246711B53
:1023A0000E4B1868FFF784F9FFF778FC88B90C4BDF
:1023B0004FF080521A60BFF34F8FBFF36F8F08E06A
:1023C000FFF76CFC29463046FFF7A2FF01E0FFF75C
:1023D00065FC02B070BD00BF2C0500204C0600203B
:1023E00004ED00E030B589B006E007990698059B3A
:1023F0009847049B002B0BDA002204A9374B18687E
:10240000FFF794F8002866D0049B002BF1DAECE784
:10241000069C636913B1201DFEF710FE03A8FFF7A9
:1024200061FF049B092BE7D801A252F823F000BFFB
:10243000592400085924000859240008F9230008E9
:10244000A1240008C72400085924000859240008C2
:10245000F9230008A12400080599A5690B46024646
:1024600029442046FFF73EFE0028C5D0636A204677
:102470009847E369012BBFD1A269002100910B4667
:10248000059802442046FFF7BBFE0028B4D14FF068
:10249000500383F31188BFF36F8FBFF34F8FFEE7B5
:1024A0000599A16131B10346024601442046FFF778
:1024B00019FEA1E74FF0500383F31188BFF36F8F2C
:1024C000BFF34F8FFEE794F82C30002B94D12046B9
:1024D00000F0ECF990E709B030BD00BF4C060020D9
:1024E00000B583B001A8FFF7EDFD0199FFF740FFAC
:1024F000FFF778FFF6E70000EFF3058393B9EFF3FA
:10250000108393B90C4B1868022804D080B90A4B89
:1025100001221A607047EFF31183002BF6D06FF0A1
:10252000050070476FF0050070476FF005007047B9
:102530004FF0FF30704700BFB008002008B5EFF340
:102540000583B3B9EFF31083B3B90E4B1B68022BAD
:1025500008D0012B13D10B4B02221A60FFF7BAFAF5
:10256000002008BDEFF31182002AF2D06FF00500C1
:10257000F7E76FF00500F4E76FF00500F1E74FF0C3
:10258000FF30EEE7B0080020F0B587B000240494D7
:10259000EFF30584002C43D1EFF31083002B3FD1E0
:1025A000334B1B68022B21D0002839D000238DF833
:1025B000173062B31668EEB1946904B91824631E2B
:1025C000372B51D8536813F0010F4FD15569A5B17E
:1025D0004FEA950C93682BB1D7685B2F02D9176926
:1025E00007B105BB63B14FF0FF3516E0EFF3118380
:1025F000B3B9D9E70DF11706DEE74FF0800CE9E734
:10260000D36893B913699BB14FF0FF3505E00025FE
:1026100018244FF0800C0DF11706012D0AD0ADB132
:10262000049807B0F0BD0125F7E74FF0FF35F4E758
:102630000025F2E7136992680292019300940B4619
:1026400062463146FFF7DAF90490E9E704AA0192FD
:1026500000940B461FFA8CF23146FFF708FA012866
:10266000DED000230493DBE70020DAE70020D8E780
:10267000B008002008B5EFF30583A3B9EFF310838A
:10268000A3B90C4B1B68022B02D040B9002008BD37
:10269000EFF31183002BF8D06FF00500F7E7FFF799
:1026A00079FB0020F3E76FF00500F0E76FF005001D
:1026B000EDE700BFB0080020034B0360034B0B6045
:1026C00080231360704700BF540800205406002088
:1026D000034B0360034B0B604FF480731360704730
:1026E000B40C0020B4080020124A12F0070F07D0E3
:1026F000D11D21F00701C1F5406313440A4601E0F2
:102700004FF440630C480260002141601344083BD1
:1027100023F007030948036059601960991A516052
:102720001360074B1960074B1960074B4FF00042CD
:102730001A607047140D002020190020100D002091
:102740001C190020181900201419002010B4134A75
:1027500000E01A4613688342FBD351685418844240
:1027600009D041684418A3420AD00360904200D0C7
:10277000106010BC70474068014451601046F0E79B
:10278000074C2468A34206D05B6819444160136873
:102790001B680360EAE70460E8E700BF2019002037
:1027A000100D002070B50446FFF7DEF93A4B1B68A8
:1027B000BBB13A4B1B681C4256D1ACB1083414F083
:1027C000070F11D024F00704083404F007035BB1AD
:1027D0004FF0500383F31188BFF36F8FBFF34F8F18
:1027E000FEE7FFF781FFE4E7002C3FD02C4B1B688E
:1027F000A3424AD32B4B1D6801E02B4615466A685D
:10280000A24202D22A68002AF7D1234A1268AA42B9
:102810003DD01E6808362A681A606B681B1B102B97
:1028200010D9281910F0070F08D04FF0500383F388
:102830001188BFF36F8FBFF34F8FFEE743606C606B
:10284000FFF784FF6A6816490B689B1A0B601649EC
:1028500009688B4201D214490B60104B1B6813436B
:102860006B6000232B6002E0002600E00026FFF7EB
:1028700015FA16F0070F0CD04FF0500383F31188B0
:10288000BFF36F8FBFF34F8FFEE70026EFE7002601
:10289000EDE7304670BD00BF100D00201419002078
:1028A00018190020201900201C19002080B338B509
:1028B0000446A0F1080550F8042C164909680A429C
:1028C00008D14FF0500383F31188BFF36F8FBFF32C
:1028D0004F8FFEE750F8080C40B14FF0500383F3E0
:1028E0001188BFF36F8FBFF34F8FFEE722EA01021B
:1028F00044F8042CFFF738F954F8041C064A13680E
:102900000B4413602846FFF721FFFFF7C7F938BDD6
:10291000704700BF141900201819002082B000234E
:1029200001930D4B1B68B3F1FF3F08D04FF05003EC
:1029300083F31188BFF36F8FBFF34F8FFEE74FF024
:10294000500383F31188BFF36F8FBFF34F8F019B49
:10295000002BFCD002B070470C0000200648006835
:10296000006880F3088862B661B6BFF34F8FBFF38B
:102970006F8F00DF00BF000008ED00E04FF08073B4
:1029800040F8043C21F0010140F8081C034B40F8DA
:102990000C3C40F8202C4038704700BF1D2900082F
:1029A000074B19680868B0E8F00F80F30988BFF397
:1029B0006F8F4FF0000080F311884EF00D0E7047BE
:1029C0002C0000204FF0500383F31188BFF36F8F6A
:1029D000BFF34F8F0A4A136801331360012B00D0F5
:1029E0007047084B1B6813F0FF0FF9D04FF05003EE
:1029F00083F31188BFF36F8FBFF34F8FFEE700BFE4
:102A00000C00002004ED00E0094B1B6843B94FF0B7
:102A1000500383F31188BFF36F8FBFF34F8FFEE72F
:102A2000013B034A13600BB983F31188704700BF61
:102A30000C0000200000000000000000000000006A
:102A4000EFF30980BFF36F8F0D4B1A6820E9F00F89
:102A500010602DE908404FF0500080F31188FFF717
:102A6000BFF94FF0000080F31188BDE808401968F5
:102A70000868B0E8F00F80F30988BFF36F8F7047E4
:102A80002C00002008B54FF0500383F31188BFF3EA
:102A90006F8FBFF34F8FFFF775F818B1034B4FF0EF
:102AA00080521A60002383F3118808BD04ED00E012
:102AB000084A0023136008490B60084B1B6808494B
:102AC000A1FB03139B09013B06490B60072313601D
:102AD000704700BF10E000E018E000E008000020B0
:102AE000D34D621014E000E010B582B0274B1A7885
:102AF000D2B20192FF221A701B78DBB28DF803303C
:102B00009DF8033003F05003214A1370214B072234
:102B10001A609DF8033013F0800F0AD01D4A136825
:102B2000013B13609DF803305B00DBB28DF803308E
:102B3000EFE7184B1B68032B08D04FF0500383F3CB
:102B40001188BFF36F8FBFF34F8FFEE71B0203F4B3
:102B5000E063104A1360019BDBB20C4A13700E4B0A
:102B60001A6842F470021A601A6842F070421A60E1
:102B7000FFF79EFF0024094B1C60FFF7EFFEFFF7F5
:102B80002FF9FFF7CBFE204602B010BD00E400E0B5
:102B9000281900202C19002020ED00E00C00002056
:102BA000EFF305830F2B0FD9104A9B5CDBB2104A61
:102BB00012789A4208D94FF0500383F31188BFF37B
:102BC0006F8FBFF34F8FFEE70A4B1B6803F4E06380
:102BD000094A1268934208D94FF0500383F31188D1
:102BE000BFF36F8FBFF34F8FFEE77047F0E300E056
:102BF000281900200CED00E02C1900200C480D498C
:102C00000D4A002302E0D458C4500433C4188C4247
:102C1000F9D30A4A0A4C002301E013600432A242AD
:102C2000FBD3FEF7D7F900F00FF8FDF7C8FA7047AD
:102C30000000002010000020782D00081000002067
:102C4000C4190020FEE7000070B500260C4D0D4CA5
:102C5000641BA410A64209D100F030F800260A4DEA
:102C60000A4C641BA410A64205D170BD55F8043B64
:102C700098470136EEE755F8043B98470136F2E7EE
:102C8000702D0008702D0008702D0008742D0008AC
:102C90000A44914200F1FF3300D1704710B511F89A
:102CA000014B914203F8014FF9D110BD0346024494
:102CB000934200D1704703F8011BF9E7F8B500BF54
:102CC000F8BC08BC9E467047F8B500BFF8BC08BC0D
:042CD0009E46704765
:102CD40002030405060708090A0B0C0D0E0F101059
:102CE40001020000382D0008000000000000000070
:102CF40000000000000000000002000018000000B6
:102D04000000000000000000302D0008000000005A
:102D140000000000000000000000000000020000AD
:102D2400080000000000000000000000626C696EF2
:102D34006B303200626C696E6B3031000000000051
:102D44000000000001020304060708090000000057
:102D54000102030449444C4500000000546D7251C3
:0C2D640000000000546D722053766300E4
:042D70003501000821
:042D74001101000841
:102D780001000000100000000024F400AAAAAAAA7A
:0400000508002BFDC7
:00000001FF
