:020000040800F2
:10000000D8050020650100080B23000887200008A0
:100010000923000815060008D52600080000000086
:100020000000000000000000000000000F23000896
:100030007F060008000000000D23000811230008BF
:100040007F0100087F0100087F0100087F01000890
:100050007F0100087F0100087F0100087F01000880
:100060007F0100087F0100087F0100087F01000870
:100070007F010008490600087F0100087F01000891
:100080007F0100087F0100087F01000825060008A5
:10009000190600087F0100087F0100087F010008A1
:1000A0007F0100087F0100087F0100087F01000830
:1000B0007F0100087F0100087F0100087F01000820
:1000C0007F0100087F0100087F0100087F01000810
:1000D0007F0100087F0100087F0100087F01000800
:1000E0007F0100087F0100087F0100080000000078
:1000F0000000000000000000000000000000000000
:1001000000000000000000007F0100087F010008DF
:100110007F0100087F0100087F0100087F010008BF
:100120007F0100087F0100087F0100087F010008AF
:100130007F01000800000000000000003D060008EC
:10014000310600087F0100087F0100087F010008D8
:10015000DFF80CD000F04CFA004800474D270008AB
:10016000D80500200648804706480047FEE7FEE71E
:10017000FEE7FEE7FEE7FEE7FEE7FEE7FEE7FEE757
:100180007D230008510100082DE9F05F054600209D
:1001900092469B4688460646814640241BE02846F8
:1001A00041464746224600F020F853465A46C01AB8
:1001B000914110D311461846224600F09AF92D1AA3
:1001C00067EB01084F4622460120002100F091F91B
:1001D00017EB00094E41201EA4F10104DFDC484664
:1001E00031462A464346BDE8F09F202A04DB203AE8
:1001F00021FA02F00021704721FA02F3D040C2F147
:100200002002914008431946704740EA01039B07CA
:1002100003D009E008C9121F08C0042AFAD203E07B
:1002200011F8013B00F8013B521EF9D27047D2B2DF
:1002300001E000F8012B491EFBD270470022F6E7CF
:1002400010B513460A4604461946FFF7F0FF20464C
:1002500010BD2DE9FE4F804681EA0300C00F0C4619
:10026000009021F0004123F00045B8EB0200A941C5
:1002700005D24046214690461C460B46024623F0D6
:100280000040104347D0270DC7F30A00C3F30A51BB
:100290000290401A019040286BDAC3F3130040F437
:1002A000801B0098924620B10023D2EB030A63EB37
:1002B0000B0B01985946C0F14002504600F019F965
:1002C00006460D4650465946019A00F021F910EBBA
:1002D00008006141002487EA115284EAE7731A4357
:1002E00040D0009A62B3019A012A4FEA075215DC06
:1002F000001B61EB02014FF0004202EA0752CDE918
:100300000042001C41F5801132462B4600F021F9D5
:1003100003B0BDE8F08F40462146F9E7001B61EBD2
:100320000201001C41F5801300185B412018A2F562
:10033000001747EB030140EAD570B6196D4111E093
:100340006D084FEA360645EAC0754FEA0752001BB2
:1003500061EB0201001C41F5801149084FEA3000B1
:100360000019514132462B4603B0BDE8F04F00F072
:10037000E1B80098012240000023D0EB020263EBB9
:10038000E073009821464FEAE074B8EB000061EB9F
:100390000401E9E783F000435BE781F0004158E79F
:1003A0002DE9FE4F81EA030404F0004421F00041EE
:1003B00000944FF0000B23F0004350EA01045ED09C
:1003C00052EA03045BD0C3F30A54C1F30A552C4428
:1003D000A4F2F3340194A0FB0254C1F3130141F4DD
:1003E0008011C3F3130343F4801301FB024400FBA9
:1003F000034E840A970A44EA815447EA8357A4FBD0
:10040000076802958D0A05FB07854FEA932C04FBCC
:100410000C542705029D4FEA065847EA1637B5EBFC
:1004200008056EEB070C870E920E47EA811742EA29
:100430008312A7FB0201B6EB0B0164EB00042B0D4A
:1004400043EA0C335E1844EB1C50DA465146E7FB96
:100450000201C5F313044FEA0B3343EA14534FEA86
:100460000432019C43EA0603A4F10C040294009CAC
:10047000CDE900B400F06DF803B0BDE8F08F0020C6
:100480000146F9E70EB5C10F80EAE0700844CA07DB
:10049000002140F233438DE80E000A460B4600F07F
:1004A00058F803B000BD0EB540F23341029100216F
:1004B000CDE900110A460B4600F04BF803B000BD31
:1004C000C1F30A5210B5C1F3130140F2FF3341F4F6
:1004D00080119A4201DA002010BD40F233439A4263
:1004E000A2F2334203DC5242FFF77FFE10BD904080
:1004F00010BD202A04DB203A00FA02F100207047E8
:100500009140C2F1200320FA03F319439040704751
:10051000202A06DBCB17203A41FA02F043EAE073C7
:1005200006E041FA02F3D040C2F1200291400843B4
:100530001946704710B5141E73F1000408DA401C08
:1005400041F1000192185B411A4301D120F00100F2
:1005500010BD2DE9F04D92469B4611B1B1FA81F2E2
:1005600002E0B0FA80F220329046FFF7C2FF044664
:100570000F4640EA0A0041EA0B0153465A46084337
:1005800013D0114653EA010019D0C8F14002504679
:10059000FFF72BFE05460E46504659464246FFF7EA
:1005A000A8FF084305D0012004E020463946BDE8F5
:1005B000F08D0020054346EAE0762C4337430A9845
:1005C0006305E40AA0EB08000022FD0A44EA475450
:1005D0000A3002D500200146E9E7010510196941FA
:1005E000DDE9084500196941BDE8F04DA2E70000CA
:1005F000064C074D06E0E06840F0010394E8070070
:1006000098471034AC42F6D3FFF7A6FDE82A00085D
:10061000082B0008FEE70000014800F0A6B9000022
:100620007C000020014800F0A0B900007C00002000
:10063000014800F09AB90000A4000020014800F031
:1006400094B90000A4000020014800F003BC0000A1
:100650009401002030B590F840500124AC40C56BA7
:100660006C60046863604368102B036803D0996072
:100670000068C26030BD9A600068C16030BD7047DC
:1006800072B6FEE790F82020012A07D0022A05D092
:10069000416A41F48021416201207047006842694B
:1006A0000A43426100207047F0B590F8205004687A
:1006B000A468012D05D0022D03D0416A41F48021A8
:1006C00053E014F0406F01D1E5004BD5C4F3016451
:1006D000022C03D9416A41F4000146E00125A540FE
:1006E0001D608D684FF4C0739DB1CE6835434E6870
:1006F00045EAC605066803EB0417F5514FF4C275C9
:10070000076805EB04150E697E51097D012905D0A6
:1007100009E00E88CD6845EA4655EBE701684E5979
:1007200046F480764E511179D2F805504FF4C676D2
:1007300041EA0525016806EB04168D511178D2F8BF
:1007400001204FF4C47541EA0221026805EB04154B
:100750005151006803EB0411425842F0010242502B
:100760000020F0BD416A41F4001141620120F0BD5A
:1007700010B590F82020012A07D0022A05D0416A3E
:1007800041F480214162012010BD3B48D0F8002295
:1007900042F00102C0F80022D0F8002222F47C527C
:1007A000C0F80022D0F800224B6A42EA0322C0F8C7
:1007B00000220A7D02F01F0301229A40D0F81C3269
:1007C0009343C0F81C32CB69B3B9D0F80C329343D1
:1007D000C0F80C328C894B6864F31F434C6900EB02
:1007E000C404C4F840320C890B6864F31F434C699D
:1007F00000EBC404C4F84432CB69012B16D1D0F805
:100800000C321343C0F80C320C884B6864F31F435E
:100810004C6900EBC404C4F840320C89CB6864F323
:100820001F434C6900EBC404C4F844328B69002BAD
:10083000D0F804320ED01343C0F804320B69002BF9
:10084000D0F8143208D01343C0F81432096A0129D1
:1008500004D008E09343EFE79343F5E7D0F81C1288
:100860001143C0F81C12D0F8001221F00101C0F8A9
:100870000012002010BD0000006400407047406A74
:10088000704730B590F82040012C05D0022C03D0E1
:10089000416A41F480215DE00468002955D0246953
:1008A000A40754D04FF4D874056804EB01142D59F3
:1008B00015F00405956005682D594ED0ED0855607A
:1008C00005682C5904F00204D4604FF4DA7405680A
:1008D00004EB01142D5905F00F05156105682D591C
:1008E000C5F30725956105682C59240C54614FF414
:1008F000DC72046802EB0112A4581C700468A4584E
:10090000240A5C700468A458240C9C700468A258E3
:10091000120EDA704FF4DE72046802EB0112A45872
:100920001C710468A458240A5C710468A458240C3F
:100930009C710468A258120EDA71006881B10169D5
:1009400041F020010161002030BDE468A8E7416A60
:1009500041F400114162012030BD6D0D1560AFE71B
:10096000C16841F02001C160EDE72DE9F05F054667
:10097000006800244669D0F804908768D0F80CB06D
:10098000D0F810A0D0F81880F10748D0F90714D09B
:1009900001218160B80703D5284600F054FA0CE025
:1009A000780702D54FF4006407E0380702D54FF40A
:1009B000805402E0284600F045FAF80516D529686B
:1009C0004FF480708860B80503D5284600F03DFAE2
:1009D0000CE0780502D544F4005407E0380502D550
:1009E00044F4804402E0284600F02EFAF80316D5BD
:1009F00029684FF480308860B80303D5284600F09A
:100A000026FA0CE0780302D544F4004407E03803EA
:100A100002D544F4803402E0284600F017FA30078B
:100A200007D55FEACB6004D52968102044F4007430
:100A3000C86070074FF0080707D55FEA0B7004D550
:100A40002868C760284600F0B5F9B00706D52868C1
:100A5000C068800702D0284600F0AEF9700607D5BE
:100A60005FEACA6004D52968102044F480640861F4
:100A7000B00607D55FEA0A7004D5286807612846E2
:100A800000F0B0F9F00606D528680069800702D0AA
:100A9000284600F0A8F9B00308D55FEAC96005D57B
:100AA000296810204860284600F09EF9F00307D519
:100AB0005FEA097004D528684760284600F0C8F945
:100AC000300446D55FEA497040D5F00504D55FEAA9
:100AD000C87001D044F00104B00504D55FEA887005
:100AE00001D544F00204700504D55FEA487001D5D1
:100AF00044F00404300529D518F0700F26D008F012
:100B00007000402815D006DC102809D020280AD013
:100B1000302816D10AE050280ED0602811D10EE0FE
:100B200044F008040DE044F010040AE044F020040E
:100B300007E044F0400404E044F0800401E044F4A1
:100B400080742868816921F070018161296804201E
:100B50004860002C05D0686A204368622846FFF789
:100B60008DFEBDE8F09F70B5040003D094F820001E
:100B700010B104E0012070BD204600F081F820682B
:100B8000016821F00201016000F006FC054605261F
:100B900004E000F001FC401B0A2811D820684068DE
:100BA0008007F6D42068016841F00101016000F07F
:100BB000F3FB05460BE000F0EFFB401B0A2806D9CB
:100BC000606A40F40030606284F82060D2E72068F8
:100BD0004068C007EFD0207E0128206801683DD022
:100BE00021F080010160607E01282068016838D012
:100BF00021F040010160A07E01282068016833D007
:100C000021F020010160E07E0128206801682ED0DB
:100C100041F010010160207F01282068016829D07F
:100C200021F008010160607F01282068016824D05C
:100C300021F004010160D4E902010843D4E904125F
:100C4000114308436168491E08432168C8610020B8
:100C50006062012084F82000002070BD41F0800116
:100C6000C0E741F04001C5E741F02001CAE721F0AB
:100C70001001CFE741F00801D4E741F00401D9E7C2
:100C8000F0B585B00021464A00910191029103918F
:100C900003681068414F434C022503264249401C1B
:100CA000BB423AD11060012807D1C86940F00070FA
:100CB000C861C86900F000700490886940F00800BD
:100CC00088618869694600F0080004904FF48070DC
:100CD0000090204600F06AFA4FF40070CDE900055C
:100CE00069460396204600F061FA3048416821F4D5
:100CF000C04141F0E06141F4804141600022114671
:100D0000132000F0B5FB132000F0A4FB00221146D5
:100D1000142000F0ADFB14203BE0254FBB423AD13C
:100D2000CB6943F08063CB61CB69012803F080631A
:100D30000493106007D1C86940F00070C861C869A9
:100D400000F000700490886940F0080088618869AC
:100D5000694600F0080004904FF48050009020464F
:100D600000F024FA4FF40050CDE9000569460396DF
:100D7000204600F01BFA002211463F2000F078FBCD
:100D80003F2000F067FB00221146402000F070FB7E
:100D9000402000F05FFB05B0F0BD000000640040A3
:100DA00024000020000C014000100240000001401F
:100DB000006800407047000010B5074B074A00214B
:100DC0000748FFF75EFD08B172B6FEE7BDE81040C8
:100DD00002210348FFF756BC1400002060000020E9
:100DE0007C000020704770477047000070B50446D3
:100DF00090F82000012804D0606A40F4002060626E
:100E000018E0022084F820002068016821F0010128
:100E1000016000F0C1FA05460EE000BF00F0BCFA28
:100E2000401B0A2808D9606A40F40030606205203F
:100E300084F82000012070BD20684068C007EDD113
:100E4000606270BD70477047704770477047704769
:100E5000704700002DE9F05FC16B0A6801680B68FC
:100E6000046C4FF0040808FA04F8844D844E854F52
:100E7000DFF814C2DFF81492DFF814A2DFF814B21E
:100E8000DFF814E218EA020F65D05FEA437862D512
:100E90000A68920603D40A6822F004020A60DFF8A6
:100EA000F0814FF48062016808F114081301140204
:100EB000414524D9A9420DD0B1420FD0B9421AD030
:100EC000614515D0494515D0514501D1120312E0B5
:100ED000594501D104220EE0714501D140220AE0BA
:100EE0006D4D1435A94206D06B4A2832914201D18A
:100EF0001A4600E022466749091F0A6029E0A94214
:100F000013D0B14215D0B94220D061451BD049451C
:100F10001BD0514502D14FF4800217E0414502D168
:100F20004FF0806212E0594501D104220EE0714574
:100F300001D140220AE0584D1435A94206D0564A44
:100F40002832914201D11A4600E022464B49083925
:100F50004A60C16A71E04FF0020808FA04F818EA22
:100F6000020F70D05FEA83786DD50A68920606D4C6
:100F70000A6822F00A020A60012180F82110DFF8D5
:100F800010814FF40072016808F114081301140273
:100F9000414524D9A9420DD0B1420FD0B9421AD04F
:100FA000614515D0494515D0514501D1120312E0D4
:100FB000594501D102220EE0714501D120220AE0FB
:100FC000354D1435A94206D0334A2832914201D119
:100FD0001A4600E022462F49091F0A6029E0A9426B
:100FE00013D0B14215D0B94220D061451BD049453C
:100FF0001BD0514502D14FF4001217E0414502D1F8
:101000004FF0007212E0594501D102220EE0714505
:1010100001D120220AE0204D1435A94206D01E4AF3
:101020002832914201D11A4600E02246134908397C
:101030004A60002180F82010816A00291CD0BDE898
:10104000F05F0847FFE70825A540154214D01A07AE
:1010500012D50A6822F00E020A6090F84020C36B95
:10106000012101FA02F25A60816380F82110002107
:1010700080F82010016BE0E7BDE8F09F0800024017
:101080001C00024030000240440002405800024070
:101090006C000240080402401C04024030B560B1FC
:1010A0001A4B026814219A4209D2194B1344B3FB1C
:1010B000F1F18900016417490AE0012030BD134BAA
:1010C0005B421344B3FBF1F1890001640F49083915
:1010D000C163022180F82110136843F6F0718B433D
:1010E000F0E901142143D0E902452C43214304696E
:1010F000214344692143846921431943116000213C
:101100004163012242770177084630BD080402405E
:10111000F8FFFDBF0000024070B5044690F82000C3
:10112000002501280CD0012084F8200094F82160CB
:101130000020012E06D084F820000225284670BD2C
:10114000022070BD022684F82160A0632068066832
:1011500026F0010606602046FFF77CFAE06A0028C8
:101160002068016802D041F00E0106E021F0040180
:1011700001602068016841F00A010160206801688F
:1011800041F001010160D9E770B5044600F004F9AF
:101190000546601C02D004480078044400F0FCF8C6
:1011A000401BA042FAD370BD280000202DE9F84F63
:1011B000DFF8B891002409F1040A0AF1040B234670
:1011C0000F270BF1040EC9E00125A5402A40AA42D1
:1011D0007DD1674ED1F804C0ACEB0608B44532D0DF
:1011E00014DCBCF1030F3AD009DCBCF1000F2AD0AB
:1011F000BCF1010F1CD0BCF1020F31D11DE0BCF1DC
:10120000110F17D0BCF1120F2AD119E0B8F5881FC1
:1012100019D006DCB8F5803F15D0B8F5801F1FD176
:1012200011E0B8F5001F0ED0B8F5041F18D10AE080
:10123000CB6815E0CB681B1D12E0CB6808330FE0CC
:10124000CB680C330CE08B682BB1012B4FF00803FB
:1012500003D0456104E0042302E0056100E00023BF
:10126000FF2A01D8064601E000F104064FEA840592
:1012700001D9A5F12005D6F8008007FA05FC28EA77
:101280000C0803FA05F548EA0508C6F800804D6821
:10129000ED0062D5374DAE6946F00106AE61AD692D
:1012A00024F0030605F001050095334D06EB050C0F
:1012B000DCF80850A607360F07FA06F825EA0805F5
:1012C000DFF8B880404503D14FF0000817E044E054
:1012D000DFF8AC80404502D14FF001080FE0DFF8A5
:1012E000A480404502D14FF0020808E0DFF8988062
:1012F000404502D14FF0030801E04FF0040808FA1E
:1013000006F848EA0508CCF808804D68D9F800606E
:10131000ED034D4601D5164300E096432E604D681F
:10132000DAF80060AD03554601D5164300E0964358
:101330002E604D68DBF80060ED025D4601D5164376
:1013400000E096432E604D68DEF80060AD02754601
:1013500001D5164300E096432E60641C0D682A46B2
:10136000E5407FF431AFBDE8F88F00000004014094
:101370000000111000100240000001400008014070
:10138000000C014000100140001401400AB101614D
:1013900070470904FBE700000148806870470000BF
:1013A000280000200248816802781144816070475B
:1013B00028000020074810B5016841F010010160C5
:1013C000032000F075F80F2000F006F800F024F874
:1013D000002010BD0020024070B50D4D04464FF4B2
:1013E0007A712878B1FBF0F00A490968B1FBF0F096
:1013F00000F07AFB48B9102C07D200222146501E7B
:1014000000F036F800206C6070BD012070BD000057
:1014100028000020340000200C4808B5816941F004
:1014200001018161816901F001010091C16941F00F
:101430008051C161C06900F080500090044841684B
:1014400021F0E06141F00071416008BD00100240F0
:1014500000000140002809DB00F01F02012191403B
:101460004009800000F1E020C0F800117047000042
:10147000F0B40E4B1B680C46C3F30223C3F10705FF
:10148000042D00D90425191D072901D2002300E0ED
:10149000DB1E012606FA05F1491E214099409E40B7
:1014A000761E16403143F0BC01F015B90CED00E09A
:1014B000064900F0070208684FF6FF03184040EAAB
:1014C0000220034A10430860704700000CED00E062
:1014D0000000FA052DE9F0470F46050061D0434EA4
:1014E000306800F00700B84209D2306820F00700E9
:1014F00038433060306800F00700B84251D12868A6
:101500003B4C810712D5400703D5606840F4E0608A
:1015100060602878000703D5606840F46050606020
:101520006068A96820F0F000084360602878C00770
:1015300028D06868012810D02168022810D08907B7
:1015400000292EDA616821F0030101436160FFF791
:1015500023FF804641F288390DE021688903EFE7D7
:101560008901EDE7FFF718FFA0EB0801494502D913
:101570000320BDE8F0876068696800F00C00B0EBFC
:10158000810FEFD1306800F00700B8420BD9306806
:1015900020F0070038433060306800F00700B842A0
:1015A00001D00120E5E72878400705D56068E968A3
:1015B00020F4E060084360602878000706D5606882
:1015C000296920F4605040EAC100606000F038F8FA
:1015D0006168084AC1F30311515CC84006490860BC
:1015E00006480068FFF7F8FE0020C2E7002002402E
:1015F00000100240D02A0008340000202C000020F7
:101600000448054900684968044AC1F30221515C55
:10161000C84070473400002000100240E02A000853
:101620000448054900684968044AC1F3C221515C75
:10163000C84070473400002000100240E02A000833
:10164000F0B524A289B00FCA04AC84E80F0025A12C
:101650000FC98DE80F002748416801F00C02042AE9
:1016600004D0082A04D0244809B0F0BD2348FBE781
:1016700004AAC1F38343C903D45C28D5C16AC26AF2
:1016800001F00F011DF80110D20316D5C26AC06A1D
:10169000C2F30312521CA2FB0123C0F30320801CDF
:1016A000A0FB0415154F0026A1FB070C05FB07C581
:1016B00001FB0651FEF768FD03E010486043B0FBF4
:1016C000F1F09DF81D10A142CED14008CCE70C48A6
:1016D0006043C9E700000405060708090000000090
:1016E000000D00000102030405060708090A0B0C9F
:1016F0000D0E0F100010024000127A00001BB70000
:1017000000093D002DE9F84F040070D02078F14D1C
:10171000C00749D06868C0F38100012807D0686815
:10172000C0F38100022809D16868C00306D5286883
:10173000800339D5A0680028E7D035E0A068B0F56F
:10174000803F0BD010B1B0F5A02F11D0286820F445
:1017500080302860286820F4802002E0286840F467
:1017600080302860A06890B1FFF716FE06460AE0B8
:10177000286840F480202860F0E700BFFFF70CFEE7
:10178000801B642876D828688003F7D50CE0FFF723
:1017900003FE064605E000BFFFF7FEFD801B642840
:1017A000F0D828688003F7D42078CB4E80074FF01C
:1017B00001094FF000073AD5686810F00C0F07D008
:1017C0006868C0F38100022809D16868C00306D4A4
:1017D0002868800715D56069012808D111E0606983
:1017E000B8B1C6F80090FFF7D7FD804606E042E1A9
:1017F000FFF7D2FDA0EB08000228C3D828688007B5
:10180000F6D52868A16920F0F80040EAC1002860F8
:101810000DE03760FFF7C0FD804605E0FFF7BCFD37
:10182000A0EB08000228ADD828688007F6D42078FD
:1018300000072ED5A948E169E9B1C0F80090FFF78B
:10184000ABFD804606E000BFFFF7A6FDA0EB080059
:10185000022897D8686A8007F6D5A1484FF4FA5154
:101860000068B0FBF1F0009000BF0098411E0091AD
:10187000FAD20EE0B0E00760FFF78EFD804605E08B
:10188000FFF78AFDA0EB0800022889D8686A800764
:10189000F6D42078400763D5E8694FF00008C0000F
:1018A00009D4E86940F08050E861E8694FF0010828
:1018B00000F0805000908B480168C90512D401687F
:1018C000834641F480710160FFF766FD824605E0C2
:1018D000FFF762FDA0EB0A0064287DD8DBF800006A
:1018E000C005F5D5206901280AD008B1052813D014
:1018F000286A20F001002862286A20F0040002E033
:10190000286A40F001002862206941F2883B98B1C2
:10191000FFF742FD82460BE0286A40F0040028628F
:10192000EEE700BFFFF738FDA0EB0A01594553D899
:10193000286A8007F6D50CE0FFF72EFD824605E009
:10194000FFF72AFDA0EB0A01594545D8286A800710
:10195000F6D4B8F1000F03D0E86920F08050E861B8
:10196000E06AD0B36968C90307D56968C1F381012A
:10197000022902D1E96AC9037DD4022808D0E86AA5
:1019800020F48030E862B766FFF706FD80463BE052
:101990002868C00005D5E86A616B00F0F000884255
:1019A00069D1B766FFF7F8FC804605E0FFF7F4FC65
:1019B000A0EB0800642874D828680001F6D4E86A0F
:1019C000616B20F0F0000843E862E86A216B20F4C4
:1019D00070600843E86201E063E018E0C6F86890D0
:1019E000FFF7DAFC804605E0FFF7D6FCA0EB080025
:1019F000642856D828680001F6D508E0FFF7CCFC2B
:101A0000A0EB080064284CD828680001F6D4206AAE
:101A100090B36968C1F38101022949D00228376671
:101A200003D0FFF7B9FC04463EE0FFF7B5FC0746DC
:101A300005E000BFFFF7B0FCC01B022831D82868C2
:101A40008001F7D4606AB0F5803F09D1E86A616827
:101A50000843E862E86AE16820F00F000843E862A2
:101A6000D4E909010843696821F4741108436860E6
:101A7000C6F8609001E028E029E0FFF78DFC0446FD
:101A800005E000BFFFF788FC001B022809D8286882
:101A90008001F7D51BE000BFFFF77EFC001B02288A
:101AA00002D90320BDE8F88F28688001F4D40EE045
:101AB0000128F7D06868626A00F48031914204D14D
:101AC000A16A00F47010884201D00120EAE70020EA
:101AD000E8E7000000100240000042428004424259
:101AE000340000200070004010B5401EB0F1807F2F
:101AF00001D3012010BD4FF0E02460610F21601779
:101B000000F0E9FD0020A06107202061002010BD49
:101B100010B590F83C20012A22D0012280F83C2008
:101B2000CA688C6822F4407222434C6822F48062B6
:101B300022430C6822F4006222430C6922F4805292
:101B400022434C6922F400522243C969002322F443
:101B500080420A4301684A6480F83C30002010BD8E
:101B6000022010BD70B590F83C20012A29D0012434
:101B700080F83C40022280F83D2003685A689D6846
:101B800022F070060A6832435A600F4B02689A428C
:101B90000BD0B2F1804F08D00C4B9A4205D00C4BC1
:101BA0009A4202D00B4B9A4204D1496825F0800337
:101BB0001943916080F83D40002180F83C100846B0
:101BC00070BD022070BD0000002C014000040040E8
:101BD00000080040000C004000B585B000210091D5
:101BE00001910291039100680B49884212D10B4880
:101BF000816941F0040181618069694600F0040057
:101C000004904FF47060009002200190039004480B
:101C1000FFF7CCFA05B000BD002C014000100240D7
:101C20000008014070B5044690F83C000D460128BC
:101C30000AD0012084F83C0042B1042A18D0082AB6
:101C40002AD00C2A4DD139E0022070BD206800F066
:101C5000E3FB2068816941F00801816120688169A6
:101C600021F004018161206881692A69114311E032
:101C7000206800F0F9FB2068816941F4006181610E
:101C80002068816921F480618161206881692A6905
:101C900041EA0221816124E0206800F011FC206803
:101CA000C16941F00801C1612068C16921F00401E6
:101CB000C1612068C1692A69114311E0206800F000
:101CC0002BFC2068C16941F40061C1612068C169D1
:101CD00021F48061C1612068C1692A6941EA022159
:101CE000C161002084F83C0070BD10B5040003D031
:101CF00094F83D0010B107E0012010BD002084F8E9
:101D00003C00204600F01EF8022084F83D00211D12
:101D1000206800F035FB012084F8460084F83E007E
:101D200084F83F0084F8400084F8410084F84200C1
:101D300084F8430084F8440084F8450084F83D00AA
:101D4000002010BD08B500680649884208D1064841
:101D5000816941F400618161806900F40060009054
:101D600008BD0000002C01400010024010B50446E0
:101D7000022249B104290ED0082913D094F8410059
:101D8000012816D0012010BD94F83E000128F9D199
:101D900084F83E200FE094F83F000128F2D184F847
:101DA0003F2008E094F840000128EBD184F840205F
:101DB00001E084F841200122206800F01FFB114956
:101DC0002068884203D1426C42F400424264206899
:101DD00088420BD0B0F1804F08D00B49884205D023
:101DE0000A49884202D00A49884204D1816801F038
:101DF0000701062903D0016841F0010101600020BC
:101E000010BD0000002C014000040040000800400C
:101E1000000C0040704770B5040004D094F83900FD
:101E2000002510B106E0012070BD84F8385020462E
:101E300000F022F8242084F839002068C16821F4D9
:101E40000051C160204600F0E9FB2068016921F4DF
:101E5000904101612068416921F02A0141612068B7
:101E6000C16841F40051C160E563202084F8390065
:101E700084F83A00002070BD70B586B0002500954A
:101E80000195029503950646364C036836490220B3
:101E90000322A34222D1CB6943F40033CB61CB6947
:101EA00003F4003304938B6943F004038B61896965
:101EB0002E4C01F0040104910421CDE9001003929D
:101EC00069462046FFF772F90820CDE9000569460A
:101ED00020460295FFF76AF906B070BD244CA34274
:101EE000FAD1CB6943F48023CB61CB6903F480231F
:101EF00004938B6943F010038B618969039201F0AD
:101F0000100104912115CDE900101A4C69462046B4
:101F1000FFF74CF9E014CDE900056946204602952B
:101F2000FFF744F91448416821F0300141F0E061C5
:101F300041F010014160124C1048C4E900058020B6
:101F4000C4E9025020202561C4E905504FF44050F7
:101F5000E0612046FFF7A2F808B1FEF791FB746339
:101F60006662B9E7004400400010024000080140EA
:101F700000480040001001400000014030000240D5
:101F800094010020F8B5044690F83A0020283CD18E
:101F9000C1B3BAB394F83800012836D0012084F8D0
:101FA0003800A162A2850025E563222084F83A006A
:101FB000636B17489862636B1648D862636B164868
:101FC0001863606B134645630846666B21680246DA
:101FD0003046091DFFF7A0F82068016841680091AC
:101FE00084F83850C16841F48071C160206841694B
:101FF00041F0010141612068416941F040014161C6
:102000000020F8BDFFE70120FBE70220F9E7000010
:10201000A7250008E32500085D2500081848018869
:10202000C1F30A0200F112010A804278D3088278D3
:1020300043EA4213C3F30A034B80C378920942EA8E
:102040008303027943EA8223C3F30A038B80530894
:10205000427943EAC213C3F30A03CB8093090B729C
:10206000C2F301124A72C2884A8102898A81428976
:10207000CA81027B0A74427B4A74807B4882704723
:10208000380000207047FEE70F4810B50D49016089
:102090000421416000214FF400328160C0E9031245
:1020A000520142610176012242768176C176017742
:1020B0004177FEF758FD002803D0BDE81040FEF739
:1020C000DFBA10BD006400407C0000200F4810B54E
:1020D0000D4901600421416000214FF4003281600C
:1020E000C0E90312520142610176012242768176F3
:1020F000C17601774177FEF736FD002803D0BDE8B1
:102100001040FEF7BDBA10BD00680040A4000020DA
:10211000094808B5416941F0010141614069002267
:1021200000F00100009011460D20FFF7A1F9BDE875
:1021300008400D20FFF78EB90010024030B585B081
:1021400000241B480094019402940394816941F097
:1021500020018161816901F020010491816941F0D0
:1021600004018161816901F004010491816941F0F8
:1021700008018161816901F008010491816941F0E0
:102180001001816180690B4D00F010000490002265
:1021900001212846FFF7FAF802200121039000915F
:1021A000CDE9011469462846FFF700F805B030BDB7
:1021B00000100240000C014010B592B000240F94B2
:1021C0001C2168461094FEF739F8202107A8FEF775
:1021D00035F82E482C49016040F26711C0E901141E
:1021E0004FF4FA61C0E903148021C0E90541FFF70B
:1021F0007CFD08B1FEF744FA0F940FA92348109410
:10220000FFF7B0FC08B1FEF73BFA60200090C82051
:10221000CDE90104039404940594002269461B4807
:102220000694FFF7FFFC08B1FEF72AFA042269467C
:1022300016480194FFF7F6FC08B1FEF721FA0822D0
:1022400069461248FFF7EEFC08B1FEF719FA0C22B6
:1022500069460E48FFF7E6FC08B1FEF711FA07944D
:10226000089409944FF400500A94CDE90B4007A953
:1022700006480E94FFF74CFC08B1FEF701FA03483C
:10228000FFF7AAFC12B010BD002C0140CC000020CA
:102290000C4810B50A4901604FF4E131416000215A
:1022A00081600C22C160C0E904128161C161FFF745
:1022B000B2FD002803D0BDE81040FEF7E1B910BD23
:1022C00000440040140100200D4810B50B49016086
:1022D0000C49416000214FF480628160C0E9031223
:1022E0000C22C0E90521C161FFF795FD002803D04C
:1022F000BDE81040FEF7C4B910BD00000048004022
:1023000054010020A0860100FEE7FEE770477047F9
:10231000FFF748B870B594B038216846FDF78EFFD6
:1023200014210EA8FDF78AFF012500242804CDE919
:1023300002040226CDE9086000950595019400018C
:10234000CDE90A046846FFF7DDF908B172B6FEE789
:102350000F20CDE90E064FF48060CDE91040022138
:102360000EA81294FFF7B6F808B172B6FEE702485D
:10237000056714B070BD00000000424270470000C5
:10238000F0B50268194B1A4C1A4D1B4E4FF080479E
:10239000984207D0B84205D0A04203D0A84201D04D
:1023A000B04204D122F0700C4A6842EA0C02984212
:1023B00007D0B84205D0A04203D0A84201D0B04215
:1023C00003D122F44074CA6822434C6922F080028F
:1023D000224302608A68C2620A688262984201D11E
:1023E0000969016301214161F0BD0000002C014039
:1023F0000004004000080040000C004010B501F04F
:102400001F030121046A99408C430462016A9A40C7
:102410001143016210BD000030B5026A22F00102D2
:102420000262026A4368846924F073050C682C43D5
:1024300022F002058A682A430A4DA8420BD122F0F5
:102440000805CA6823F440732A434D6922F0040248
:102450001D438B692B434360846149684163026279
:1024600030BD0000002C014030B5026A22F010029D
:102470000262026A436884690D6824F4E64444EA0F
:1024800005248D6822F0200242EA05120B4DA84275
:102490000ED1CD6822F0800242EA05124D6923F484
:1024A000406343EA85038D6922F0400243EA8503D5
:1024B0004360846149688163026230BD002C014041
:1024C00030B5026A22F480720262036A4268C4690B
:1024D00023F4007324F073050C682C438D6843EAE1
:1024E00005230C4DA8420ED1CD6823F4006343EAC6
:1024F00005234D6922F4405242EA05128D6923F406
:10250000806342EA05124260C4614968C1630362A4
:1025100030BD0000002C014030B5026A22F4805228
:102520000262046A4268C3690D6823F4E64343EA21
:1025300005238D6824F4005444EA0534064DA8426E
:1025400004D14D6922F4804242EA85124260C3619F
:1025500049680164046230BD002C014070B5446AD2
:102560002068406994F83910C0F3C0100025212973
:1025700004D118B1E584204600F046F8206840698F
:1025800094F83A10C0F38010222904D118B1E585DF
:10259000204600F02BF8E06B40F01000E06320468E
:1025A000FFF738FC70BD10B50146406A096809683C
:1025B000890613D40021C1850168CA6822F480729B
:1025C000CA6001684A6922F001024A6101684A69E9
:1025D00022F040024A61202180F83A10FFF71EFDE8
:1025E00010BD10B5406AFFF74DFD10BD0168CA6807
:1025F00022F49072CA6001684A6922F001024A61BD
:10260000202180F83A1070470168CA6822F0C002A1
:10261000CA60202180F839107047000070B5044668
:1026200000680169E26821F44051114301612169A8
:10263000A0680843616908432168CA6841F20C63D5
:102640009A430243CA6020684169A26921F440713B
:10265000114341611E492068884202D1FEF7E0FF24
:1026600001E0FEF7CDFF00EBC00101EB0012606856
:1026700064218000B2FBF0F3B3FBF1F36FF01806B6
:102680007343B2FBF0F5B2FBF0F605EB83053223A2
:1026900003EB0515B5FBF1F5B6FBF1F605F0F0051A
:1026A00005EB0615B2FBF0F6B2FBF0F0B0FBF1F073
:1026B0006FF01802504306EB800003EB0010B0FBF4
:1026C000F1F0216800F00F002844886070BD000020
:1026D00000380140FEE70907090E002804DB00F17D
:1026E000E02080F80014704700F00F0000F1E020B7
:1026F00080F8141D704702E008C8121F08C1002AA4
:10270000FAD170477047002001E001C1121F002A72
:10271000FBD170470FB4002000B58BB001210390AE
:102720000490CDE906010E22CDE908120090019037
:102730000290059069460CA8FEF71AF8002801D00F
:1027400072B6FEE70BB05DF814FB000090B0FEF728
:1027500031FEFFF7DFFDFFF7F1FCFFF72DFDFFF77F
:1027600097FDFFF7D5FCFFF7AFFDFFF78DFCFFF7F7
:10277000ADFC2022B24906A8FDF747FDB04890F80D
:1027800020108DF83810406A0F9018220AA9684668
:10279000FDF73BFD0DF1180C9CE80F00FFF7BAFFA9
:1027A000A748FEF723FB08B172B6FEE70221A44852
:1027B000FDF768FF08B172B6FEE70021A148FFF7F8
:1027C000D5FA04219F48FFF7D1FA08219D48FFF769
:1027D000CDFA0C219B48FFF7C9FA9A4E9A4C316802
:1027E00020884863316888633168C8633168086449
:1027F000122296499648FFF7C5FB944D4FF4806826
:102800001235FA274FF0320AB1464FF47A7B002393
:102810001A46194647F2305000F028F9687A012824
:1028200002D0032868D168E02E88464516D968880A
:10283000A0F2ED3026282CD8A6F58060FDF722FE08
:10284000844A854BFDF7ACFDCDE90001E088FDF73A
:102850002AFEDDE90023FDF7FCFC17E0464518D20F
:102860006888A0F2ED30262813D8C6F58060FDF701
:1028700009FE784A784BFDF793FDCDE90001E08829
:10288000FDF711FEDDE90023FDF784FDFDF718FEDD
:10289000E0806888404515D9A6F2ED36262E2BD863
:1028A000A0F58060FDF7EEFD6A4A6B4BFDF778FD01
:1028B00006460091A088FDF7F6FD3246009BFDF725
:1028C000C8FC16E0404517D2A6F2ED36262E7CD87D
:1028D000C0F58060FDF7D6FD604A614BFDF760FDF5
:1028E00006460091A088FDF7DEFD3246009BFDF70D
:1028F00051FDFDF7E5FDA08067E02E88464516D91D
:102900006888A0F2ED3026282CD8A6F58060FDF767
:10291000B9FD544A544BFDF743FDCDE900016088F1
:10292000FDF7C1FDDDE90023FDF793FC17E0464507
:1029300018D26888A0F2ED30262813D8C6F580603A
:10294000FDF7A0FD474A484BFDF72AFDCDE9000100
:102950006088FDF7A8FDDDE90023FDF71BFDFDF70D
:10296000AFFD60806888404515D9A6F2ED36262E69
:102970002BD8A0F58060FDF785FD364A364BFDF774
:102980000FFD064600912088FDF78DFD3246009B25
:10299000FDF75FFC16E0404517D2A6F2ED36262E75
:1029A00013D8C0F58060FDF76DFD2A4A2A4BFDF76C
:1029B000F7FC064600912088FDF775FD3246009B26
:1029C000FDF7E8FCFDF77CFD2080E088FA2801D3C4
:1029D000E78003E0322801D8A4F806A0A088FA28EE
:1029E00001D3A78003E0322801D8A4F804A06088AE
:1029F000FA2801D3678003E0962801D896206080EA
:102A00002088FA2801D3278003E0322801D8A4F8CF
:102A100000A0D9F8002021885163D9F800206188EE
:102A20009163D9F80020A188D163D9F80000E1882A
:102A30000164A068401CA0605846FEF7A5FBE6E6CE
:102A40007C000020CC000020000000203800002086
:102A5000540100201F85EB51B81EE53F295C8FC251
:102A6000F528EC3F7B14AE47E17A743F30B587B070
:102A700040F2FF14009400240194039402948DF812
:102A800014400825104C0495050A25706070080A4A
:102A9000A070E170100A20716271180AA071E371D0
:102AA000A4F11003224669460848FDF7FDFD002801
:102AB00007D00648FDF7E3FEA4F11C01086172B6D9
:102AC000FEE707B030BD00001C0000207C000020A5
:102AD00000000000000000000102030406070809CE
:102AE0000000000001020304082B00080000002081
:102AF00038000000F6260008402B000838000020AF
:102B0000A0050000062700080000000000000000EB
:102B100000000000000000000000000000000000B5
:102B200000000000000000000000000000000000A5
:102B30000100000010000000000000000024F4006C
:04000005080001519D
:00000001FF
