:020000040800F2
:10000000E0060020010100086B1600089F1500089B
:10001000691600086D030008151A000800000000AA
:10002000000000000000000000000000B3160008FF
:10003000C103000800000000B1160008B516000852
:100040001B0100081B0100081B0100081B01000820
:100050001B0100081B0100081B0100081B01000810
:100060001B0100081B0100081B0100081B01000800
:100070001B0100081B0100081B0100081B010008F0
:100080001B0100081B0100081B0100081B010008E0
:10009000091A00081B0100081B0100081B010008C9
:1000A0001B0100081B0100081B0100081B010008C0
:1000B0001B0100081B0100081B0100081B010008B0
:1000C0001B0100081B0100081B0100081B010008A0
:1000D0001B010008E91900081B0100081B010008AA
:1000E0001B0100081B0100081B010008DFF80CD0F1
:1000F00000F02AF900480047051B0008E006002030
:100100000648804706480047FEE7FEE7FEE7FEE7B1
:10011000FEE7FEE7FEE7FEE7FEE7FEE70917000859
:10012000ED000008D2B201E000F8012B491EFBD21D
:1001300070470022F6E710B513460A4604461946F2
:10014000FFF7F0FF204610BDF0B480EA0102D40FA3
:100150004200B2EB410F02D20246084611464A0065
:1001600042D0C30DDDB2C1F3C752AD1A202D35DA2E
:10017000C1F3160141F4000204B15242C5F1200658
:1001800002FA06F12A411044B3EBD05F23D0C4B188
:10019000012DA0EBC35009DCF0BC4FF0004202EA95
:1001A000C352DBB200F5000000F09FB8400000F140
:1001B000807000EBC350A0F1807040EAD17049001C
:1001C00009E0490841EAC071A0EBC35000F5000006
:1001D000400800EBC350F0BC00F07EB86142012241
:1001E00002EB4101001BF6E7F0BC704781F00041D3
:1001F000AAE780F00040A7E780EA010210B502F00C
:100200000043400022D04A001FD0010E01EB1261D2
:10021000C0F35600C2F3560240F4000042F400025C
:10022000A0FB022000047F39140400D0401C50EAD7
:10023000124001D44000491EC2B20C0604EBD0109B
:10024000401C4008802A02D003E0002010BD20F0AE
:100250000100002900DA0020184310BD420005D03B
:10026000C0F3C7525242914201DC0020704700EBBC
:10027000C150704796230022114600F036B800F0B6
:10028000004220F00040C10DC0F3160040F4000011
:100290007F2901DA00207047962903DCC1F196011D
:1002A000C84001E096398840002AF4D040427047A7
:1002B000002801DBC0F10040002901DBC1F1004151
:1002C00081427047002801DBC0F10040002901DBBA
:1002D000C1F10041884270470029A8BF7047401C07
:1002E000490008BF20F00100704710B4B0FA80FC4C
:1002F00000FA0CF050EA010404BF10BC704749B189
:10030000CCF1200421FA04F411FA0CF118BF0121F8
:1003100021430843A3EB0C01CB1D4FEA00614FEAD8
:10032000102042BF002010BC704700EBC3501044A7
:100330000029A4BF10BC7047401C490008BF20F032
:10034000010010BC70470000064C074D06E0E06855
:1003500040F0010394E8070098471034AC42F6D30C
:10036000FFF7C8FE741E0008941E0008FEE7000098
:10037000F0B40F4C08254FF4007625610025656028
:10038000A5602660E56025750A4C050A2570607039
:10039000080AA070E170100A20716271180AA07139
:1003A000E3712246F0BC044B0149044800F009B84F
:1003B000C80200205C0000206400002044020020ED
:1003C0007047F0B590F820500468A468012D05D05E
:1003D000022D03D0416A41F4802153E014F0406FB4
:1003E00001D1E5004BD5C4F30164022C03D9416A65
:1003F00041F4000146E00125A5401D608D684FF4E1
:10040000C0739DB1CE6835434E6845EAC60506689F
:1004100003EB0417F5514FF4C275076805EB04159B
:100420000E697E51097D012905D009E00E88CD684D
:1004300045EA4655EBE701684E5946F480764E5141
:100440001179D2F805504FF4C67641EA05250168C6
:1004500006EB04168D511178D2F801204FF4C475C3
:1004600041EA0221026805EB04155151006803EBD3
:100470000411425842F0010242500020F0BD416A8E
:1004800041F4001141620120F0BD000010B590F868
:1004900020300268012B07D0022B05D0416A41F4BD
:1004A00080214162012010BDD2F8000240F001001D
:1004B000C2F80002087D00F01F0301209840D2F826
:1004C0001C328343C2F81C32CB69B3B9D2F80C3268
:1004D0008343C2F80C328C894B6864F31F434C6928
:1004E00002EBC404C4F840320C890B6864F31F4368
:1004F0004C6902EBC404C4F84432CB69012B16D119
:10050000D2F80C320343C2F80C320C884B6864F307
:100510001F434C6902EBC404C4F840320C89CB6819
:1005200064F31F434C6902EBC404C4F844328B6982
:10053000002BD2F804320FD053EA0003C2F8043281
:100540000B69002BD2F8143208D00343C2F81432DE
:10055000096A012904D008E08343EFE78343F5E704
:10056000D2F81C120143C2F81C12D2F8000220F08B
:100570000100C2F80002002010BD704730B590F8AD
:100580002040012C05D0022C03D0416A41F4802187
:100590005DE00468002955D02469A40754D04FF4C5
:1005A000D874056804EB01142D5915F00405956005
:1005B00005682D594ED0ED08556005682C59C4F3D7
:1005C0004004D4604FF4DA74056804EB01142D592B
:1005D00005F00F05156105682D59C5F307259561CF
:1005E00005682C59240C54614FF4DC72046802EB4A
:1005F0000112A4581C700468A458240A5C70046892
:10060000A458240C9C700468A258120EDA704FF49F
:10061000DE72046802EB0112A4581C710468A4582D
:10062000240A5C710468A458240C9C710468A258C4
:10063000120EDA71006881B1016941F02001016197
:10064000002030BDE468A8E7416A41F4001141622E
:10065000012030BD6D0D1560AFE7C16841F020018C
:10066000C160EDE72DE9F05F0546006800244669AA
:10067000D0F804908768D0F80CB0D0F810A0D0F86B
:100680001880F10748D0F90714D001218160B8071C
:1006900003D5284600F0E3F90CE0780702D54FF4C3
:1006A000006407E0380702D54FF4805402E0284682
:1006B00000F0D4F9F80516D529684FF480708860E9
:1006C000B80503D5284600F0CCF90CE0780502D532
:1006D00044F4005407E0380502D544F4804402E0B5
:1006E000284600F0BDF9F80316D529684FF480308C
:1006F0008860B80303D5284600F0B5F90CE078030C
:1007000002D544F4004407E0380302D544F48034B1
:1007100002E0284600F0A6F9300707D55FEACB6073
:1007200004D52968102044F40074C86070074FF0A5
:10073000080707D55FEA0B7004D52868C76028460C
:1007400000F05AF9B00706D52868C068800702D0C3
:10075000284600F052F9700607D55FEACA6004D552
:100760002968102044F480640861B00607D55FEA68
:100770000A7004D528680761284600F03FF9F006A2
:1007800006D528680069800702D0284600F037F9AE
:10079000B00308D55FEAC96005D529681020486014
:1007A000284600F02DF9F00307D55FEA097004D55B
:1007B00028684760284600F057F9300446D55FEABC
:1007C000497040D5F00504D55FEAC87001D044F007
:1007D0000104B00504D55FEA887001D544F0020435
:1007E000700504D55FEA487001D544F00404300573
:1007F00029D518F0700F26D008F07000402815D0C9
:1008000006DC102809D020280AD0302816D10AE0AA
:1008100050280ED0602811D10EE044F008040DE0FD
:1008200044F010040AE044F0200407E044F04004DF
:1008300004E044F0800401E044F480742868816995
:1008400021F070018161296804204860002C05D0E6
:10085000686A204368622846FFF78FFEBDE8F09F74
:1008600070B5040003D094F8200010B104E001201A
:1008700070BD204600F082F82068016821F0020176
:10088000016000F027FA0546052604E000F022FA90
:10089000401B0A2811D8206840688007F6D42068D9
:1008A000016841F00101016000F014FA05460BE017
:1008B00000F010FA401B0A2806D9606A40F40030A4
:1008C000606284F82060D2E720684068C007EFD0FB
:1008D000207E0128206801683DD021F08001016060
:1008E000607E01282068016838D021F04001016055
:1008F000A07E01282068016833D021F0200101602A
:10090000E07E0128206801682ED041F010010160CE
:10091000207F01282068016829D021F008010160AA
:10092000607F01282068016824D021F00401016063
:10093000D4E902010843D4E9041211430843616871
:10094000491E08432168C86100206062012084F8C4
:100950002000002070BD41F08001C0E741F040015F
:10096000C5E741F02001CAE721F01001CFE741F0CF
:100970000801D4E741F00401D9E7000010B586B0C2
:10098000002100910191029103910068174988426A
:100990002AD11748C16941F00071C161C16901F0F4
:1009A00000710491816941F0040181618069114CF9
:1009B00000F0040004904FF4006000906946204667
:1009C00000F0A0F8A01400900220019003200390F2
:1009D0006946204600F096F800221146142000F0E7
:1009E000E3F9142000F0D4F906B010BD0064004013
:1009F0000010024000080140704770477047704780
:100A00007047000070B5044690F82000012804D01B
:100A1000606A40F40020606218E0022084F8200040
:100A20002068016821F00101016000F053F90546DA
:100A30000EE000BF00F04EF9401B0A2808D9606A9A
:100A400040F400306062052084F82000012070BD71
:100A500020684068C007EDD1606270BD7047704784
:100A600070477047704770477047000010B590F8A6
:100A700021100024022903D00421816301243DE0D8
:100A800001680A6822F00E020A6001680A6822F012
:100A900001020A601A4A0168914201D1012121E054
:100AA000174A1432914201D110211BE0144A283216
:100AB000914201D1891515E0114A3C32914201D190
:100AC00089140FE00E4A5032914202D14FF4803126
:100AD00008E00B4A6432914202D14FF4801101E0E8
:100AE0004FF08071064A083A5160012180F82110C8
:100AF000002180F82010416B01B18847204610BDCD
:100B0000080002402DE9F84FDFF890A100220AF119
:100B1000040B144601274FF00F090BF1040E00BF20
:100B20000B6807FA04F52B40AB4274D1DFF870C1B3
:100B30004E68A6EB0C0866452BD00DDC032E34D096
:100B400005DC36B3012E19D0022E2FD11BE0112E59
:100B500016D0122E2AD119E0B8F5881F19D006DC5C
:100B6000B8F5803F15D0B8F5801F1FD111E0B8F55A
:100B7000001F0ED0B8F5041F18D10AE0CA6815E0AE
:100B8000CA68121D12E0CA6808320FE0CA680C3247
:100B90000CE08A682AB1012A4FF0080203D04561AF
:100BA00004E0042202E0056100E00022FF2B01D8EE
:100BB000064601E000F104064FEA840501D9A5F1DB
:100BC0002005D6F800C009FA05F82CEA080C02FA4C
:100BD00005F54CEA050CC6F800C04D68ED0057D588
:100BE000304DAE6946F00106AE61AD6924F00306F2
:100BF00005F0010500952C4D06EB050CDCF80850BE
:100C0000A6074FEA167809FA08F6B543274EB04210
:100C100002D1002610E03BE0254EB04201D1012672
:100C20000AE0244EB04201D1022605E0224EB04235
:100C300001D1032600E0042606FA08F62E43CCF87C
:100C400008604D68DAF80060ED03554601D51E4393
:100C500000E09E432E604D68DBF80060AD035D460A
:100C600001D51E4300E09E432E604D68DEF8006013
:100C7000ED02754601D51E4300E09E432E604D688F
:100C8000AD020E4D2E6801D51E4300E09E432E603E
:100C9000641C102CFFF444AFBDE8F88F0004014041
:100CA0000000111000100240000001400008014047
:100CB000000C014000100140001401400C040140F0
:100CC0008068084000D0012070470AB10161704778
:100CD0000904FBE7014880687047000068000020B5
:100CE00002488168027811448160704768000020E2
:100CF000074810B5016841F010010160032000F0C1
:100D000073F8002000F006F800F024F8002010BD71
:100D10000020024070B50D4D04464FF47A712878DA
:100D2000B1FBF0F00A490968B1FBF0F000F0FCFA01
:100D300048B9102C07D200222146501E00F034F88A
:100D400000206C6070BD012070BD000068000020B4
:100D5000740000200C4808B5816941F001018161EF
:100D6000816901F001010091C16941F08051C161C7
:100D7000C06900F0805000900448416821F0E061B3
:100D800041F00071416008BD0010024000000140C8
:100D900000F01F02012191404009800000F1E02095
:100DA000C0F8001170470000F0B40E4B1B680C46F1
:100DB000C3F30223C3F10705042D00D90425191D2F
:100DC000072901D2002300E0DB1E012606FA05F107
:100DD000491E214099409E40761E16403143F0BC8A
:100DE00000F044BC0CED00E0064900F00702086882
:100DF0004FF6FF03184040EA0220034A1043086000
:100E0000704700000CED00E00000FA052DE9F04706
:100E1000DFF8548105460E46D8F8000000F00700C0
:100E2000B0420CD2D8F8001021F007013143C8F8C5
:100E30000010D8F8000000F00700B0426FD1286819
:100E40004A4C810712D5400703D5606840F4E06042
:100E500060602878000703D5606840F460506060E7
:100E60006068A96820F0F000084360602878C00737
:100E700044D06868012816D02168022816D0890756
:100E800000294CDA616821F0030101436160FFF73A
:100E900021FF6968074641F2883001290ED00229F6
:100EA000814618D026E021688903E9E78901E7E750
:100EB000FFF710FFC11B494501D918E08146606862
:100EC000C0F381000128F3D118E000BFFFF702FF53
:100ED000C11B49450BD86068C0F381000228F5D1D9
:100EE0000CE000BFFFF7F6FEC11B494502D9032005
:100EF000BDE8F087606810F00C0FF3D1D8F800104F
:100F0000404601F00701B1420BD9016821F0070109
:100F100031430160006800F00700B04201D00120B9
:100F2000E6E72878400705D56068E96820F4E060C6
:100F3000084360602878000706D56068296920F4B6
:100F4000605040EAC100606000F036F86168084A0D
:100F5000C1F30311515CC840064908600020FFF747
:100F6000D9FE0020C4E7000000200240001002402B
:100F70005C1E0008740000200448054900684968A8
:100F8000044AC1F30221515CC8407047740000203C
:100F9000001002406C1E00080448054900684968BA
:100FA000044AC1F3C221515CC8407047740000205C
:100FB000001002406C1E000812A185B00FC98DE818
:100FC0000F0014A0144A006804905168134801F0FF
:100FD0000C03042B10D0082B0ED1C1F38343C9039B
:100FE0001DF803000AD5516804AAC1F34041515CC1
:100FF0000A4A5043B0FBF1F005B070470849484336
:10100000FAE7000002030405060708090A0B0C0DA5
:101010000E0F1010010200000010024000127A00B2
:1010200000093D002DE9F84F04460078B94DC0078E
:1010300048D06868C0F38100012807D06868C0F311
:101040008100022809D16868C00306D5286880039A
:1010500038D5606800286FD034E06068B0F5803F14
:101060000BD010B1B0F5A02F11D0286820F480303B
:101070002860286820F4802002E0286840F480304E
:101080002860606888B1FFF725FE064609E02868F9
:1010900040F480202860F0E7FFF71CFE801B6428E6
:1010A00075D828688003F7D50CE0FFF713FE0646D5
:1010B00005E000BFFFF70EFE801B6428F0D828680B
:1010C0008003F7D42078944E80074FF001094FF049
:1010D00000083BD5686810F00C0F07D06868C0F3B3
:1010E0008100022809D16868C00306D428688007F7
:1010F00014D5206901281FD110E02069B0B1C6F8CD
:101100000090FFF7E7FD074605E000BFFFF7E2FDAF
:10111000C01B0228C4D828688007F7D528686169F1
:1011200020F0F80040EAC10028600FE0C6F8008017
:10113000FFF7D0FD074606E0E9E000BFFFF7CAFD74
:10114000C01B022823D828688007F7D4207800071E
:101150002CD57248A169D9B1C0F80090FFF7BAFD4B
:10116000074604E0FFF7B6FDC01B02280FD8686AE7
:101170008007F7D56A484FF4FA510068B0FBF1F0E8
:10118000009000BF0098411E0091FAD20EE080E06E
:10119000C0F80080FFF79EFD074604E0FFF79AFDC8
:1011A000C01B022875D8686A8007F7D420784007EA
:1011B00060D5E8690027C00008D4E86940F0805095
:1011C000E861E869012700F0805000905548016807
:1011D000C90513D40168834641F480710160FFF7AB
:1011E00079FD824606E000BFFFF774FDA0EB0A0020
:1011F00064284ED8DBF80000C005F5D5E06801286A
:101200000AD008B1052813D0286A20F0010028620E
:10121000286A20F0040002E0286A40F001002862F9
:10122000E06841F2883B98B1FFF754FD82460BE03D
:10123000286A40F004002862EEE700BFFFF74AFD8D
:10124000A0EB0A0159455AD8286A8007F6D50CE068
:10125000FFF740FD824605E0FFF73CFDA0EB0A01E9
:1012600059454CD8286A8007F6D41FB1E86920F0A8
:101270008050E861E06988B36968C1F3810102299F
:1012800045D00228C6F8608004D0FFF723FD04464D
:1012900038E034E0FFF71EFD074604E0FFF71AFDD3
:1012A000C01B02282BD828688001F7D4206AB0F52B
:1012B000803F05D16868A16820F400300843686069
:1012C000D4E908010843696821F47411084368608F
:1012D000C6F86090FFF7FEFC044606E015E000BF8C
:1012E000FFF7F8FC001B022809D828688001F7D511
:1012F0000BE000BFFFF7EEFC001B022802D9032021
:10130000BDE8F88F28688001F4D40020F8E70120B8
:10131000F6E7000000100240000042428004424212
:10132000740000200070004010B5401EB0F1807FB6
:1013300001D3012010BD4FF0E02460610F21601740
:1013400000F094F90020A06107202061002010BD6A
:101350007047000070B5026804461068D168536990
:1013600010F00F0F51D003F0010501F490763543D2
:101370005DD0C20705D0CA0503D5E26B42F0010279
:10138000E263420705D5DA0703D0E26B42F00202BE
:10139000E263820705D5DA0703D0E26B42F004026C
:1013A000E263020705D5DA0703D0E26B42F00802D8
:1013B000E263E26B002A34D0800604D5880602D5A9
:1013C000204600F0DBF920684069E16BC0F3801033
:1013D00001F008010143204624D000F0C1F9206843
:1013E000416949061AD5416921F040014161606BAC
:1013F000A0B11B494163606BFFF738FB002810D098
:10140000606B416BBDE87040084783060FD58B06C3
:101410000DD52046BDE8704000F0B0B92046FFF77A
:1014200097FF70BDFFF794FF0020E06370BD0306D7
:1014300006D50B0604D52046BDE8704000F0A2BAE0
:101440004006F3D54806F1D5D168204621F0400189
:10145000D160202184F8391000F0A0F870BD0000A0
:101460005117000870B5040004D094F83900002525
:1014700010B106E0012070BD84F83850204600F01D
:1014800023F8242084F839002068C16821F4005131
:10149000C160204600F0BEF92068016921F4904146
:1014A00001612068416921F02A0141612068C16819
:1014B00041F40051C160E563202084F8390084F8CC
:1014C0003A00002070BD000030B585B000240094C3
:1014D0000194029403940068184988422CD118485A
:1014E000816941F480418161816901F48041049105
:1014F000816941F0040181618069124D00F00400AE
:1015000004904FF40070009002200190032003909B
:1015100069462846FFF7F6FA2815CDE90004694622
:1015200028460294FFF7EEFA002211462520FFF725
:101530003BFC2520FFF72CFC05B030BD00380140F6
:10154000001002400008014090F83A30202B22D1D0
:10155000F9B1F2B190F83830012B1CD0816282854C
:10156000C2850021C163222280F83A2080F8381019
:101570000168CA6842F48072CA6001684A6942F030
:1015800001024A610068C16841F02001C160002089
:101590007047012070470220704770477047FEE790
:1015A0000B480A494FF48022016003214160002169
:1015B0008160C0E903124FF4A002426101764176D6
:1015C0008176C17601774177FFF74AB90064004020
:1015D0004402002070B586B0002420480094019495
:1015E00002940394816941F010018161816901F0E5
:1015F00010010491816941F020018161816901F04C
:1016000020010491816941F008018161816901F043
:1016100008010491816941F0040181618069104EE3
:1016200000F004004FF44045049001222946304662
:10163000FFF74BFB01200095CDE901040320039047
:1016400069463046FFF75EFAB015CDE900046946F9
:1016500004480294FFF756FA06B070BD001002402D
:10166000000C014000080140FEE770470907090E21
:10167000002806DA00F00F0000F1E02080F8141DC9
:10168000704700F1E02080F800147047FEB508AF05
:1016900097E87000044F4766044F87668DE8700036
:1016A00000F0A3FBFEBD0000EB1D0008031E0008B8
:1016B00070477047FFF714BB30B58FB028216846DC
:1016C000FEF737FD14210AA8FEF733FD01210804B7
:1016D000CDE900100024029402250491CDE90750C1
:1016E0004FF4E01009906846FFF79CFC0F20CDE90D
:1016F0000A056802CDE90C4002210AA80E94FFF702
:1017000085FB0FB030BD00000D48016841F00101BC
:10171000016041680B4A1140416001680A4A11406A
:101720000160016821F480210160416821F4FE011B
:1017300041604FF41F0181600449C0030860704795
:10174000001002400000FFF8FFFFF6FE08ED00E089
:1017500010B5406A0021C185C184FFF7F9FD10BDB5
:101760000168CA6822F49072CA6001684A6922F06E
:1017700001024A61202180F83A10704710B590F8B4
:101780003A10222901D0022010BD8168B1F5805F96
:1017900011D00169002901681FD0496801F07F0359
:1017A000816A4A1C82620B70C18D491E0904090CB2
:1017B000C18518D02BE00269816A002A026852684C
:1017C00005D0D2B20A80816A491C8162ECE7C2F37B
:1017D00008020A80816A891CF7E74A68816A4B1C03
:1017E00083620A70E0E70168CA6822F02002CA60DA
:1017F0000168CA6822F48072CA6001684A6922F0EE
:1018000001024A61202180F83A10FFF7C6FE00204D
:1018100010BD00002DE9F041044600680169E2684E
:1018200021F44051114301612169A06808436169B5
:1018300008432168CA6841F20C639A430243CA60B4
:1018400020684169A26921F44071114341614C490A
:1018500020686425322688423CD1FFF79DFB00EBCF
:10186000C00101EB001061688900B0FBF1F7FFF7E0
:1018700093FB00EBC00101EB00106168B0468900EA
:10188000B0FBF1F0B0FBF5F06FF01801484307EB47
:10189000800106EB0110B0FBF5F000F0F006FFF759
:1018A0007BFB00EBC00101EB001061688900B0FB1D
:1018B000F1F0B0FBF5F006EB0016FFF76DFB00EB67
:1018C000C00101EB001061688900B0FBF1F7FFF780
:1018D00063FB3BE0FFF750FB00EBC00101EB0010A6
:1018E00061688900B0FBF1F7FFF746FB00EBC00130
:1018F00001EB00106168B0468900B0FBF1F0B0FB6D
:10190000F5F06FF01801484307EB800106EB01107A
:10191000B0FBF5F000F0F006FFF72EFB00EBC00186
:1019200001EB001061688900B0FBF1F0B0FBF5F04D
:1019300006EB0016FFF720FB00EBC00101EB0010E7
:1019400061688900B0FBF1F7FFF716FB00EBC001FF
:1019500001EB001061688900B0FBF1F0B0FBF5F01D
:101960006FF01801484307EB800108EB0110B0FB52
:10197000F5F0216800F00F0030448860BDE8F08188
:101980000038014090F83910212901D00220704719
:101990008168B1F5805F016A0BD04A1C026202685F
:1019A00009785160C18C491E0904090CC1840ED00C
:1019B00017E009880268C1F3080151600169002934
:1019C000016A02D0491C0162ECE7891CFBE701684F
:1019D000CA6822F08002CA600068C16841F0400114
:1019E000C16000207047000010B50548FFF7B2FC49
:1019F000BDE81040122203490148FFF7A5BD0000D1
:101A00006C020020780000200148FEF72BBE000089
:101A100044020020FEE702E008C8121F08C1002AA5
:101A2000FAD170477047002001E001C1121F002A5F
:101A3000FBD1704770B504460E4681F00045006842
:101A4000FEF740FC00D2266028462168FEF73AFCEB
:101A500000D2256070BD00002DE9F0471F4E204DDB
:101A60003168A1F50072013A00D1E878FEF702FC76
:101A70001C4C01461C48226800F00CF93068A0F5A7
:101A80000071023900D1EF783846FEF7F3FB0146CA
:101A9000154862686C3000F0FDF83068A0F5007100
:101AA000033901D195F803804046FEF7E3FB014678
:101AB0000D48A268D83000F0EDF83068B0F5017F2D
:101AC00001D195F803904846FEF7D4FBE268BDE8E3
:101AD000F0470146054800F0DDB80000AC020020E8
:101AE000540000200000002094000020D8010020B5
:101AF000122202490248FFF727BD000078000020AB
:101B00006C0200200EB5FFF7F3F8FFF7D5FDFFF7E5
:101B100061FDFFF745FD4B4849494FF48062016084
:101B20004949416000218160C0E903120422C0E9F3
:101B30000521C161FFF796FC4248283800F098F86B
:101B4000FFF7D6FF3F48283800F092F83D48283884
:101B5000FEF758FF3D4F4FF4E174381D052307C8C9
:101B60008DE80700224603213948FFF78FFD07F172
:101B70002800052307C88DE80700224603213448C2
:101B8000FFF784FD1037052397E807008DE807006D
:101B9000224603212E48103FFFF778FD1C3705230E
:101BA00097E807008DE807002246032128481C3FDC
:101BB000FFF76CFDDFF89CA0DFF89C804FF4807984
:101BC0004FF4804B49465046FFF77AF8A0B3002205
:101BD00059462248FFF779F8214800F015F998F89E
:101BE00008000128EED1174A184B40324433002137
:101BF000A2F16800FEF7C2FC3870FFF72DFF144811
:101C00001A49C66B17487E63C56B1748BD63C06B26
:101C1000F863C96B3964FEF732FB04B22846FEF75D
:101C20002EFB05B23046FEF72AFB234600B21A46C9
:101C30002946FEF79DFBC5E7FFE70122C8E7000044
:101C4000003801406C020020A08601001000002036
:101C500094000020000801408A000020000C014090
:101C600078000020000100206C010020D801002035
:101C700000B58BB000210122CDE906120591039138
:101C8000009101910291049108926946FEF7FEFBD2
:101C90000BB000BD2DE9F0414261044601621046DF
:101CA000FEF7A4FAE062216D4FF4000511F0FF4F3A
:101CB00006D0A84201DA80F00040FEF703FB0BD308
:101CC000616D11F0FF4F0AD0E06AA84201DA80F09E
:101CD0000040FEF7EDFA02D20020BDE8F081A06DD1
:101CE00004F13405032802D0042830D06AE0E66A03
:101CF00020683146FEF780FA206331466068FEF7BF
:101D00007BFA616BFEF720FA60633046A16AFEF74A
:101D10006DFAA168FEF770FAA063206EFEF7AAFACA
:101D200001462846FFF786FED4E90C01FEF70CFABF
:101D3000A16BFEF709FAE063E06DFEF79BFA01463E
:101D400004F13C00FFF776FEE06B20643AE0D4E952
:101D50000A7639463046FEF749FA2168FEF74CFA12
:101D6000206331466068FEF747FA60630121384618
:101D7000FEF774FA3146FEF73CFA616AFEF7E4F9C1
:101D8000A168FEF739FAA063206EFEF773FA0146E8
:101D90002846FFF74FFED4E90C01FEF7D5F9A16BF9
:101DA000FEF7D2F901466064E06CFEF7CDF9A0645D
:101DB000E06DFEF75FFA014604F14800FFF73AFED6
:101DC000A06CE064A06A6062E06AA062E069A06161
:101DD000206AE0612069E06060692061A06D0328ED
:101DE00001D0A06C79E7E06B77E770B50DF1100CCE
:101DF0009CE8700000F1580C8CE80E0080E8700040
:101E000070BD80E80E0070470188C1F30A021249D4
:101E10000A8042788378D20842EA4312C2F30A0267
:101E20004A808278C378920942EA8302037942EABF
:101E30008322C2F30A028A8002794379520842EA75
:101E4000C312C2F30A02CA80427992090A72407927
:101E5000C0F30110487270478A00002000000000A3
:101E6000000000000102030406070809000000004A
:101E700001020304941E0008000000207800000006
:101E8000161A00080C1F00087800002068060000E1
:101E9000261A0008000000000000000000000000FA
:101EA0000000000001000000000000000000000031
:101EB0000000000000000000000000000000000022
:101EC0000000000000000000000000000000000012
:101ED0000000000000000000000000000000000002
:101EE00000000000000000000000000000000000F2
:101EF00000000000000000000000000001000000E1
:0C1F0000100000000000000000A24A04D5
:04000005080000ED02
:00000001FF
