:020000040800F2
:10000000005000209535000833150008351500080C
:1000100037150008391500083B15000800000000DE
:100020000000000000000000000000003D15000876
:100030003F150008000000004115000843150008A6
:10004000DD350008DD350008DD350008DD35000848
:10005000DD350008DD350008DD350008DD35000838
:10006000DD350008DD350008DD350008DD35000828
:10007000DD350008DD350008DD3500084D150008C8
:10008000DD350008DD350008DD350008DD35000808
:10009000DD3500085D150008DD350008DD35000898
:1000A000DD350008DD350008DD350008DD350008E8
:1000B000DD350008DD350008DD350008DD350008D8
:1000C000DD350008DD350008DD350008DD350008C8
:1000D000DD350008DD350008DD350008DD350008B8
:1000E000DD350008DD350008DD35000800000000C2
:1000F0000000000000000000000000000000000000
:0C01000000000000000000005FF808F1A3
:1001100010B5054C237833B9044B13B10448AFF341
:1001200000800123237010BD1C000020000000008F
:100130003836000808B5034B1BB103490348AFF339
:10014000008008BD000000002000002038360008B4
:1001500070B54FF0FF0C4CF4E06C1CEA11541DBF5D
:100160001CEA135594EA0C0F95EA0C0F00F0DEF828
:100170002C4481EA030621EA4C5123EA4C5350EA0D
:10018000013518BF52EA033541F4801143F480135E
:1001900038D0A0FB02CE4FF00005E1FB02E506F0EF
:1001A0000042E0FB03E54FF00006E1FB03569CF044
:1001B000000F18BF4EF0010EA4F1FF04B6F5007F4A
:1001C00064F5407404D25FEA4E0E6D4146EB0606BC
:1001D00042EAC62141EA55514FEAC52040EA5E5045
:1001E0004FEACE2EB4F1FD0C88BFBCF5E06F1ED8EF
:1001F000BEF1004F08BF5FEA500E50F1000041EB26
:10020000045170BD06F0004646EA010140EA0200D2
:1002100081EA0301B4EB5C04C2BFD4EB0C0541EAF4
:10022000045170BD41F480114FF0000E013C00F309
:10023000AB8014F1360FDEBF002001F0004170BD2D
:10024000C4F10004203C35DA0C341BDC04F1140446
:10025000C4F1200500FA05F320FA04F001FA05F2D2
:1002600040EA020001F0004221F0004110EBD3709F
:1002700021FA04F642EB06015EEA430E08BF20EACB
:10028000D37070BDC4F10C04C4F1200500FA04F36E
:1002900020FA05F001FA04F240EA020001F0004100
:1002A00010EBD37041F100015EEA430E08BF20EA73
:1002B000D37070BDC4F1200500FA05F24EEA020EBB
:1002C00020FA04F301FA05F243EA020321FA04F0EA
:1002D00001F0004121FA04F220EA020000EBD370A1
:1002E0005EEA430E08BF20EAD37070BD94F0000FA1
:1002F0000FD101F00046400041EB010111F4801FD5
:1003000008BF013CF7D041EA060195F0000F18BF85
:10031000704703F00046520043EB030313F4801FC1
:1003200008BF013DF7D043EA0603704794EA0C0F7B
:100330000CEA135518BF95EA0C0F0CD050EA410691
:1003400018BF52EA4306D1D181EA030101F000410E
:100350004FF0000070BD50EA410606BF1046194636
:1003600052EA430619D094EA0C0F02D150EA013642
:1003700013D195EA0C0F05D152EA03361CBF104683
:1003800019460AD181EA030101F0004141F0FE4122
:1003900041F470014FF0000070BD41F0FE4141F4A6
:1003A000780170BD4FF0FF0C1CEAD0521EBF1CEA52
:1003B000D15392EA0C0F93EA0C0F6FD01A4480EAE3
:1003C000010C400218BF5FEA41211ED04FF00063CC
:1003D00043EA501043EA5111A0FB01310CF00040F8
:1003E000B1F5000F3EBF490041EAD3715B0040EA1E
:1003F000010062F17F02FD2A1DD8B3F1004F40EBEE
:10040000C25008BF20F00100704790F0000F0CF0C0
:10041000004C08BF49024CEA502040EA51207F3A84
:10042000C2BFD2F1FF0340EAC250704740F400005F
:100430004FF00003013A5DDC12F1190FDCBF00F050
:1004400000407047C2F10002410021FA02F1C2F1FE
:10045000200200FA02FC5FEA310040F1000053EA9A
:100460004C0308BF20EADC70704792F0000F00F0E8
:10047000004C02BF400010F4000F013AF9D040EAEE
:100480000C0093F0000F01F0004C02BF490011F482
:10049000000F013BF9D041EA0C018FE70CEAD15380
:1004A00092EA0C0F18BF93EA0C0F0AD030F0004C00
:1004B00018BF31F0004CD8D180EA010000F00040B4
:1004C000704790F0000F17BF90F0004F084691F072
:1004D000000F91F0004F14D092EA0C0F01D14202AC
:1004E0000FD193EA0C0F03D14B0218BF084608D175
:1004F00080EA010000F0004040F0FE4040F40000BF
:10050000704740F0FE4040F44000704781F00041E9
:1005100002E000BF83F0004330B54FEA41044FEAE8
:10052000430594EA050F08BF90EA020F1FBF54EA83
:10053000000C55EA020C7FEA645C7FEA655C00F01F
:10054000E2804FEA5454D4EB5555B8BF6D420CDDF0
:100550002C4480EA020281EA030382EA000083EA73
:10056000010180EA020281EA0303362D88BF30BD13
:1005700011F0004F4FEA01314FF4801C4CEA113169
:1005800002D0404261EB410113F0004F4FEA0333C8
:100590004CEA133302D0524263EB430394EA050F53
:1005A00000F0A780A4F10104D5F1200E0DDB02FAC2
:1005B0000EFC22FA05F2801841F1000103FA0EF256
:1005C000801843FA05F359410EE0A5F120050EF11C
:1005D000200E012A03FA0EFC28BF4CF0020C43FA4D
:1005E00005F3C01851EBE37101F0004507D54FF05A
:1005F000000EDCF1000C7EEB00006EEB0101B1F5AA
:10060000801F1BD3B1F5001F0CD349085FEA3000EF
:100610004FEA3C0C04F101044FEA445212F5800FFA
:1006200080F09A80BCF1004F08BF5FEA500C50F197
:10063000000041EB045141EA050130BD5FEA4C0C7A
:10064000404141EB0101013C28BFB1F5801FE9D2D7
:1006500091F0000F04BF01460020B1FA81F308BFFA
:100660002033A3F10B03B3F120020CDA0C3208DDC6
:1006700002F1140CC2F10C0201FA0CF021FA02F1A1
:100680000CE002F11402D8BFC2F1200C01FA02F111
:1006900020FA0CFCDCBF41EA0C019040E41AA2BF36
:1006A00001EB0451294330BD6FEA04041F3C1CDAFE
:1006B0000C340EDC04F11404C4F1200220FA04F01E
:1006C00001FA02F340EA030021FA04F345EA0301C8
:1006D00030BDC4F10C04C4F1200220FA02F001FA8A
:1006E00004F340EA0300294630BD21FA04F029460C
:1006F00030BD94F0000F83F4801306BF81F48011A5
:100700000134013D4EE77FEA645C18BF7FEA655C17
:1007100029D094EA050F08BF90EA020F05D054EAE9
:10072000000C04BF1946104630BD91EA030F1EBFEE
:100730000021002030BD5FEA545C05D140004941F2
:1007400028BF41F0004130BD14F580043CBF01F5E5
:10075000801130BD01F0004545F0FE4141F47001CB
:100760004FF0000030BD7FEA645C1ABF19461046A6
:100770007FEA655C1CBF0B46024650EA013406BFA7
:1007800052EA033591EA030F41F4002130BD00BF66
:1007900090F0000F04BF0021704730B54FF4806423
:1007A00004F132044FF000054FF0000150E700BFA4
:1007B00090F0000F04BF0021704730B54FF4806403
:1007C00004F1320410F0004548BF40424FF00001F0
:1007D0003EE700BF42004FEAE2014FEA31014FEA33
:1007E00002701FBF12F07F4393F07F4F81F0605182
:1007F000704732F07F4208BF704793F07F4F04BFCD
:1008000041F40021704730B54FF4607401F00045A9
:1008100021F000411CE700BF50EA010208BF704709
:1008200030B54FF000050AE050EA010208BF7047FA
:1008300030B511F0004502D5404261EB41014FF463
:10084000806404F132045FEA915C3FF4D8AE4FF06B
:1008500003025FEADC0C18BF03325FEADC0C18BF4E
:10086000033202EBDC02C2F1200300FA03FC20FA9F
:1008700002F001FA03FE40EA0E0021FA02F11444EC
:10088000BDE600BF4FEA410212F5001215D211D5A4
:100890006FF47873B3EB625212D94FEAC12343F07D
:1008A000004343EA505311F0004F23FA02F018BFFF
:1008B000404270474FF00000704750EA013005D1C8
:1008C00011F0004008BF6FF0004070474FF000008B
:1008D000704700BF80F0004002E000BF81F000419F
:1008E00042001FBF5FEA410392EA030F7FEA226CD6
:1008F0007FEA236C6AD04FEA1262D2EB1363C1BF66
:10090000D218414048404140B8BF5B42192B88BFD4
:10091000704710F0004F40F4000020F07F4018BFF7
:10092000404211F0004F41F4000121F07F4118BF17
:10093000494292EA030F3FD0A2F1010241FA03FCBF
:1009400010EB0C00C3F1200301FA03F100F00043A7
:1009500002D5494260EB4000B0F5000F13D3B0F16F
:10096000807F06D340084FEA310102F10102FE2ADE
:1009700051D2B1F1004F40EBC25008BF20F001004E
:1009800040EA03007047490040EB0000013A28BFED
:10099000B0F5000FEDD2B0FA80FCACF1080CB2EB70
:1009A0000C0200FA0CF0AABF00EBC25052421843EE
:1009B000BCBFD0401843704792F0000F81F4000193
:1009C00006BF80F400000132013BB5E74FEA410366
:1009D0007FEA226C18BF7FEA236C21D092EA030FD2
:1009E00004D092F0000F08BF0846704790EA010F4C
:1009F0001CBF0020704712F07F4F04D1400028BF79
:100A000040F00040704712F100723CBF00F500005A
:100A1000704700F0004343F0FE4040F40000704790
:100A20007FEA226216BF08467FEA2363014642023C
:100A300006BF5FEA412390EA010F40F4800070474F
:100A40004FF0000304E000BF10F0004348BF4042F5
:100A50005FEA000C08BF704743F0964301464FF031
:100A600000001CE050EA010208BF70474FF000038D
:100A70000AE000BF50EA010208BF704711F00043CE
:100A800002D5404261EB41015FEA010C02BF84469E
:100A90000146002043F0B64308BFA3F18053A3F5FD
:100AA0000003BCFA8CF2083AA3EBC25310DB01FA44
:100AB00002FC634400FA02FCC2F12002BCF1004FC8
:100AC00020FA02F243EB020008BF20F00100704759
:100AD00002F1200201FA02FCC2F1200250EA4C00AD
:100AE00021FA02F243EB020008BF20EADC707047F3
:100AF0004FF0FF3C06E000BF4FF0010C02E000BFEA
:100B00004FF0010C4DF804CD4FEA40024FEA41038B
:100B10007FEA226C18BF7FEA236C11D001B052EA41
:100B2000530C18BF90EA010F58BFB2EB030088BF07
:100B3000C81738BF6FEAE17018BF40F00100704776
:100B40007FEA226C02D15FEA402C05D17FEA236C58
:100B5000E4D15FEA412CE1D05DF8040B704700BF9F
:100B6000844608466146FFE70FB5FFF7C9FF002836
:100B700048BF10F1000F0FBD4DF808EDFFF7F4FF6F
:100B80000CBF012000205DF808FB00BF4DF808ED08
:100B9000FFF7EAFF34BF012000205DF808FB00BF2B
:100BA0004DF808EDFFF7E0FF94BF012000205DF84D
:100BB00008FB00BF4DF808EDFFF7D2FF94BF0120FE
:100BC00000205DF808FB00BF4DF808EDFFF7C8FFF7
:100BD00034BF012000205DF808FB00BF4FEA40024F
:100BE000B2F1FE4F0FD34FF09E03B3EB12620DD95B
:100BF0004FEA002343F0004310F0004F23FA02F0C5
:100C000018BF404270474FF00000704712F1610F6B
:100C100001D1420205D110F0004008BF6FF0004042
:100C200070474FF00000704730B589B0002404943D
:100C30000594069407941C4B9A6942F010029A613D
:100C40009A6902F010020092009A9A6942F020021A
:100C50009A619A6902F020020192019A9A6942F01F
:100C600004029A619A6902F004020292029A9A6955
:100C700042F008029A619B6903F008030393039B07
:100C80000A4D22464FF40051284601F0F5FD4FF47D
:100C900000530493012305930694079304A928465F
:100CA00001F0D8FC09B030BD001002400010014036
:100CB00008B50948094B0360094B43600023836072
:100CC000C3604FF4806202610C2242618361C361A0
:100CD00002F0E2FA08BD00BF7801002000440040A5
:100CE000A086010008B50948094B0360094B436021
:100CF00000238360C3604FF4806202610C22426172
:100D00008361C36102F0C8FA08BD00BF340100204E
:100D100000380140A086010000B583B00A4B5A6933
:100D200042F001025A615B6903F001030193019BE8
:100D3000002211460F2001F0DFFE0F2001F014FF0A
:100D400003B05DF804FB00BF0010024008B50B487B
:100D50000B4B03600423436000238360C3604FF4A4
:100D6000A02202614FF480124261037643768376BB
:100D7000C3760377437700F03BFD08BD8000002079
:100D80000064004030B58FB000240A940B940C949A
:100D90000D94089409940194029403940494059486
:100DA000069407941F4D4FF080432B6040F2CF23F1
:100DB0006B60AC6040F2CF73EB602C61AC61284695
:100DC00001F0E0FF4FF480530A930AA9284602F08D
:100DD000D7F8284602F002F80894099408A9284692
:100DE00002F0B8F96023019302940394059422461B
:100DF00001A9284602F050F804220DEB0201284612
:100E000002F04AF8082201A9284602F045F80C220F
:100E100001A9284602F040F8284600F01FFC0FB058
:100E200030BD00BFEC00002030B591B02822002179
:100E300006A802F0F9FB00240194029403940494A0
:100E40000594012206924FF4803307930A920225FB
:100E50000D950E934FF4E0130F9306A801F0DEF802
:100E60000F230193029503944FF480630493059438
:100E7000294601A801F012FB11B030BD80B58CB03D
:100E800001F092F8FFF7D0FFFFF7CEFEFFF710FF5B
:100E9000FFF742FFFFF75AFFFFF724FFFFF772FF4C
:100EA0000024079408940123069302940394049465
:100EB000059409930A930E230B93574B08261E6142
:100EC0009C60DC604FF400721A605C601C75534DCE
:100ED0000DEB0601284600F031FD284600F0B4FD78
:100EE0004F4D2146284602F0C7F80421284602F05B
:100EF000C3F83146284602F0BFF80C21284602F01C
:100F0000BBF80024474E0196474D00952346474ABB
:100F10004749484802F0B3FA4FF07F584FF08247F4
:100F200001960095234642463946434802F0A7FA07
:100F300001960095234642463946404802F09FFA02
:100F40000196009523464FF07E5239463C4802F008
:100F500096FA962100910B460A463A4802F013FB96
:100F600012223949394802F06DFA20E0384A917866
:100F7000D37803EB01231BB2364A1380314C364B36
:100F80001B680093354B1B68354A12683549096860
:100F9000204602F0D5FA224B1B6822885A636288E9
:100FA00092089A63A2889208DA63E2881A642E4C47
:100FB000274B22460121194800F0F2FD2B4B1870F7
:100FC0002368A3F20123032BD8D801A252F823F0FF
:100FD0006D0F0008E10F0008F30F0008051000086E
:100FE0001B4A9178D37803EB01231BB2204A13806C
:100FF000C4E7174A9178D37803EB01231BB21D4A4B
:101000001380BBE7124A9178D37803EB01231BB21C
:10101000194A1380B2E700BFA80200208000002018
:10102000EC00002000007A460000FA45CDCC4C3D93
:101030000000A040BC010020F0010020240200209C
:10104000580200204C0000206C00002034010020D9
:101050005800002062000020C4020020CC020020C2
:10106000C8020020C00200208C0200206000002086
:1010700064000020660000206800002010B4019C7D
:10108000C0F3072C84F800C06070C1F30720A07083
:10109000E170C2F3072121716271C3F30722A271CB
:1010A000E37110BC704700002DE9F04782B06A4B35
:1010B0005B7A012B05D0022B00F0F48002B0BDE872
:1010C000F087654BDC88A4F58064A400B3F8049035
:1010D000A9F580694FEA89091D88A5F58065AD00ED
:1010E0004846FFF765FB56A3D3E90023FFF730F826
:1010F00006460F462846FFF75BFB32463B46FFF7A6
:101100000BFAFFF7BFFB054604EB09002844FFF785
:101110004FFB4DA3D3E90023FFF71AF8FFF7B2FB0B
:1011200000B24E4F3880A4EB0908A8EB0500FFF78A
:101130003FFB47A3D3E90023FFF70AF8FFF7A2FB21
:1011400000B2474E30804C44A4B22C1B24B2DFF8CE
:101150001491A9F8004008EB0500FFF729FB0022D5
:10116000414BFEF7F5FFFFF78DFB00B2DFF8FC8087
:10117000A8F800003D882DB23D4B188800B2FFF75B
:1011800063FC04462846FFF75FFC014622463948C7
:1011900002F07DF9074635882DB2374B188800B22A
:1011A000FFF752FC04462846FFF74EFC0146224654
:1011B000324802F06CF90446B9F8006036B2304BA0
:1011C000188800B2FFF740FC05463046FFF73CFCAC
:1011D00001462A462B4802F05AF90546B8F8008025
:1011E0000FFA88F8284B188800B2FFF72DFC064646
:1011F0004046FFF729FC01463246244802F047F9F1
:10120000FFF7ECFC06B22846FFF7E8FC05B22046E3
:10121000FFF7E4FC04B23846FFF7E0FC1C4F0097F0
:1012200033462A46214600B2FFF728FF194B3A46BB
:1012300019491A4800F036FC194B18703EE700BFF8
:101240009A9999999999A93FCDCCCCCCCCCCFC3F1B
:10125000333333333333FBBF380000200800002022
:101260000A0000200C0000200000F83F0E000020C3
:1012700062000020BC01002064000020F00100207A
:101280006600002024020020680000205802002090
:101290000000002054000020A80200208000002050
:1012A00061000020744DAC88A4F58060FFF780FADF
:1012B00006460F466CA3D3E90023FEF749FFFFF76C
:1012C000E1FA00B2DFF8B481A8F8000068A3D3E91E
:1012D000002330463946FEF73BFFFFF7D3FA00B252
:1012E000DFF89C91A9F80000C4F5806424B2DFF80F
:1012F00094A1AAF800400022634B30463946FEF71D
:1013000027FFFFF7BFFA00B2604F3880B8F80060DF
:1013100036B25F4B188800B2FFF796FB04463046A2
:10132000FFF792FB014622465A4802F0B0F8804689
:10133000B9F8006036B2584B188800B2FFF784FB4A
:1013400004463046FFF780FB01462246534802F030
:101350009EF80446BAF800900FFA89F9504B1888A5
:1013600000B2FFF771FB06464846FFF76DFB0146EA
:1013700032464C4802F08BF80646B7F800900FFA58
:1013800089F9494B188800B2FFF75EFB07464846CB
:10139000FFF75AFB01463A46444802F078F8FFF757
:1013A0001DFC07B23046FFF719FC06B22046FFF7D6
:1013B00015FC04B24046FFF711FCDFF8F480CDF8CD
:1013C00000803B463246214600B2FFF757FE394BBC
:1013D00042463949394800F065FB394B1870EB88B3
:1013E000B3F5806F03D80DD24FF0FF3200E0012239
:1013F000344B1A60204B9B88B3F5806F04D80FD212
:10140000982202E00022F3E794222F4B1A601A4B35
:101410005B88B3F5806F05D819D24FF0FF3202E038
:101420009622F2E70122294B1A60134B1B7A012BFB
:101430000FD9274A1368591C1160254A1360322BB3
:101440000FDDFA2BA8BFFA23214A136036E60022EB
:10145000E9E7094B01221A721D4A1368591E1160EF
:10146000EBE73223F0E700BFCDCCCCCCCCCCFC3FBB
:10147000333333333333FB3F380000200800002080
:101480000A0000200C0000200000F8BF0E00002021
:1014900062000020BC01002064000020F001002058
:1014A000660000202402002068000020580200206E
:1014B0000000002054000020A8020020800000202E
:1014C00061000020C0020020C8020020CC020020E1
:1014D000C402002008B514480378427843EA022386
:1014E000C3F30A0311490B808378D20842EA4312FE
:1014F000C2F30A024A80C2789B0943EA8203027956
:1015000043EA8223C3F30A038B804379520842EAF9
:10151000C312C2F30A02CA809A090A72C3F3011302
:101520004B72FFF7C1FD08BD6C00002038000020A1
:1015300070477047FEE7FEE7FEE7FEE7704770473B
:10154000704708B500F042FD08BD000008B502482C
:1015500001F01EFA08BD00BFA800002008B502482F
:1015600000F0D6FB08BD00BF8000002082B00E4B0B
:101570009A6942F001029A619A6902F001020092AE
:10158000009ADA6942F08052DA61DB6903F0805335
:101590000193019B054A536823F0E06343F0007315
:1015A000536002B0704700BF0010024000000140CD
:1015B00010B586B000230293039304930593026849
:1015C0001A4B9A4201D006B010BD03F5D633DA6942
:1015D00042F00072DA61DA6902F000720092009A59
:1015E0009A6942F004029A619B6903F00403019333
:1015F000019B4FF4006302930D4C02A9204601F0B9
:1016000029F84FF480530293022303930323059395
:1016100002A9204601F01EF800221146152001F013
:101620006BFA152001F0A0FACDE700BF006400407E
:10163000000801400368B3F1804F00D0704782B0CA
:1016400003F50433DA6942F00102DA61DB6903F081
:1016500001030193019B02B07047000010B586B0F2
:10166000002302930393049305930368B3F1804F1F
:1016700001D006B010BD03F504339A6942F00402AC
:101680009A619A6902F004020092009A9A6942F003
:1016900008029A619B6903F008030193019B0323ED
:1016A000029302240394059402A90B4800F0D2FF90
:1016B0004FF4406302930394059402A9074800F095
:1016C000C9FF074A536823F4407343F0E06343F4CF
:1016D00000735360CDE700BF00080140000C0140DB
:1016E0000000014070B588B0002304930593069371
:1016F00007930368384A934204D0384A934243D050
:1017000008B070BD0446364B9A6942F480429A6133
:101710009A6902F480420092009A9A6942F00402A7
:101720009A619B6903F004030193019B4FF40073DA
:10173000049302230593032307932A4E04A93046FA
:1017400000F088FF4FF4806304930025059506950B
:1017500004A9304600F07EFF2348244B0360456017
:1017600085608023C36005614561202383614FF458
:101770004053C36101F09CF818B91B4BA3635C6232
:10178000BEE7FFF7D5FEF8E7154BDA6942F4003201
:10179000DA61DA6902F400320292029A9A6942F03E
:1017A00004029A619B6903F004030393039B0423DF
:1017B000049302230593032307930A4C04A92046AC
:1017C00000F048FF0823049300230593069304A91F
:1017D000204600F03FFF93E70038014000440040FE
:1017E0000010024000080140A800002058000240FC
:1017F000002800F0A18038B5044690F82030D3B11D
:101800002268136843F00103136000F0EBFB054608
:1018100023685A6812F0010F10D100F0E3FB401B5F
:101820000A28F5D9636A43F400336362052384F818
:101830002030012038BDFFF7BBFEE1E71A6822F037
:1018400002021A6000F0CEFB054623685A6812F0C7
:10185000020F0DD000F0C6FB401B0A28F5D9636AC1
:1018600043F400336362052384F820300120E1E76C
:10187000227E012A3DD01A6822F080021A60637E1F
:10188000012B3BD02268136823F040031360A37E32
:10189000012B39D02268136823F020031360E37E04
:1018A000012B37D02268136843F010031360237FA5
:1018B000012B35D02268136823F008031360637F7F
:1018C000012B33D02268136823F004031360A3684C
:1018D000E268134322691343626913436268013A61
:1018E00021681343CB6100206062012384F820301B
:1018F000A0E71A6842F080021A60C0E72268136805
:1019000043F040031360C2E72268136843F02003EA
:101910001360C4E72268136823F010031360C6E75E
:101920002268136843F008031360C8E7226813684D
:1019300043F004031360CAE701207047026890F87F
:101940002030013BDBB2012B05D9436A43F48023ED
:1019500043620120704710B5D2F8003243F0010312
:10196000C2F800324B6903F01F03012000FA03F3B1
:10197000D2F81C026FEA030C20EA0300C2F81C0232
:10198000C869C0B9D2F80C020CEA0000C2F80C0217
:101990008C884869D1F80CE044EA0E44483042F89B
:1019A00030400C884869D1F808E044EA0E444830D9
:1019B00002EBC0004460C86901281AD0886988BB5E
:1019C000D2F804020CEA0000C2F80402086978BBED
:1019D000D2F814020CEA0000C2F81402096A0129C4
:1019E0002CD0D2F8003223F00103C2F800320020DC
:1019F00010BDD2F80C021843C2F80C028C8848695A
:101A0000D1F800E044EA0E44483042F830408C8976
:101A10004869D1F808E044EA0E44483002EBC000BF
:101A20004460CBE7D2F804021843C2F80402CDE7C1
:101A3000D2F814021843C2F81402CFE7D2F81C12ED
:101A40000B43C2F81C32CCE770B5044690F8205026
:101A5000EDB2012D06D0436A43F400234362012511
:101A6000284670BD022380F820300268136823F0F6
:101A70000103136000F0B6FA064623685B6813F0B2
:101A8000010F0CD000F0AEFA831B0A2BF5D9636A64
:101A900043F400336362052384F82030E0E7002537
:101AA0006562DDE730B590F820C00468A4680CF1E9
:101AB000FF3C5FFA8CFCBCF1010F6BD814F0E05FC7
:101AC00062D0C4F3016CBCF1020F05D9436A43F440
:101AD00000034362012062E0012404FA0CF41C605C
:101AE0008B68002B3DD10D68CB68046843EA4555EF
:101AF0000CF118031B01E55003680C690CF1180E7A
:101B000003EB0E135C600B7D012B35D0D1799379FB
:101B10001B0443EA0163517943EA01231479016804
:101B2000234301EB0C11C1F88C31D17893781B045D
:101B300043EA0163517843EA0123117802680B43B9
:101B400002EB0C12C2F8883102680CF1180C4FEA53
:101B50000C1C52F80C3043F0010342F80C3000200A
:101B60001DE04C6843EAC403CC6823430CF118041D
:101B7000240105682B51BFE7036803EB0E13596876
:101B800041F480715960C1E7436A43F40013436232
:101B9000012004E0436A43F480234362012030BD06
:101BA00090F820C00CF1FF3C5FFA8CFCBCF1010FF7
:101BB00000F29B8010B451B90468E46814F0030F7C
:101BC00010D1436A43F40013436201207BE00468B0
:101BD000246914F0030F05D1436A43F400134362F0
:101BE000012070E001F11B042401D0F800C05CF872
:101BF000044004F004049460002C66D101F11B043D
:101C00002401D0F800C05CF80440640D146004683E
:101C100001F11B0C4FEA0C1C54F80C4004F00204B8
:101C2000D46004686444646804F00F0414610468B8
:101C300064446468C4F30724946104686444646879
:101C4000240C5461026802EB0112D2F8B8211A7018
:101C5000026802EB0112D2F8B821C2F307225A70CF
:101C6000026802EB0112D2F8B821C2F307429A705F
:101C7000026802EB0112D2F8B821120EDA70026883
:101C800002EB0112D2F8BC211A71026802EB0112B8
:101C9000D2F8BC21C2F307225A71026802EB01128A
:101CA000D2F8BC21C2F307429A71026802EB01121A
:101CB000D2F8BC21120EDA7189B90268D36843F0F8
:101CC0002003D360002010BC704701F11B042401E5
:101CD000D0F800C05CF80440E408546097E702685C
:101CE000136943F020031361ECE7436A43F4802354
:101CF00043620120704770477047704770477047D4
:101D0000704770477047704770477047704770471B
:101D10002DE9F84F054603685C69D3F804809F6895
:101D2000D3F80CB0D3F810A0D3F8189014F0010633
:101D30003BD017F0010616D001229A6017F0020F6F
:101D400008D117F0040F0CD117F0080606D04FF495
:101D5000805608E0FFF7CFFF002604E0FFF7CEFF34
:101D600001E04FF4006617F4807F0DD02B684FF42C
:101D700080729A6017F4007F40F0868017F4806FBD
:101D800000F0868046F4005617F4803F0DD02B6893
:101D90004FF480329A6017F4003F40F0838017F4CC
:101DA000802F00F0838046F4004614F0080F07D01F
:101DB0001BF0100F04D046F400762B681022DA6076
:101DC00014F0040F02D01BF0080F79D114F0020FA9
:101DD00004D02B68DB6813F0030F78D114F0400FA8
:101DE00007D01AF0100F04D046F480662B6810223A
:101DF0001A6114F0200F02D01AF0080F6BD114F002
:101E0000100F04D02B681B6913F0030F6AD114F470
:101E1000003F02D018F0100F68D114F4803F02D0B8
:101E200018F0080F69D114F4004F7AD018F0040F9D
:101E300074D014F4807F04D019F0010F01D046F063
:101E4000010614F4007F04D019F0020F01D046F00F
:101E5000020614F4806F04D019F0040F01D046F08C
:101E6000040614F4006F59D019F0700956D0B9F176
:101E7000400F65D058D8B9F1200F5ED0B9F1300FBE
:101E800042D146F0200644E02846FFF735FF7BE7C5
:101E900017F4006F02D046F4804675E72846FFF736
:101EA0002EFF71E72846FFF728FF7EE717F4002F83
:101EB00002D046F4803678E72846FFF721FF74E722
:101EC0002B680822DA602846FFF71CFF7EE72846C9
:101ED000FFF717FF82E72B6808221A612846FFF7F1
:101EE00013FF8CE72846FFF70EFF90E72B681022C0
:101EF0005A602846FFF709FF8FE72B6808225A60CF
:101F00002846FFF703FF8EE7B9F1100F01D146F025
:101F100008062A68936923F0700393612B680422F2
:101F20005A609EB9BDE8F88FB9F1500F0BD0B9F1E6
:101F3000600FEED146F48076EBE746F01006E8E756
:101F400046F04006E5E746F08006E2E76B6A1E438E
:101F50006E622846FFF7DBFEE4E7000010B504469A
:101F60000E4B18784FF47A73B3FBF0F30C4A1068F9
:101F7000B0FBF3F000F006FE68B90F2C01D9012088
:101F80000AE0002221464FF0FF3000F0B5FD054B7E
:101F90001C60002000E0012010BD00BF10000020E8
:101FA000180000201400002008B5074A136843F009
:101FB00010031360032000F08DFD0020FFF7CEFF1B
:101FC000FFF7D4FA002008BD00200240034A116840
:101FD000034B1B780B441360704700BFD0020020F6
:101FE00010000020014B1868704700BFD00200208D
:101FF00082B0084B1B68084AA2FB03235B0A00FB64
:1020000003F3019300BF019B5A1E0192002BF9D1EB
:1020100002B0704718000020D34D6210002800F075
:10202000F18170B582B00446036813F0010F2CD023
:10203000994B5B6803F00C03042B1DD0964B5B6837
:1020400003F00C03082B12D06368B3F5803F41D036
:10205000002B55D103F1804303F504331A6822F4B1
:1020600080321A601A6822F480221A6037E08A4BA4
:102070005B6813F4803FE7D0874B1B6813F4003F85
:1020800003D06368002B00F0BF81236813F0020FB8
:1020900075D0814B5B6813F00C0F5FD07E4B5B6893
:1020A00003F00C03082B54D02369002B00F08A8026
:1020B0007A4B01221A60FFF795FF0546764B1B68A5
:1020C00013F0020F75D1FFF78DFF401B0228F5D9E1
:1020D00003209EE1704A136843F480331360636801
:1020E00043B3FFF77FFF05466B4B1B6813F4003FBC
:1020F000CBD1FFF777FF401B6428F5D9032088E197
:10210000B3F5A02F09D0644B1A6822F480321A600C
:102110001A6822F480221A60E1E703F18043A3F5F4
:102120003C331A6842F480221A601A6842F4803202
:102130001A60D4E7FFF756FF0546574B1B6813F4A8
:10214000003FA2D0FFF74EFF401B6428F5D90320C3
:102150005FE1514B5B6813F4803FA5D14E4B1B6888
:1021600013F0020F03D02369012B40F04F814A4A3C
:10217000136823F0F803616943EAC103136023681D
:1021800013F0080F33D0A369002B5CD0434B01221E
:10219000C3F88024FFF726FF05463F4B5B6A13F028
:1021A000020F21D1FFF71EFF401B0228F5D90320A3
:1021B0002FE1394A136823F0F803616943EAC10348
:1021C0001360DCE7354B00221A60FFF70BFF054672
:1021D000314B1B6813F0020FD1D0FFF703FF401BF8
:1021E0000228F5D9032014E10120FFF701FF23683D
:1021F00013F0040F00F09680274BDB6913F0805F2B
:1022000034D1254BDA6942F08052DA61DB6903F0A0
:1022100080530193019B0125214B1B6813F4807FA0
:1022200026D0E368012B3DD0002B53D103F180432E
:1022300003F504331A6A22F001021A621A6A22F0C4
:1022400004021A6233E0154B0022C3F88024FFF722
:10225000C9FE0546104B5B6A13F0020FC7D0FFF7AB
:10226000C1FE401B0228F5D90320D2E00025D3E7A8
:102270000B4A136843F480731360FFF7B3FE0646FE
:10228000074B1B6813F4807FCBD1FFF7ABFE801B9D
:102290006428F5D90320BCE000100240000042424F
:1022A000007000405F4A136A43F001031362E36861
:1022B00033B3FFF797FE06465A4B1B6A13F0020F23
:1022C0002FD1FFF78FFE801B41F288339842F3D95C
:1022D00003209EE0052B09D0524B1A6A22F001021E
:1022E0001A621A6A22F004021A62E0E74D4B1A6A77
:1022F00042F004021A621A6A42F001021A62D6E738
:10230000FFF770FE0646474B1B6A13F0020F08D01A
:10231000FFF768FE801B41F288339842F3D903200F
:1023200077E0E5B9E369002B72D03E4A526802F0CB
:102330000C02082A56D0022B17D03B4B00221A66FB
:10234000FFF750FE0446374B1B6813F0007F47D061
:10235000FFF748FE001B0228F5D9032059E0314A57
:10236000D36923F08053D361DCE72F4B00221A6638
:10237000FFF738FE05462B4B1B6813F0007F06D095
:10238000FFF730FE401B0228F5D9032041E0236A05
:10239000B3F5803F1AD023494B6823F47413226AA3
:1023A000606A024313434B601F4B01221A66FFF71A
:1023B00019FE04461B4B1B6813F0007F0ED1FFF77C
:1023C00011FE001B0228F5D9032022E0154A5368AC
:1023D00023F40033A1680B435360DCE7002018E0CE
:1023E000002016E0012B16D00E4B5B6803F4803101
:1023F000226A914211D103F47013626A93420ED1A2
:10240000002006E001207047012002E0012000E0EA
:10241000002002B070BD0120FBE70120F9E7012098
:10242000F7E700BF001002400000424286B0174BA1
:102430000FCB0DF1180C0CE90F0040F20123ADF8A1
:102440000430134B5B6803F00C02082A02D01148D9
:1024500006B07047C3F3834218326A4412F8100C76
:1024600013F4803F0DD00A4B5B68C3F3404318332D
:102470006B4413F8143C074A02FB00F0B0FBF3F086
:10248000E6E7054B03FB00F0E2E700BF503600082B
:102490000010024000127A0000093D00002800F000
:1024A000A08070B50D460446524B1B6803F007032D
:1024B0008B420BD24F4A136823F007030B43136080
:1024C000136803F007038B4240F08D80236813F0FC
:1024D000020F17D013F0040F04D0474A536843F497
:1024E000E0635360236813F0080F04D0424A536836
:1024F00043F460535360404A536823F0F003A168EB
:102500000B435360236813F0010F31D06368012B34
:1025100020D0022B25D0384A126812F0020F64D066
:1025200035494A6822F0030213434B60FFF75AFD16
:102530000646314B5B6803F00C036268B3EB820F15
:1025400016D0FFF74FFD801B41F288339842F0D937
:10255000032045E0284A126812F4003FE0D1012030
:102560003EE0254A126812F0007FD9D1012037E001
:10257000204B1B6803F00703AB420AD91D4A1368BE
:1025800023F007032B431360136803F00703AB42E8
:102590002DD1236813F0040F06D0174A536823F493
:1025A000E063E1680B435360236813F0080F07D022
:1025B000114A536823F46053216943EAC10353600D
:1025C000FFF734FF0C4B5B68C3F303130B4AD35C78
:1025D000D8400B4B18600B4B1868FFF7BFFC00206E
:1025E00070BD012070470120FAE70120F8E70120C3
:1025F000F6E700BF002002400010024064360008E9
:102600001800002014000020014B1868704700BF1C
:102610001800002008B5FFF7F7FF044B5B68C3F311
:102620000223034AD35CD84008BD00BF001002401B
:102630007436000808B5FFF7E7FF044B5B68C3F387
:10264000C223034AD35CD84008BD00BF001002403B
:102650007436000870B582B00024A446A6E0804D10
:10266000AA4210D007D97F4DAA420CD005F580357B
:10267000AA4208D013E0A5F58015AA4203D005F5BB
:102680007025AA4207D18A68002A58D0012A51D061
:102690004361082403E0A5F58015AA42F3D0BEF1FA
:1026A000FF0F4ED80646BEF1FF0F4CD84FEA8C0202
:1026B00033680F25954023EA050304FA02F2134319
:1026C00033604B6813F0805F6ED0674B9A6942F0BD
:1026D00001029A619B6903F001030193019B4FEA98
:1026E0009C02951C614B53F825600CF003039D0080
:1026F0000F23AB4026EA03065D4B984229D003F531
:102700008063984200F08E8003F58063984200F069
:102710008B8003F58063984219D004231AE0CC68BB
:10272000BDE7CC680434BAE7CC680834B7E7CC68B6
:102730000C34B4E703610824B1E70024AFE70424B4
:10274000ADE7061DAFE7ACF108029200B0E7032346
:1027500000E00023AB4033430232444D45F82230C1
:102760004B6813F4803F61D0424A136843EA0E037A
:1027700013604B6813F4003F5ED03E4A536843EA4F
:102780000E0353604B6813F4801F5BD0394A936883
:1027900043EA0E0393604B6813F4001F58D0354A88
:1027A000D36843EA0E03D3600CF1010C0A6832FAD5
:1027B0000CF353D0012303FA0CF302EA030E33EABD
:1027C0000202F1D14A68122A3FF649AF122A3FF6B7
:1027D00066AF01A555F822F0872600081F270008DC
:1027E000292700083B2700089F2600089F2600088D
:1027F0009F2600089F2600089F2600089F260008A5
:102800009F2600089F2600089F2600089F26000894
:102810009F2600089F2600089F26000823270008FF
:102820002F270008012395E7022393E7114A136835
:1028300023EA0E0313609CE70E4A536823EA0E0353
:1028400053609FE70B4A936823EA0E039360A2E765
:10285000084AD36823EA0E03D360A5E702B070BD2F
:102860000000221000003110001002400000014062
:1028700000080140000401400AB1016170470904E9
:102880000161704730B40124056CAC40C56B6C60CD
:10289000046863604368102B05D00368996003687F
:1028A000DA6030BC704703689A600368D960F8E763
:1028B00060B310B402460168154B0B441548A0FBE9
:1028C00003031B099B001364134BD363022382F899
:1028D0002130086820F47F5020F03000536894685D
:1028E0002343D468234314692343546923439469DD
:1028F0002343D469234303430B60002090630123E7
:1029000082F8213082F8200010BC70470120704707
:10291000F8FFFDBFCDCCCCCC0000024038B504465A
:1029200090F82000012831D0012084F8200094F88C
:102930002100012804D0002384F82030022038BD73
:10294000022084F821000020A0632568286820F078
:10295000010028602046FFF795FFE36A5BB122681B
:10296000136843F00E0313602268136843F00103F9
:1029700013600020E3E72268136823F00403136068
:102980002268136843F00A031360EDE70220D6E7DC
:1029900038B5C36B1A6804682568016C04238B4042
:1029A000134235D015F0040F32D0236813F0200FF6
:1029B00003D1236823F0040323600368434A93424E
:1029C00014D01432934218D01432934217D01432D8
:1029D000934217D01432934217D01432934202D04C
:1029E0004FF0806203E04FF4800200E00422384B95
:1029F0005A60C36A03B1984738BD4022F7E74FF4E5
:102A00008062F4E74FF48042F1E74FF48022EEE772
:102A100002238B4013423CD015F0020F39D02368BB
:102A200013F0200F06D1236823F00A03236001234B
:102A300080F821300368254A934214D0143293421F
:102A40001CD0143293421BD0143293421BD0143248
:102A500093421BD01432934202D04FF0007203E035
:102A60004FF4001200E00222194B5A60002380F854
:102A70002030836A002BBFD09847BDE72022F3E7C0
:102A80004FF40072F0E74FF40052EDE74FF40032DC
:102A9000EAE7082303FA01F11142ADD015F0080F5F
:102AA000AAD0236823F00E032360026CC16B0123BC
:102AB00003FA02F24A60836380F82130002380F831
:102AC0002030036B002B97D0984795E70800024011
:102AD00000000240074AD36823F4E0631B041B0C88
:102AE000000200F4E060034343F0BF6343F40033AB
:102AF000D360704700ED00E000B5194BDB68C3F30D
:102B00000223C3F1070CBCF1040F28BF4FF0040CE3
:102B100003F1040EBEF1060F18D9033B4FF0FF3E40
:102B20000EFA0CFC21EA0C0199400EFA03F322EA9A
:102B30000303194300280BDB0901C9B200F160400F
:102B400000F5614080F800135DF804FB0023E5E721
:102B500000F00F000901C9B2024B1954F4E700BF9D
:102B600000ED00E014ED00E0002807DB00F01F029C
:102B7000400901239340024A42F82030704700BFC9
:102B800000E100E00138B0F1807F0BD24FF0E0238C
:102B90005861054AF02182F823100020986107222D
:102BA0001A6170470120704700ED00E070B4036ABD
:102BB00023F001030362036A4668826922F073020C
:102BC0000C6844EA020523F002028B6813430D4CA3
:102BD000A04209D00B4CA0420DD0466085614A68E6
:102BE0004263036270BC704723F00803CA68134352
:102BF00023F00403EEE726F440764A6932438E69F7
:102C00001643EAE7002C014030B4036A23F48073D2
:102C10000362036A4568C26922F073020C682243AA
:102C200023F400738C6843EA04230F4CA04209D0BC
:102C30000D4CA0420ED04560C2614A68C263036277
:102C400030BC704723F40063CC6843EA042323F4C8
:102C50008063EDE725F440554C6945EA04158C691D
:102C600045EA0415E7E700BF002C014030B4036AD1
:102C700023F480530362036A4468C26922F4E64283
:102C80000D6842EA052223F400538D6843EA0533B8
:102C9000074DA84206D04460C2614A6802640362DC
:102CA00030BC704724F480444D6944EA8514F2E74F
:102CB000002C014010B4036A046A24F00104046289
:102CC000846924F0F00C4CEA021223F00A030B434F
:102CD0008261036210BC704710B4046A24F01004CF
:102CE00004628469036A24F4704C4CEA023223F0D3
:102CF000A00343EA01138261036210BC704783683A
:102D000023F070030B4343F0070383607047704761
:102D100003681B4A90420AD0B0F1804F07D0A2F559
:102D20009432904203D002F58062904203D123F0A6
:102D300070034A681343124A90420AD0B0F1804FA0
:102D400007D0A2F59432904203D002F580629042FF
:102D500003D123F44073CA68134323F080034A6904
:102D6000134303608B68C3620B688362044B984211
:102D700002D00123436170470B690363F9E700BF89
:102D8000002C014040B310B5044690F83D30F3B13B
:102D9000022384F83D30214651F8040BFFF7B8FFB9
:102DA000012384F8463084F83E3084F83F3084F8BC
:102DB000403084F8413084F8423084F8433084F85D
:102DC000443084F8453084F83D30002010BD80F850
:102DD0003C30FEF72FFCDBE70120704740B310B515
:102DE000044690F83D30F3B1022384F83D3021468B
:102DF00051F8040BFFF78CFF012384F8463084F868
:102E00003E3084F83F3084F8403084F8413084F814
:102E1000423084F8433084F8443084F8453084F8F4
:102E20003D30002010BD80F83C30FFF770FFDBE73D
:102E30000120704730B4036A23F010030362036A71
:102E40004468826922F4E6420D6842EA052223F0D2
:102E500020038D6843EA05130E4DA84209D00D4D9D
:102E6000A8420ED0446082614A688263036230BC2B
:102E7000704723F08003CD6843EA051323F0400335
:102E8000EDE724F440644D6944EA85048D6944EA21
:102E90008504E7E7002C014038B590F83C30012B61
:102EA00060D004460D46012380F83C300C2A1AD825
:102EB000DFE802F0071919191D1919193119191923
:102EC00044000068FFF772FE2268936943F008032C
:102ED00093612268936923F00403936122689369E4
:102EE00029690B439361002084F83C0038BD0068D9
:102EF000FFF7A0FF2268936943F40063936122689F
:102F0000936923F48063936122689369296943EA92
:102F100001239361E7E70068FFF776FE2268D36933
:102F200043F00803D3612268D36923F00403D3611B
:102F30002268D36929690B43D361D4E70068FFF79E
:102F400095FE2268D36943F40063D3612268D36994
:102F500023F48063D3612268D369296943EA01239A
:102F6000D361C0E70220C1E710B4846824F47F4C29
:102F700042EA03220A4342EA0C02826010BC704714
:102F800090F83C30012B66D010B50446012380F840
:102F90003C30022380F83D300268936823F47F437D
:102FA00023F0770393600B68602B40D022D8402B2E
:102FB00047D00BD9502B0ED1CA6849680068FFF77B
:102FC00079FE50212068FFF79AFE04E0202B0CD0F8
:102FD00008D9302B09D0012384F83D30002084F833
:102FE0003C0010BD0BB1102BF5D119462068FFF73E
:102FF00086FEF0E7702B0ED0B3F5005FEBD1CB6807
:103000004A6889680068FFF7AFFF2268936843F455
:1030100080439360DFE7CB684A6889680068FFF700
:10302000A3FF2268936843F077039360D3E7CA68ED
:1030300049680068FFF750FE60212068FFF75FFED7
:10304000C9E7CA6849680068FFF734FE4021206874
:10305000FFF755FEBFE70220704701F01F01012373
:1030600003FA01FC036A23EA0C030362036A02FA0F
:1030700001F10B430362704710B50446084651BB8B
:1030800094F83E30DBB2013B18BF0123002B5BD12B
:10309000002839D1022384F83E30012201462068FD
:1030A000FFF7DBFF23682A4A93423DD02368284A72
:1030B00093423ED0B3F1804F3BD0A2F5943293427D
:1030C00037D002F58062934233D01A6842F0010291
:1030D0001A60002039E0042908D008290DD094F89E
:1030E0004130DBB2013B18BF0123CFE794F83F30FA
:1030F000DBB2013B18BF0123C8E794F84030DBB2D4
:10310000013B18BF0123C1E7042805D0082807D0D8
:10311000022384F84130C0E7022384F83F30BCE743
:10312000022384F84030B8E75A6C42F400425A64F3
:10313000BCE79A6802F00702062A07D01A6842F034
:1031400001021A60002000E0012010BD0020FCE711
:10315000002C014090F83C30012B2CD010B40123FE
:1031600080F83C30022380F83D3003685A689C6840
:1031700022F0700C0A6842EA0C025A6003680F4A97
:1031800093420AD0B3F1804F07D0A2F59432934214
:1031900003D002F58062934204D124F080044A688F
:1031A00014439C60012380F83D30002380F83C30BC
:1031B000184610BC70470220704700BF002C014029
:1031C0000268D36823F0C003D360202380F83D3029
:1031D00070470268D36823F49073D3600268536920
:1031E00023F001035361036B012B05D0202380F8EA
:1031F0003E300023036370470268D36823F0100356
:10320000D360F3E710B504460268136923F4405312
:10321000C1680B43136183680269134342691A430F
:103220000168CB6823F4B05323F00C031343CB6045
:103230000268536923F4407381690B435361026848
:10324000134B9A4220D0FFF7E5F9024602EB8202C7
:1032500002EB820263689B00B2FBF3F20D48A0FB15
:1032600002314909642303FB11231B013233A0FB04
:1032700003235B0903F0F00202EB011203F00F03DA
:10328000216813448B6010BDFFF7D4F90246DDE7D7
:10329000003801401F85EB5158B310B5044690F833
:1032A0003D300BB3242384F83D302268D36823F4E7
:1032B0000053D3602046FFF7A5FF2268136923F46B
:1032C000904313612268536923F02A0353612268F3
:1032D000D36843F40053D36000202064202384F893
:1032E0003D3084F83E3010BD80F83C30FEF7FAF9EE
:1032F000D8E7012070477047704710B5446A2368CB
:103300005A6994F83D30DBB2212B10D023685A69FA
:1033100002F0400294F83E30DBB2222B11D0236C35
:1033200043F0100323642046FFF7E6FF10BD02F0D0
:103330008002002AEAD00023E3842046FFF740FF02
:10334000E4E7002AEBD00023E3852046FFF741FFA6
:10335000E5E7704708B5406A036B012B02D0FFF721
:10336000CAFF08BD818D4908FFF7F3FFF9E708B5EB
:103370000346406A1B681B6813F0200F16D1002318
:10338000C3850268D36823F48073D36002685369ED
:1033900023F0010353610268536923F04003536132
:1033A000202380F83E30036B012B05D0036B012BEB
:1033B00008D0FEF78FF808BD0268D36823F0100329
:1033C000D360F3E7818DFFF7C4FFF4E730B583B036
:1033D000044613468162828500250564222280F816
:1033E0003E20826B14489062A26B1448D062A26B9C
:1033F00013481063A26B556320680A46011DA06B39
:10340000FFF78CFA019523681A6801925A680192B5
:10341000019A84F83C50DA6842F48072DA602268DB
:10342000536943F0010353612268536943F0400339
:103430005361284603B030BD6F3300085533000890
:10344000FB32000808B590F83E30DBB2202B0DD1DE
:1034500071B17AB190F83C30012B0DD0012380F886
:103460003C3000230363FFF7B1FF00E0022008BDFA
:103470000120FCE70120FAE70220F8E7704701602D
:1034800042608360009BC360019B036170472DE92C
:10349000F8430446084611466061A261D4F81C80D6
:1034A000C4F82080FDF71AFA0546E0612168FCF7B0
:1034B00079FF0746606261682846FCF773FFA16ADE
:1034C000FDF70EFA0646A062D4F808904146284659
:1034D000FDF704FA01464846FCF764FF0546E06242
:1034E000D4F80C9009F1004841463046FDF758FBEE
:1034F00028B949463046FDF75DFBE8B1C846C4F837
:10350000288041463846FDF7EBF901462846FDF78D
:10351000E7F905462063276907F100463146FDF7C4
:103520003FFB28B939462846FDF744FB30B13E46FB
:1035300026633046BDE8F883B046E0E72E46F7E75D
:1035400092B202804188891A89B241801A4492B2AB
:1035500083881A4492B28280009BC380C8290ED906
:10356000B1F57A7F28BF4FF47A714180C82A08D913
:10357000B2F57A7F28BF4FF47A7282807047C821F3
:10358000F3E7C822F9E7018042808380009BC38073
:10359000704700000C480D490D4A002302E0D45842
:1035A000C4500433C4188C42F9D30A4A0A4C00238D
:1035B00001E013600432A242FBD3FFF75FFF00F08B
:1035C0000FF8FDF75BFC7047000000201C00002096
:1035D000843600081C000020D4020020FEE7000012
:1035E00070B500260C4D0D4C641BA410A64209D1E9
:1035F00000F022F800260A4D0A4C641BA410A642D3
:1036000005D170BD55F8043B98470136EEE755F8F3
:10361000043B98470136F2E77C3600087C36000808
:103620007C3600088036000803460244934200D1ED
:10363000704703F8011BF9E7F8B500BFF8BC08BCF8
:103640009E467047F8B500BFF8BC08BC9E46704760
:1036500002030405060708090A0B0C0D0E0F1010D3
:103660000000000000000000000000000102030450
:0C36700006070809000000000102030426
:04367C00350100080C
:04368000110100082C
:103684000400040004000400B0047CFCA8FD520300
:0C36940001000000100000000024F40001
:040000050800359525
:00000001FF
