:020000040800F2
:100000000050002039240008090A00080B0A0008E3
:100010000D0A00080F0A0008110A0008000000007D
:10002000000000000000000000000000130A0008AB
:10003000150A000800000000170A0008190A000845
:1000400081240008812400088124000881240008FC
:1000500081240008812400088124000881240008EC
:1000600081240008812400088124000881240008DC
:1000700081240008812400088124000881240008CC
:1000800081240008812400088124000881240008BC
:1000900081240008210A0008812400088124000826
:1000A000812400088124000881240008812400089C
:1000B000812400088124000881240008812400088C
:1000C000812400088124000881240008812400087C
:1000D000812400088124000881240008812400086C
:1000E0008124000881240008812400080000000009
:1000F0000000000000000000000000000000000000
:0C01000000000000000000005FF808F1A3
:10010C0010B5054C237833B9044B13B10448AFF345
:10011C0000800123237010BD0C00002000000000A3
:10012C00DC24000808B5034B1BB103490348AFF3AB
:10013C00008008BD0000000010000020DC24000836
:10014C004FF0FF0C1CEAD0521EBF1CEAD15392EAAE
:10015C000C0F93EA0C0F6FD01A4480EA010C40028A
:10016C0018BF5FEA41211ED04FF0006343EA5010E4
:10017C0043EA5111A0FB01310CF00040B1F5000F26
:10018C003EBF490041EAD3715B0040EA010062F1D5
:10019C007F02FD2A1DD8B3F1004F40EBC25008BFBF
:1001AC0020F00100704790F0000F0CF0004C08BFDD
:1001BC0049024CEA502040EA51207F3AC2BFD2F1AA
:1001CC00FF0340EAC250704740F400004FF00003B8
:1001DC00013A5DDC12F1190FDCBF00F000407047F2
:1001EC00C2F10002410021FA02F1C2F1200200FA30
:1001FC0002FC5FEA310040F1000053EA4C0308BFF7
:10020C0020EADC70704792F0000F00F0004C02BF47
:10021C00400010F4000F013AF9D040EA0C0093F0C2
:10022C00000F01F0004C02BF490011F4000F013B1C
:10023C00F9D041EA0C018FE70CEAD15392EA0C0F8A
:10024C0018BF93EA0C0F0AD030F0004C18BF31F0F5
:10025C00004CD8D180EA010000F00040704790F0CB
:10026C00000F17BF90F0004F084691F0000F91F06F
:10027C00004F14D092EA0C0F01D142020FD193EA35
:10028C000C0F03D14B0218BF084608D180EA0100BD
:10029C0000F0004040F0FE4040F40000704740F099
:1002AC00FE4040F44000704780F0004002E000BF88
:1002BC0081F0004142001FBF5FEA410392EA030F45
:1002CC007FEA226C7FEA236C6AD04FEA1262D2EB8F
:1002DC001363C1BFD218414048404140B8BF5B4294
:1002EC00192B88BF704710F0004F40F4000020F02D
:1002FC007F4018BF404211F0004F41F4000121F043
:10030C007F4118BF494292EA030F3FD0A2F101028C
:10031C0041FA03FC10EB0C00C3F1200301FA03F1CA
:10032C0000F0004302D5494260EB4000B0F5000FED
:10033C0013D3B0F1807F06D340084FEA310102F1AC
:10034C000102FE2A51D2B1F1004F40EBC25008BF5E
:10035C0020F0010040EA03007047490040EB000028
:10036C00013A28BFB0F5000FEDD2B0FA80FCACF129
:10037C00080CB2EB0C0200FA0CF0AABF00EBC25056
:10038C0052421843BCBFD0401843704792F0000F44
:10039C0081F4000106BF80F400000132013BB5E797
:1003AC004FEA41037FEA226C18BF7FEA236C21D00D
:1003BC0092EA030F04D092F0000F08BF0846704772
:1003CC0090EA010F1CBF0020704712F07F4F04D140
:1003DC00400028BF40F00040704712F100723CBF53
:1003EC0000F50000704700F0004343F0FE4040F47D
:1003FC00000070477FEA226216BF08467FEA23633B
:10040C000146420206BF5FEA412390EA010F40F425
:10041C00800070474FF0000304E000BF10F0004371
:10042C0048BF40425FEA000C08BF704743F0964358
:10043C0001464FF000001CE050EA010208BF704773
:10044C004FF000030AE000BF50EA010208BF7047FA
:10045C0011F0004302D5404261EB41015FEA010C0F
:10046C0002BF84460146002043F0B64308BFA3F107
:10047C008053A3F50003BCFA8CF2083AA3EBC253E9
:10048C0010DB01FA02FC634400FA02FCC2F1200208
:10049C00BCF1004F20FA02F243EB020008BF20F03F
:1004AC000100704702F1200201FA02FCC2F12002A5
:1004BC0050EA4C0021FA02F243EB020008BF20EA9A
:1004CC00DC7070474FF0FF3C06E000BF4FF0010CB2
:1004DC0002E000BF4FF0010C4DF804CD4FEA400292
:1004EC004FEA41037FEA226C18BF7FEA236C11D0DC
:1004FC0001B052EA530C18BF90EA010F58BFB2EB8F
:10050C00030088BFC81738BF6FEAE17018BF40F00E
:10051C00010070477FEA226C02D15FEA402C05D1C2
:10052C007FEA236CE4D15FEA412CE1D05DF8040B47
:10053C00704700BF844608466146FFE70FB5FFF7DA
:10054C00C9FF002848BF10F1000F0FBD4DF808ED92
:10055C00FFF7F4FF0CBF012000205DF808FB00BF83
:10056C004DF808EDFFF7EAFF34BF012000205DF8DD
:10057C0008FB00BF4DF808EDFFF7E0FF94BF01202A
:10058C0000205DF808FB00BF4DF808EDFFF7D2FF27
:10059C0094BF012000205DF808FB00BF4DF808ED6A
:1005AC00FFF7C8FF34BF012000205DF808FB00BF37
:1005BC0042000ED2B2F1FE4F0BD34FF09E03B3EBC1
:1005CC00126209D44FEA002343F0004323FA02F0ED
:1005DC0070474FF00000704712F1610F01D14202D9
:1005EC0002D14FF0FF3070474FF00000704700BF52
:1005FC0030B589B000240494059406940794184BE4
:10060C009A6942F010029A619A6902F01002019202
:10061C00019A9A6942F020029A619A6902F02002CA
:10062C000292029A9A6942F004029A619B6903F061
:10063C0004030393039B0B4D22464FF400512846B1
:10064C0001F024FB4FF4005304930123059306940B
:10065C00079304A9284601F007FA09B030BD00BF82
:10066C00001002400010014010B4019C4FEA102C05
:10067C0084F800C06070080AA070E170110A217142
:10068C0062711A0AA271E37110BC704710B5002494
:10069C0009E04FF40051054801F0FEFA4FF4FA70EE
:1006AC0000F09CFE0134032CF3DD10BD0010014062
:1006BC0010B596B0002412941394149415941094BD
:1006CC00119409940A940B940C940D940E940F9419
:1006DC002022214601A801F0F3FE2B482B4B03608E
:1006EC0044608460C46004614461846101F036FC40
:1006FC00002836D14FF48053129312A9224801F0EE
:10070C00ECFC002830D1204801F054FC00282ED1FC
:10071C0000231093119310A91B4801F04BFD48BB0B
:10072C00002209920A920B920C920D920E920F9249
:10073C0009A9154801F09CFCF8B900230193029318
:10074C000393049305934FF400520692089301A966
:10075C000D4801F065FD98B90B4800F0DDF916B0B5
:10076C0010BDFFF793FFC5E7FFF790FFCBE7FFF74F
:10077C008DFFCDE7FFF78AFFD2E7FFF787FFDCE7B6
:10078C00FFF784FFE8E700BF60000020002C014069
:10079C0008B50A480A4B03604FF416534360002314
:1007AC008360C36003610C2242618361C36101F009
:1007BC00ABFD00B908BDFFF769FFFBE7A8000020FF
:1007CC000044004008B50D480D4B03600423436002
:1007DC0000238360C3604FF4A02202614FF48012A7
:1007EC004261037643768376C3760377437700F0D2
:1007FC00F5F900B908BDFFF749FFFBE73800002009
:10080C000064004000B591B02822002106A801F038
:10081C0057FE002301930293039304930593012243
:10082C0006924FF4803307930A9202220D920E9394
:10083C004FF4E0130F9306A800F0FAFD80B90F23D4
:10084C00019302210291002303934FF480620492DE
:10085C00059301A801F02CF828B911B05DF804FB40
:10086C00FFF714FFEBE7FFF711FFF6E780B594B045
:10087C0000F090FDFFF7C6FFFFF7BAFEFFF718FF79
:10088C00FFF786FFFFF79EFF002309930A930122CF
:10089C00089204930593069307930B920C920E22E5
:1008AC000D9208221292109311934FF400720E9233
:1008BC000F938DF84C303E4C04A9204600F034FACE
:1008CC00204600F0B7FA4FF08046DFF8E8803A4F48
:1008DC003A4D01953A4C00943346424639463948D4
:1008EC0001F042FD4FF08149019500944B46364A88
:1008FC003146364801F038FD019500944B464FF0D7
:10090C007C523349334801F02FFD01950094334656
:10091C0042463946304801F027FD304E244D03AB9A
:10092C0032460EA9284600F0B3FA2D4B18702D4C08
:10093C0023462D4A0121284600F028FB2B4B18702A
:10094C00A278E37803EB02239BB20233DFF8A0809A
:10095C00A8F80030274BB3F90000FFF75FFD044601
:10096C00254F3888FFF756FD01462246194801F0FD
:10097C0003FD0546B8F90000FFF750FD0446388822
:10098C00FFF748FD01462246104801F0F5FCFFF741
:10099C000FFE84B22846FFF70BFE009600231A4682
:1009AC00214680B2FFF760FE052000F017FDB4E78A
:1009BC0038000020CDCCCC3D0000A04000007A4691
:1009CC000000FA45EC000020CDCC4C3E200100206C
:1009DC00000040405401002088010020BC01002090
:1009EC003100002028000020C4010020300000202D
:1009FC003400002032000020000000207047FEE789
:100A0C00FEE7FEE7FEE770477047704708B500F059
:100A1C00D3FC08BD08B5024800F070FB08BD00BF50
:100A2C003800002082B00E4B9A6942F001029A61A4
:100A3C009A6902F001020092009ADA6942F080523F
:100A4C00DA61DB6903F080530193019B054A53681B
:100A5C0023F0E06343F00073536002B0704700BFB3
:100A6C00001002400000014010B586B00023029334
:100A7C0003930493059302681A4B9A4201D006B073
:100A8C0010BD03F5D633DA6942F00072DA61DA6927
:100A9C0002F000720092009A9A6942F004029A6184
:100AAC009B6903F004030193019B4FF400630293D1
:100ABC000D4C02A9204600F0D7FF4FF4805302934F
:100ACC00022303930323059302A9204600F0CCFFD5
:100ADC0000221146152001F0FBF8152001F030F929
:100AEC00CDE700BF00640040000801400268094BDC
:100AFC009A4200D0704782B003F564439A6942F47D
:100B0C0000629A619B6903F400630193019B02B03C
:100B1C00704700BF002C014000B587B00023029342
:100B2C0003930493059302680D4B9A4202D007B0CD
:100B3C005DF804FB03F564439A6942F004029A6180
:100B4C009B6903F004030193019B4FF480730293A0
:100B5C0002230393059302A9024800F085FFE6E700
:100B6C00002C01400008014010B586B00023029310
:100B7C000393049305930268164B9A4201D006B076
:100B8C0010BD03F5E633DA6942F40032DA61DA6952
:100B9C0002F400320092009A9A6942F004029A61BF
:100BAC009B6903F004030193019B0423029302232A
:100BBC00039303230593084C02A9204600F054FF2D
:100BCC000823029300230393049302A9204600F008
:100BDC004BFFD4E70044004000080140002800F01F
:100BEC00A18038B5044690F82030D3B12268136840
:100BFC0043F00103136000F0EBFB054623685A68D1
:100C0C0012F0010F10D100F0E3FB401B0A28F5D9BC
:100C1C00636A43F400336362052384F820300120B7
:100C2C0038BDFFF721FFE1E71A6822F002021A60D3
:100C3C0000F0CEFB054623685A6812F0020F0DD067
:100C4C0000F0C6FB401B0A28F5D9636A43F4003355
:100C5C006362052384F820300120E1E7227E012A1B
:100C6C003DD01A6822F080021A60637E012B3BD0C3
:100C7C002268136823F040031360A37E012B39D044
:100C8C002268136823F020031360E37E012B37D016
:100C9C002268136843F010031360237F012B35D0B7
:100CAC002268136823F008031360637F012B33D091
:100CBC002268136823F004031360A368E2681343EB
:100CCC0022691343626913436268013A2168134332
:100CDC00CB6100206062012384F82030A0E71A6801
:100CEC0042F080021A60C0E72268136843F04003A8
:100CFC001360C2E72268136843F020031360C4E753
:100D0C002268136823F010031360C6E72268136887
:100D1C0043F008031360C8E72268136843F0040328
:100D2C001360CAE701207047026890F82030013B3D
:100D3C00DBB2012B05D9436A43F4802343620120C3
:100D4C00704710B5D2F8003243F00103C2F80032FC
:100D5C004B6903F01F03012000FA03F3D2F81C02C5
:100D6C006FEA030C20EA0300C2F81C02C869C0B980
:100D7C00D2F80C020CEA0000C2F80C028C8848690C
:100D8C00D1F80CE044EA0E44483042F830400C886C
:100D9C004869D1F808E044EA0E44483002EBC00040
:100DAC004460C86901281AD0886988BBD2F804024B
:100DBC000CEA0000C2F80402086978BBD2F81402ED
:100DCC000CEA0000C2F81402096A01292CD0D2F8EE
:100DDC00003223F00103C2F80032002010BDD2F81B
:100DEC000C021843C2F80C028C884869D1F800E058
:100DFC0044EA0E44483042F830408C894869D1F8B6
:100E0C0008E044EA0E44483002EBC0004460CBE7F3
:100E1C00D2F804021843C2F80402CDE7D2F8140247
:100E2C001843C2F81402CFE7D2F81C120B43C2F8D5
:100E3C001C32CCE770B5044690F82050EDB2012D71
:100E4C0006D0436A43F4002343620125284670BD53
:100E5C00022380F820300268136823F0010313602A
:100E6C0000F0B6FA064623685B6813F0010F0CD04D
:100E7C0000F0AEFA831B0A2BF5D9636A43F40033F6
:100E8C006362052384F82030E0E700256562DDE726
:100E9C0030B590F820C00468A4680CF1FF3C5FFAF0
:100EAC008CFCBCF1010F6BD814F0E05F62D0C4F382
:100EBC00016CBCF1020F05D9436A43F40003436291
:100ECC00012062E0012404FA0CF41C608B68002BF6
:100EDC003DD10D68CB68046843EA45550CF1180305
:100EEC001B01E55003680C690CF1180E03EB0E1393
:100EFC005C600B7D012B35D0D17993791B0443EACF
:100F0C000163517943EA012314790168234301EB0E
:100F1C000C11C1F88C31D17893781B0443EA01632E
:100F2C00517843EA0123117802680B4302EB0C124F
:100F3C00C2F8883102680CF1180C4FEA0C1C52F8FC
:100F4C000C3043F0010342F80C3000201DE04C68DB
:100F5C0043EAC403CC6823430CF11804240105684C
:100F6C002B51BFE7036803EB0E13596841F48071F2
:100F7C005960C1E7436A43F400134362012004E063
:100F8C00436A43F480234362012030BD90F820C0B3
:100F9C000CF1FF3C5FFA8CFCBCF1010F00F29B8062
:100FAC0010B451B90468E46814F0030F10D1436A0B
:100FBC0043F40013436201207BE00468246914F0BD
:100FCC00030F05D1436A43F400134362012070E020
:100FDC0001F11B042401D0F800C05CF8044004F0BB
:100FEC0004049460002C66D101F11B042401D0F898
:100FFC0000C05CF80440640D1460046801F11B0C23
:10100C004FEA0C1C54F80C4004F00204D460046841
:10101C006444646804F00F041461046864446468F4
:10102C00C4F307249461046864446468240C546118
:10103C00026802EB0112D2F8B8211A70026802EBB6
:10104C000112D2F8B821C2F307225A70026802EBDF
:10105C000112D2F8B821C2F307429A70026802EB6F
:10106C000112D2F8B821120EDA70026802EB0112EA
:10107C00D2F8BC211A71026802EB0112D2F8BC2121
:10108C00C2F307225A71026802EB0112D2F8BC219A
:10109C00C2F307429A71026802EB0112D2F8BC212A
:1010AC00120EDA7189B90268D36843F02003D36059
:1010BC00002010BC704701F11B042401D0F800C0C3
:1010CC005CF80440E408546097E70268136943F045
:1010DC0020031361ECE7436A43F48023436201204D
:1010EC00704770477047704770477047704770473C
:1010FC007047704770477047704770472DE9F84F3D
:10110C00054603685C69D3F804809F68D3F80CB07B
:10111C00D3F810A0D3F8189014F001063BD017F0B8
:10112C00010616D001229A6017F0020F08D117F0B1
:10113C00040F0CD117F0080606D04FF4805608E0C7
:10114C00FFF7CFFF002604E0FFF7CEFF01E04FF4DE
:10115C00006617F4807F0DD02B684FF480729A6074
:10116C0017F4007F40F0868017F4806F00F08680C3
:10117C0046F4005617F4803F0DD02B684FF48032A4
:10118C009A6017F4003F40F0838017F4802F00F032
:10119C00838046F4004614F0080F07D01BF0100FA4
:1011AC0004D046F400762B681022DA6014F0040F99
:1011BC0002D01BF0080F79D114F0020F04D02B6869
:1011CC00DB6813F0030F78D114F0400F07D01AF03E
:1011DC00100F04D046F480662B6810221A6114F0AC
:1011EC00200F02D01AF0080F6BD114F0100F04D09E
:1011FC002B681B6913F0030F6AD114F4003F02D063
:10120C0018F0100F68D114F4803F02D018F0080FBA
:10121C0069D114F4004F7AD018F0040F74D014F480
:10122C00807F04D019F0010F01D046F0010614F4B0
:10123C00007F04D019F0020F01D046F0020614F41E
:10124C00806F04D019F0040F01D046F0040614F49A
:10125C00006F59D019F0700956D0B9F1400F65D014
:10126C0058D8B9F1200F5ED0B9F1300F42D146F009
:10127C00200644E02846FFF735FF7BE717F4006FA4
:10128C0002D046F4804675E72846FFF72EFF71E73B
:10129C002846FFF728FF7EE717F4002F02D046F40C
:1012AC00803678E72846FFF721FF74E72B68082281
:1012BC00DA602846FFF71CFF7EE72846FFF717FF8A
:1012CC0082E72B6808221A612846FFF713FF8CE788
:1012DC002846FFF70EFF90E72B6810225A6028462D
:1012EC00FFF709FF8FE72B6808225A602846FFF7A3
:1012FC0003FF8EE7B9F1100F01D146F008062A68FA
:10130C00936923F0700393612B6804225A609EB991
:10131C00BDE8F88FB9F1500F0BD0B9F1600FEED1D9
:10132C0046F48076EBE746F01006E8E746F0400618
:10133C00E5E746F08006E2E76B6A1E436E622846DC
:10134C00FFF7DBFEE4E7000010B504460E4B1878FF
:10135C004FF47A73B3FBF0F30C4A1068B0FBF3F064
:10136C0000F0FCFC68B90F2C01D901200AE0002226
:10137C0021464FF0FF3000F0ABFC054B1C60002009
:10138C0000E0012010BD00BF02000020080000207A
:10139C000400002008B5074A136843F010031360DB
:1013AC00032000F083FC0020FFF7CEFFFFF73AFB91
:1013BC00002008BD00200240034A1168034B1B7833
:1013CC000B441360704700BFE001002002000020B6
:1013DC00014B1868704700BFE001002038B5044687
:1013EC00FFF7F6FF0546B4F1FF3F02D0044B1B7824
:1013FC001C44FFF7EDFF401BA042FAD338BD00BFE1
:10140C000200002082B0084B1B68084AA2FB032391
:10141C005B0A00FB03F3019300BF019B5A1E019270
:10142C00002BF9D102B0704708000020D34D621098
:10143C00002800F0F18170B582B00446036813F007
:10144C00010F2CD0994B5B6803F00C03042B1DD0BF
:10145C00964B5B6803F00C03082B12D06368B3F552
:10146C00803F41D0002B55D103F1804303F5043369
:10147C001A6822F480321A601A6822F480221A60E8
:10148C0037E08A4B5B6813F4803FE7D0874B1B68CF
:10149C0013F4003F03D06368002B00F0BF81236876
:1014AC0013F0020F75D0814B5B6813F00C0F5FD0FB
:1014BC007E4B5B6803F00C03082B54D02369002B84
:1014CC0000F08A807A4B01221A60FFF781FF0546F3
:1014DC00764B1B6813F0020F75D1FFF779FF401B99
:1014EC000228F5D903209EE1704A136843F4803337
:1014FC001360636843B3FFF76BFF05466B4B1B68C8
:10150C0013F4003FCBD1FFF763FF401B6428F5D9E0
:10151C00032088E1B3F5A02F09D0644B1A6822F49C
:10152C0080321A601A6822F480221A60E1E703F113
:10153C008043A3F53C331A6842F480221A601A687F
:10154C0042F480321A60D4E7FFF742FF0546574B4E
:10155C001B6813F4003FA2D0FFF73AFF401B64282E
:10156C00F5D903205FE1514B5B6813F4803FA5D1A3
:10157C004E4B1B6813F0020F03D02369012B40F074
:10158C004F814A4A136823F0F803616943EAC103A7
:10159C001360236813F0080F33D0A369002B5CD0C1
:1015AC00434B0122C3F88024FFF712FF05463F4B43
:1015BC005B6A13F0020F21D1FFF70AFF401B0228D0
:1015CC00F5D903202FE1394A136823F0F803616938
:1015DC0043EAC1031360DCE7354B00221A60FFF7C6
:1015EC00F7FE0546314B1B6813F0020FD1D0FFF705
:1015FC00EFFE401B0228F5D9032014E10120FFF770
:10160C0001FF236813F0040F00F09680274BDB6971
:10161C0013F0805F34D1254BDA6942F08052DA61E5
:10162C00DB6903F080530193019B0125214B1B685F
:10163C0013F4807F26D0E368012B3DD0002B53D1CF
:10164C0003F1804303F504331A6A22F001021A6293
:10165C001A6A22F004021A6233E0154B0022C3F816
:10166C008024FFF7B5FE0546104B5B6A13F0020FA2
:10167C00C7D0FFF7ADFE401B0228F5D90320D2E0FE
:10168C000025D3E70B4A136843F480731360FFF70C
:10169C009FFE0646074B1B6813F4807FCBD1FFF7E8
:1016AC0097FE801B6428F5D90320BCE00010024093
:1016BC0000004242007000405F4A136A43F001038D
:1016CC001362E36833B3FFF783FE06465A4B1B6A7B
:1016DC0013F0020F2FD1FFF77BFE801B41F28833F2
:1016EC009842F3D903209EE0052B09D0524B1A6A7D
:1016FC0022F001021A621A6A22F004021A62E0E76E
:10170C004D4B1A6A42F004021A621A6A42F0010244
:10171C001A62D6E7FFF75CFE0646474B1B6A13F0CE
:10172C00020F08D0FFF754FE801B41F28833984219
:10173C00F3D9032077E0E5B9E369002B72D03E4A78
:10174C00526802F00C02082A56D0022B17D03B4BE1
:10175C0000221A66FFF73CFE0446374B1B6813F059
:10176C00007F47D0FFF734FE001B0228F5D9032079
:10177C0059E0314AD36923F08053D361DCE72F4B16
:10178C0000221A66FFF724FE05462B4B1B6813F04C
:10179C00007F06D0FFF71CFE401B0228F5D9032062
:1017AC0041E0236AB3F5803F1AD023494B6823F4F8
:1017BC007413226A606A024313434B601F4B01226D
:1017CC001A66FFF705FE04461B4B1B6813F0007FDF
:1017DC000ED1FFF7FDFD001B0228F5D9032022E0F6
:1017EC00154A536823F40033A1680B435360DCE7BC
:1017FC00002018E0002016E0012B16D00E4B5B6881
:10180C0003F48031226A914211D103F47013626A9D
:10181C0093420ED1002006E001207047012002E027
:10182C00012000E0002002B070BD0120FBE7012088
:10183C00F9E70120F7E700BF001002400000424228
:10184C0086B0174B0FCB0DF1180C0CE90F0040F2C2
:10185C000123ADF80430134B5B6803F00C02082A2B
:10186C0002D0114806B07047C3F3834218326A4461
:10187C0012F8100C13F4803F0DD00A4B5B68C3F3C5
:10188C00404318336B4413F8143C074A02FB00F036
:10189C00B0FBF3F0E6E7054B03FB00F0E2E700BF1B
:1018AC00F42400080010024000127A0000093D00E8
:1018BC00002800F0A08070B50D460446524B1B6802
:1018CC0003F007038B420BD24F4A136823F0070334
:1018DC000B431360136803F007038B4240F08D80B9
:1018EC00236813F0020F17D013F0040F04D0474AEB
:1018FC00536843F4E0635360236813F0080F04D07B
:10190C00424A536843F460535360404A536823F08F
:10191C00F003A1680B435360236813F0010F31D01F
:10192C006368012B20D0022B25D0384A126812F0A4
:10193C00020F64D035494A6822F0030213434B600E
:10194C00FFF746FD0646314B5B6803F00C036268FB
:10195C00B3EB820F16D0FFF73BFD801B41F28833AF
:10196C009842F0D9032045E0284A126812F4003F4F
:10197C00E0D101203EE0254A126812F0007FD9D157
:10198C00012037E0204B1B6803F00703AB420AD958
:10199C001D4A136823F007032B431360136803F0ED
:1019AC000703AB422DD1236813F0040F06D0174A5E
:1019BC00536823F4E063E1680B435360236813F02E
:1019CC00080F07D0114A536823F46053216943EA86
:1019DC00C1035360FFF734FF0C4B5B68C3F3031375
:1019EC000B4AD35CD8400B4B18600B4B1868FFF7B5
:1019FC00ABFC002070BD012070470120FAE70120EC
:101A0C00F8E70120F6E700BF00200240001002407A
:101A1C00082500080800002004000020014B18686D
:101A2C00704700BF0800002008B5FFF7F7FF044B14
:101A3C005B68C3F30223034AD35CD84008BD00BFE4
:101A4C00001002401825000808B5FFF7E7FF044B0B
:101A5C005B68C3F3C223034AD35CD84008BD00BF04
:101A6C00001002401825000870B582B00024A4466E
:101A7C00A6E0804DAA4210D007D97F4DAA420CD0C7
:101A8C0005F58035AA4208D013E0A5F58015AA42C9
:101A9C0003D005F57025AA4207D18A68002A58D0D0
:101AAC00012A51D04361082403E0A5F58015AA4210
:101ABC00F3D0BEF1FF0F4ED80646BEF1FF0F4CD847
:101ACC004FEA8C0233680F25954023EA050304FA8C
:101ADC0002F2134333604B6813F0805F6ED0674B98
:101AEC009A6942F001029A619B6903F00103019328
:101AFC00019B4FEA9C02951C614B53F825600CF03E
:101B0C0003039D000F23AB4026EA03065D4B98426E
:101B1C0029D003F58063984200F08E8003F5806332
:101B2C00984200F08B8003F58063984219D004230F
:101B3C001AE0CC68BDE7CC680434BAE7CC6808344A
:101B4C00B7E7CC680C34B4E703610824B1E7002490
:101B5C00AFE70424ADE7061DAFE7ACF10802920035
:101B6C00B0E7032300E00023AB4033430232444D83
:101B7C0045F822304B6813F4803F61D0424A136819
:101B8C0043EA0E0313604B6813F4003F5ED03E4AE9
:101B9C00536843EA0E0353604B6813F4801F5BD009
:101BAC00394A936843EA0E0393604B6813F4001FA1
:101BBC0058D0354AD36843EA0E03D3600CF1010CBC
:101BCC000A6832FA0CF353D0012303FA0CF302EA3D
:101BDC00030E33EA0202F1D14A68122A3FF649AFEA
:101BEC00122A3FF666AF01A555F822F0A71A000895
:101BFC003F1B0008491B00085B1B0008BF1A0008AC
:101C0C00BF1A0008BF1A0008BF1A0008BF1A000844
:101C1C00BF1A0008BF1A0008BF1A0008BF1A000834
:101C2C00BF1A0008BF1A0008BF1A0008BF1A000824
:101C3C00431B00084F1B0008012395E7022393E781
:101C4C00114A136823EA0E0313609CE70E4A53688B
:101C5C0023EA0E0353609FE70B4A936823EA0E03B3
:101C6C009360A2E7084AD36823EA0E03D360A5E782
:101C7C0002B070BD000022100000311000100240B4
:101C8C000000014000080140000401400AB101615C
:101C9C007047090401617047C36801EA030221EA35
:101CAC00030141EA0241016170470000074AD36811
:101CBC0023F4E0631B041B0C000200F4E0600343FC
:101CCC0043F0BF6343F40033D360704700ED00E092
:101CDC0000B5194BDB68C3F30223C3F1070CBCF14D
:101CEC00040F28BF4FF0040C03F1040EBEF1060FD5
:101CFC0018D9033B4FF0FF3E0EFA0CFC21EA0C0105
:101D0C0099400EFA03F322EA0303194300280BDB74
:101D1C000901C9B200F1604000F5614080F8001380
:101D2C005DF804FB0023E5E700F00F000901C9B2E0
:101D3C00024B1954F4E700BF00ED00E014ED00E095
:101D4C00002807DB00F01F02400901239340024AE0
:101D5C0042F82030704700BF00E100E00138B0F1DC
:101D6C00807F0BD24FF0E0235861054AF02182F8B6
:101D7C0023100020986107221A61704701207047D8
:101D8C0000ED00E070B4036A23F001030362036A00
:101D9C004668826922F073020C6844EA020523F05B
:101DAC0002028B6813430D4CA04209D00B4CA0428D
:101DBC000DD0466085614A684263036270BC70470F
:101DCC0023F00803CA68134323F00403EEE726F458
:101DDC0040764A6932438E691643EAE7002C01408B
:101DEC0030B4036A23F480730362036A4568C269E2
:101DFC0022F073020C68224323F400738C6843EACC
:101E0C0004230F4CA04209D00D4CA0420ED04560CB
:101E1C00C2614A68C263036230BC704723F400633A
:101E2C00CC6843EA042323F48063EDE725F44055A2
:101E3C004C6945EA04158C6945EA0415E7E700BFCF
:101E4C00002C014030B4036A23F480530362036A0C
:101E5C004468C26922F4E6420D6842EA052223F482
:101E6C0000538D6843EA0533074DA84206D0446001
:101E7C00C2614A680264036230BC704724F4804437
:101E8C004D6944EA8514F2E7002C014010B4036A52
:101E9C00046A24F001040462846924F0F00C4CEA16
:101EAC00021223F00A030B438261036210BC7047D9
:101EBC0010B4046A24F0100404628469036A24F4E4
:101ECC00704C4CEA023223F0A00343EA0113826106
:101EDC00036210BC7047836823F070030B4343F01C
:101EEC00070383607047704703681B4A90420AD00F
:101EFC00B0F1804F07D0A2F59432904203D002F596
:101F0C008062904203D123F070034A681343124A53
:101F1C0090420AD0B0F1804F07D0A2F59432904293
:101F2C0003D002F58062904203D123F44073CA6857
:101F3C00134323F080034A69134303608B68C36225
:101F4C000B688362044B984202D0012343617047B3
:101F5C000B690363F9E700BF002C014040B310B5D7
:101F6C00044690F83D30F3B1022384F83D3021460D
:101F7C0051F8040BFFF7B8FF012384F8463084F8BE
:101F8C003E3084F83F3084F8403084F8413084F897
:101F9C00423084F8433084F8443084F8453084F877
:101FAC003D30002010BD80F83C30FEF79FFDDBE794
:101FBC000120704740B310B5044690F83D30F3B1A2
:101FCC00022384F83D30214651F8040BFFF78CFFB7
:101FDC00012384F8463084F83E3084F83F3084F88E
:101FEC00403084F8413084F8423084F8433084F82F
:101FFC00443084F8453084F83D30002010BD80F822
:10200C003C30FFF770FFDBE70120704730B4036A08
:10201C0023F010030362036A4468826922F4E642E7
:10202C000D6842EA052223F020038D6843EA05136C
:10203C000E4DA84209D00D4DA8420ED044608261CD
:10204C004A688263036230BC704723F08003CD681A
:10205C0043EA051323F04003EDE724F440644D6993
:10206C0044EA85048D6944EA8504E7E7002C0140C5
:10207C0090F83C30012B22D010B50446012380F897
:10208C003C300C2A0BD8DFE802F0070A0A0A0E0AC9
:10209C000A0A120A0A0A16000068FFF773FE0020EB
:1020AC0084F83C0010BD0068FFF7B0FFF7E700684C
:1020BC00FFF796FEF3E70068FFF7C4FEEFE7022098
:1020CC00704710B4846824F47F4C42EA03220A431C
:1020DC0042EA0C02826010BC704790F83C30012B35
:1020EC0066D010B50446012380F83C30022380F8FA
:1020FC003D300268936823F47F4323F077039360A9
:10210C000B68602B40D022D8402B47D00BD9502BDA
:10211C000ED1CA6849680068FFF7B8FE50212068E4
:10212C00FFF7D9FE04E0202B0CD008D9302B09D0B6
:10213C00012384F83D30002084F83C0010BD0BB125
:10214C00102BF5D119462068FFF7C5FEF0E7702B70
:10215C000ED0B3F5005FEBD1CB684A688968006894
:10216C00FFF7AFFF2268936843F480439360DFE787
:10217C00CB684A6889680068FFF7A3FF22689368F8
:10218C0043F077039360D3E7CA6849680068FFF7A8
:10219C008FFE60212068FFF79EFEC9E7CA68496878
:1021AC000068FFF773FE40212068FFF794FEBFE73D
:1021BC000220704790F83C30012B2CD010B4012336
:1021CC0080F83C30022380F83D3003685A689C68E4
:1021DC0022F0700C0A6842EA0C025A6003680F4A3B
:1021EC0093420AD0B3F1804F07D0A2F594329342B8
:1021FC0003D002F58062934204D124F080044A6833
:10220C0014439C60012380F83D30002380F83C305F
:10221C00184610BC70470220704700BF002C0140CC
:10222C0090F83C30012B22D0012380F83C30CB6855
:10223C0023F440738A68134323F480634A6813437E
:10224C0023F400630A68134323F480530A6913438D
:10225C0023F400534A69134323F48043CA6913439C
:10226C0002685364002380F83C3018467047022003
:10227C007047000010B504460268136923F44053FC
:10228C00C1680B43136183680269134342691A43A3
:10229C000168CB6823F4B05323F00C031343CB60D9
:1022AC000268536923F4407381690B4353610268DC
:1022BC00134B9A4220D0FFF7B7FB024602EB820287
:1022CC0002EB820263689B00B2FBF3F20D48A0FBA9
:1022DC0002314909642303FB11231B013233A0FB98
:1022EC0003235B0903F0F00202EB011203F00F036E
:1022FC00216813448B6010BDFFF7A6FB0246DDE797
:10230C00003801401F85EB5158B310B5044690F8C6
:10231C003D300BB3242384F83D302268D36823F47A
:10232C000053D3602046FFF7A5FF2268136923F4FE
:10233C00904313612268536923F02A035361226886
:10234C00D36843F40053D36000202064202384F826
:10235C003D3084F83E3010BD80F83C30FEF704FC74
:10236C00D8E7012070477047016042608360009B92
:10237C00C360019B036170472DE9F843044608468E
:10238C0011466061A261D4F81C80C4F82080FDF76E
:10239C008FFF0546E0612168FDF7D2FE07466062BB
:1023AC0061682846FDF7CCFEA16AFDF783FF06465F
:1023BC00A062D4F8089041462846FDF779FF014603
:1023CC004846FDF7BDFE0546E062D4F80C9009F1D5
:1023DC00004841463046FEF7CDF828B9494630460C
:1023EC00FEF7D2F8E8B1C846C4F828804146384612
:1023FC00FDF760FF01462846FDF75CFF05462063AC
:10240C00276907F100463146FEF7B4F828B939467A
:10241C002846FEF7B9F830B13E4626633046BDE893
:10242C00F883B046E0E72E46F7E700000C480D496C
:10243C000D4A002302E0D458C4500433C4188C4213
:10244C00F9D30A4A0A4C002301E013600432A24279
:10245C00FBD3FFF788FF00F00FF8FEF707FA704781
:10246C00000000200C000020282500080C00002093
:10247C00E4010020FEE7000070B500260C4D0D4C69
:10248C00641BA410A64209D100F022F800260A4DC4
:10249C000A4C641BA410A64205D170BD55F8043B30
:1024AC0098470136EEE755F8043B98470136F2E7BA
:1024BC0020250008202500082025000824250008D8
:1024CC0003460244934200D1704703F8011BF9E71D
:1024DC00F8B500BFF8BC08BC9E467047F8B500BF05
:0824EC00F8BC08BC9E467047D5
:1024F40002030405060708090A0B0C0D0E0F101041
:1025040000000000000000000000000001020304BD
:0C25140006070809000000000102030493
:04252000310100087D
:042524000D0100089D
:0C25280058020100100000000024F40024
:040000050800243992
:00000001FF
